{
  "contracts/TerraLedger.sol": {
    "TerraLedger": {
      "abi": [
        {
          "inputs": [],
          "stateMutability": "nonpayable",
          "type": "constructor"
        },
        {
          "inputs": [],
          "name": "AccessControlBadConfirmation",
          "type": "error"
        },
        {
          "inputs": [
            {
              "internalType": "address",
              "name": "account",
              "type": "address"
            },
            {
              "internalType": "bytes32",
              "name": "neededRole",
              "type": "bytes32"
            }
          ],
          "name": "AccessControlUnauthorizedAccount",
          "type": "error"
        },
        {
          "anonymous": false,
          "inputs": [
            {
              "indexed": true,
              "internalType": "uint256",
              "name": "propertyId",
              "type": "uint256"
            },
            {
              "indexed": true,
              "internalType": "address",
              "name": "oldOwner",
              "type": "address"
            },
            {
              "indexed": true,
              "internalType": "address",
              "name": "newOwner",
              "type": "address"
            }
          ],
          "name": "OwnershipTransferred",
          "type": "event"
        },
        {
          "anonymous": false,
          "inputs": [
            {
              "indexed": true,
              "internalType": "uint256",
              "name": "propertyId",
              "type": "uint256"
            },
            {
              "indexed": true,
              "internalType": "address",
              "name": "owner",
              "type": "address"
            },
            {
              "indexed": false,
              "internalType": "string",
              "name": "location",
              "type": "string"
            },
            {
              "indexed": false,
              "internalType": "string",
              "name": "area",
              "type": "string"
            },
            {
              "indexed": false,
              "internalType": "string",
              "name": "propertyType",
              "type": "string"
            }
          ],
          "name": "PropertyRegistered",
          "type": "event"
        },
        {
          "anonymous": false,
          "inputs": [
            {
              "indexed": true,
              "internalType": "bytes32",
              "name": "role",
              "type": "bytes32"
            },
            {
              "indexed": true,
              "internalType": "bytes32",
              "name": "previousAdminRole",
              "type": "bytes32"
            },
            {
              "indexed": true,
              "internalType": "bytes32",
              "name": "newAdminRole",
              "type": "bytes32"
            }
          ],
          "name": "RoleAdminChanged",
          "type": "event"
        },
        {
          "anonymous": false,
          "inputs": [
            {
              "indexed": true,
              "internalType": "bytes32",
              "name": "role",
              "type": "bytes32"
            },
            {
              "indexed": true,
              "internalType": "address",
              "name": "account",
              "type": "address"
            },
            {
              "indexed": true,
              "internalType": "address",
              "name": "sender",
              "type": "address"
            }
          ],
          "name": "RoleGranted",
          "type": "event"
        },
        {
          "anonymous": false,
          "inputs": [
            {
              "indexed": true,
              "internalType": "bytes32",
              "name": "role",
              "type": "bytes32"
            },
            {
              "indexed": true,
              "internalType": "address",
              "name": "account",
              "type": "address"
            },
            {
              "indexed": true,
              "internalType": "address",
              "name": "sender",
              "type": "address"
            }
          ],
          "name": "RoleRevoked",
          "type": "event"
        },
        {
          "anonymous": false,
          "inputs": [
            {
              "indexed": true,
              "internalType": "uint256",
              "name": "propertyId",
              "type": "uint256"
            },
            {
              "indexed": true,
              "internalType": "address",
              "name": "owner",
              "type": "address"
            },
            {
              "indexed": true,
              "internalType": "address",
              "name": "buyer",
              "type": "address"
            }
          ],
          "name": "TransferApproved",
          "type": "event"
        },
        {
          "anonymous": false,
          "inputs": [
            {
              "indexed": true,
              "internalType": "uint256",
              "name": "propertyId",
              "type": "uint256"
            },
            {
              "indexed": true,
              "internalType": "address",
              "name": "owner",
              "type": "address"
            },
            {
              "indexed": true,
              "internalType": "address",
              "name": "buyer",
              "type": "address"
            }
          ],
          "name": "TransferRequested",
          "type": "event"
        },
        {
          "inputs": [],
          "name": "AUTHORITY_ROLE",
          "outputs": [
            {
              "internalType": "bytes32",
              "name": "",
              "type": "bytes32"
            }
          ],
          "stateMutability": "view",
          "type": "function"
        },
        {
          "inputs": [],
          "name": "DEFAULT_ADMIN_ROLE",
          "outputs": [
            {
              "internalType": "bytes32",
              "name": "",
              "type": "bytes32"
            }
          ],
          "stateMutability": "view",
          "type": "function"
        },
        {
          "inputs": [],
          "name": "REGISTRAR_ROLE",
          "outputs": [
            {
              "internalType": "bytes32",
              "name": "",
              "type": "bytes32"
            }
          ],
          "stateMutability": "view",
          "type": "function"
        },
        {
          "inputs": [
            {
              "internalType": "address",
              "name": "account",
              "type": "address"
            }
          ],
          "name": "addRegistrar",
          "outputs": [],
          "stateMutability": "nonpayable",
          "type": "function"
        },
        {
          "inputs": [
            {
              "internalType": "uint256",
              "name": "_propertyId",
              "type": "uint256"
            }
          ],
          "name": "approveTransfer",
          "outputs": [],
          "stateMutability": "nonpayable",
          "type": "function"
        },
        {
          "inputs": [
            {
              "internalType": "uint256",
              "name": "_propertyId",
              "type": "uint256"
            }
          ],
          "name": "cancelTransfer",
          "outputs": [],
          "stateMutability": "nonpayable",
          "type": "function"
        },
        {
          "inputs": [
            {
              "internalType": "bytes32",
              "name": "role",
              "type": "bytes32"
            }
          ],
          "name": "getRoleAdmin",
          "outputs": [
            {
              "internalType": "bytes32",
              "name": "",
              "type": "bytes32"
            }
          ],
          "stateMutability": "view",
          "type": "function"
        },
        {
          "inputs": [
            {
              "internalType": "bytes32",
              "name": "role",
              "type": "bytes32"
            },
            {
              "internalType": "address",
              "name": "account",
              "type": "address"
            }
          ],
          "name": "grantRole",
          "outputs": [],
          "stateMutability": "nonpayable",
          "type": "function"
        },
        {
          "inputs": [
            {
              "internalType": "bytes32",
              "name": "role",
              "type": "bytes32"
            },
            {
              "internalType": "address",
              "name": "account",
              "type": "address"
            }
          ],
          "name": "hasRole",
          "outputs": [
            {
              "internalType": "bool",
              "name": "",
              "type": "bool"
            }
          ],
          "stateMutability": "view",
          "type": "function"
        },
        {
          "inputs": [],
          "name": "nextPropertyId",
          "outputs": [
            {
              "internalType": "uint256",
              "name": "",
              "type": "uint256"
            }
          ],
          "stateMutability": "view",
          "type": "function"
        },
        {
          "inputs": [
            {
              "internalType": "uint256",
              "name": "",
              "type": "uint256"
            }
          ],
          "name": "properties",
          "outputs": [
            {
              "internalType": "uint256",
              "name": "propertyId",
              "type": "uint256"
            },
            {
              "internalType": "address",
              "name": "owner",
              "type": "address"
            },
            {
              "internalType": "string",
              "name": "location",
              "type": "string"
            },
            {
              "internalType": "string",
              "name": "area",
              "type": "string"
            },
            {
              "internalType": "string",
              "name": "propertyType",
              "type": "string"
            },
            {
              "internalType": "bool",
              "name": "isRegistered",
              "type": "bool"
            }
          ],
          "stateMutability": "view",
          "type": "function"
        },
        {
          "inputs": [
            {
              "internalType": "address",
              "name": "_propertyOwner",
              "type": "address"
            },
            {
              "internalType": "string",
              "name": "_location",
              "type": "string"
            },
            {
              "internalType": "string",
              "name": "_area",
              "type": "string"
            },
            {
              "internalType": "string",
              "name": "_propertyType",
              "type": "string"
            }
          ],
          "name": "registerProperty",
          "outputs": [],
          "stateMutability": "nonpayable",
          "type": "function"
        },
        {
          "inputs": [
            {
              "internalType": "address",
              "name": "account",
              "type": "address"
            }
          ],
          "name": "removeRegistrar",
          "outputs": [],
          "stateMutability": "nonpayable",
          "type": "function"
        },
        {
          "inputs": [
            {
              "internalType": "bytes32",
              "name": "role",
              "type": "bytes32"
            },
            {
              "internalType": "address",
              "name": "callerConfirmation",
              "type": "address"
            }
          ],
          "name": "renounceRole",
          "outputs": [],
          "stateMutability": "nonpayable",
          "type": "function"
        },
        {
          "inputs": [
            {
              "internalType": "uint256",
              "name": "_propertyId",
              "type": "uint256"
            },
            {
              "internalType": "address",
              "name": "_buyer",
              "type": "address"
            }
          ],
          "name": "requestTransfer",
          "outputs": [],
          "stateMutability": "nonpayable",
          "type": "function"
        },
        {
          "inputs": [
            {
              "internalType": "bytes32",
              "name": "role",
              "type": "bytes32"
            },
            {
              "internalType": "address",
              "name": "account",
              "type": "address"
            }
          ],
          "name": "revokeRole",
          "outputs": [],
          "stateMutability": "nonpayable",
          "type": "function"
        },
        {
          "inputs": [
            {
              "internalType": "bytes4",
              "name": "interfaceId",
              "type": "bytes4"
            }
          ],
          "name": "supportsInterface",
          "outputs": [
            {
              "internalType": "bool",
              "name": "",
              "type": "bool"
            }
          ],
          "stateMutability": "view",
          "type": "function"
        },
        {
          "inputs": [
            {
              "internalType": "uint256",
              "name": "",
              "type": "uint256"
            }
          ],
          "name": "transferRequests",
          "outputs": [
            {
              "internalType": "address",
              "name": "buyer",
              "type": "address"
            },
            {
              "internalType": "bool",
              "name": "pending",
              "type": "bool"
            }
          ],
          "stateMutability": "view",
          "type": "function"
        }
      ],
      "evm": {
        "bytecode": {
          "linkReferences": {},
          "object": "608060405260016003553480156200001657600080fd5b506200002c6000801b336200009960201b60201c565b506200005f7fd565e3fc066df348a5cbc05a8d6323e00552838041cea2d84cc59876ba37735d336200009960201b60201c565b50620000927fedcc084d3dcd65a1f7f23c65c46722faca6953d28e43150a467cf43e5c309238336200009960201b60201c565b506200020e565b6000620000ad83836200019c60201b60201c565b6200019157600160008085815260200190815260200160002060000160008473ffffffffffffffffffffffffffffffffffffffff1673ffffffffffffffffffffffffffffffffffffffff16815260200190815260200160002060006101000a81548160ff0219169083151502179055506200012d6200020660201b60201c565b73ffffffffffffffffffffffffffffffffffffffff168273ffffffffffffffffffffffffffffffffffffffff16847f2f8788117e7eff1d82e926ec794901d17c78024a50270940304540a733656f0d60405160405180910390a46001905062000196565b600090505b92915050565b600080600084815260200190815260200160002060000160008373ffffffffffffffffffffffffffffffffffffffff1673ffffffffffffffffffffffffffffffffffffffff16815260200190815260200160002060009054906101000a900460ff16905092915050565b600033905090565b6120d6806200021e6000396000f3fe608060405234801561001057600080fd5b50600436106101165760003560e01c80638ae7a72e116100a2578063ba904eed11610071578063ba904eed146102de578063cacca4a0146102fa578063d547741f14610316578063f68e955314610332578063f7b108081461035057610116565b80638ae7a72e1461025857806391d1485414610274578063a217fddf146102a4578063af92a693146102c257610116565b806336568abe116100e957806336568abe146101c857806339500f34146101e457806340344232146102025780634a3fba0e1461021e57806359caecb51461023c57610116565b806301ffc9a71461011b57806303486c401461014b578063248a9ca31461017c5780632f2ff15d146101ac575b600080fd5b61013560048036038101906101309190611406565b610385565b604051610142919061144e565b60405180910390f35b6101656004803603810190610160919061149f565b6103ff565b60405161017392919061150d565b60405180910390f35b6101966004803603810190610191919061156c565b610450565b6040516101a391906115a8565b60405180910390f35b6101c660048036038101906101c191906115ef565b61046f565b005b6101e260048036038101906101dd91906115ef565b610491565b005b6101ec61050c565b6040516101f9919061163e565b60405180910390f35b61021c60048036038101906102179190611659565b610512565b005b610226610818565b60405161023391906115a8565b60405180910390f35b6102566004803603810190610251919061149f565b61083c565b005b610272600480360381019061026d91906117df565b6109ac565b005b61028e600480360381019061028991906115ef565b610b5f565b60405161029b919061144e565b60405180910390f35b6102ac610bc9565b6040516102b991906115a8565b60405180910390f35b6102dc60048036038101906102d7919061189a565b610bd0565b005b6102f860048036038101906102f3919061189a565b610c28565b005b610314600480360381019061030f919061149f565b610c80565b005b610330600480360381019061032b91906115ef565b610e99565b005b61033a610ebb565b60405161034791906115a8565b60405180910390f35b61036a6004803603810190610365919061149f565b610edf565b60405161037c96959493929190611946565b60405180910390f35b60007f7965db0b000000000000000000000000000000000000000000000000000000007bffffffffffffffffffffffffffffffffffffffffffffffffffffffff1916827bffffffffffffffffffffffffffffffffffffffffffffffffffffffff191614806103f857506103f7826110e0565b5b9050919050565b60026020528060005260406000206000915090508060000160009054906101000a900473ffffffffffffffffffffffffffffffffffffffff16908060000160149054906101000a900460ff16905082565b6000806000838152602001908152602001600020600101549050919050565b61047882610450565b6104818161114a565b61048b838361115e565b50505050565b61049961124f565b73ffffffffffffffffffffffffffffffffffffffff168173ffffffffffffffffffffffffffffffffffffffff16146104fd576040517f6697b23200000000000000000000000000000000000000000000000000000000815260040160405180910390fd5b6105078282611257565b505050565b60035481565b60006001600084815260200190815260200160002090508060050160009054906101000a900460ff1661057a576040517f08c379a000000000000000000000000000000000000000000000000000000000815260040161057190611a08565b60405180910390fd5b8060010160009054906101000a900473ffffffffffffffffffffffffffffffffffffffff1673ffffffffffffffffffffffffffffffffffffffff163373ffffffffffffffffffffffffffffffffffffffff161461060c576040517f08c379a000000000000000000000000000000000000000000000000000000000815260040161060390611a9a565b60405180910390fd5b600073ffffffffffffffffffffffffffffffffffffffff168273ffffffffffffffffffffffffffffffffffffffff160361067b576040517f08c379a000000000000000000000000000000000000000000000000000000000815260040161067290611b06565b60405180910390fd5b8060010160009054906101000a900473ffffffffffffffffffffffffffffffffffffffff1673ffffffffffffffffffffffffffffffffffffffff168273ffffffffffffffffffffffffffffffffffffffff160361070d576040517f08c379a000000000000000000000000000000000000000000000000000000000815260040161070490611b72565b60405180910390fd5b60405180604001604052808373ffffffffffffffffffffffffffffffffffffffff168152602001600115158152506002600085815260200190815260200160002060008201518160000160006101000a81548173ffffffffffffffffffffffffffffffffffffffff021916908373ffffffffffffffffffffffffffffffffffffffff16021790555060208201518160000160146101000a81548160ff0219169083151502179055509050508173ffffffffffffffffffffffffffffffffffffffff163373ffffffffffffffffffffffffffffffffffffffff16847fad86e5395107a44c23ae10207c8807efe6cd1bfc2980d8c2bcab8f3a24daccd160405160405180910390a4505050565b7fd565e3fc066df348a5cbc05a8d6323e00552838041cea2d84cc59876ba37735d81565b60006001600083815260200190815260200160002090508060010160009054906101000a900473ffffffffffffffffffffffffffffffffffffffff1673ffffffffffffffffffffffffffffffffffffffff163373ffffffffffffffffffffffffffffffffffffffff1614806108d757506108d67fedcc084d3dcd65a1f7f23c65c46722faca6953d28e43150a467cf43e5c30923833610b5f565b5b610916576040517f08c379a000000000000000000000000000000000000000000000000000000000815260040161090d90611bde565b60405180910390fd5b6002600083815260200190815260200160002060000160149054906101000a900460ff16610979576040517f08c379a000000000000000000000000000000000000000000000000000000000815260040161097090611c4a565b60405180910390fd5b60006002600084815260200190815260200160002060000160146101000a81548160ff0219169083151502179055505050565b7fedcc084d3dcd65a1f7f23c65c46722faca6953d28e43150a467cf43e5c3092386109d68161114a565b600060035490506040518060c001604052808281526020018773ffffffffffffffffffffffffffffffffffffffff16815260200186815260200185815260200184815260200160011515815250600160008381526020019081526020016000206000820151816000015560208201518160010160006101000a81548173ffffffffffffffffffffffffffffffffffffffff021916908373ffffffffffffffffffffffffffffffffffffffff1602179055506040820151816002019081610a9c9190611e76565b506060820151816003019081610ab29190611e76565b506080820151816004019081610ac89190611e76565b5060a08201518160050160006101000a81548160ff0219169083151502179055509050508573ffffffffffffffffffffffffffffffffffffffff16817fccd9eacc2951faf606f4990aac2ca22a8dc259bdf2883713b2b85a46e8430a1e878787604051610b3793929190611f48565b60405180910390a360036000815480929190610b5290611fc3565b9190505550505050505050565b600080600084815260200190815260200160002060000160008373ffffffffffffffffffffffffffffffffffffffff1673ffffffffffffffffffffffffffffffffffffffff16815260200190815260200160002060009054906101000a900460ff16905092915050565b6000801b81565b7fd565e3fc066df348a5cbc05a8d6323e00552838041cea2d84cc59876ba37735d610bfa8161114a565b610c247fedcc084d3dcd65a1f7f23c65c46722faca6953d28e43150a467cf43e5c3092388361046f565b5050565b7fd565e3fc066df348a5cbc05a8d6323e00552838041cea2d84cc59876ba37735d610c528161114a565b610c7c7fedcc084d3dcd65a1f7f23c65c46722faca6953d28e43150a467cf43e5c30923883610e99565b5050565b7fedcc084d3dcd65a1f7f23c65c46722faca6953d28e43150a467cf43e5c309238610caa8161114a565b60006002600084815260200190815260200160002090508060000160149054906101000a900460ff16610d12576040517f08c379a0000000000000000000000000000000000000000000000000000000008152600401610d0990612057565b60405180910390fd5b600060016000858152602001908152602001600020905060008160010160009054906101000a900473ffffffffffffffffffffffffffffffffffffffff16905060008360000160009054906101000a900473ffffffffffffffffffffffffffffffffffffffff169050808360010160006101000a81548173ffffffffffffffffffffffffffffffffffffffff021916908373ffffffffffffffffffffffffffffffffffffffff16021790555060008460000160146101000a81548160ff0219169083151502179055508073ffffffffffffffffffffffffffffffffffffffff168273ffffffffffffffffffffffffffffffffffffffff16877f46f832fce5ed185c63ebb7f10c809c6ecbe7c0e49554433903d83d6dceef88f760405160405180910390a48073ffffffffffffffffffffffffffffffffffffffff168273ffffffffffffffffffffffffffffffffffffffff16877f16b85f49bf01212961345d3016c9a531894accf62eb7680f2045d79185cc0ec060405160405180910390a4505050505050565b610ea282610450565b610eab8161114a565b610eb58383611257565b50505050565b7fedcc084d3dcd65a1f7f23c65c46722faca6953d28e43150a467cf43e5c30923881565b60016020528060005260406000206000915090508060000154908060010160009054906101000a900473ffffffffffffffffffffffffffffffffffffffff1690806002018054610f2e90611c99565b80601f0160208091040260200160405190810160405280929190818152602001828054610f5a90611c99565b8015610fa75780601f10610f7c57610100808354040283529160200191610fa7565b820191906000526020600020905b815481529060010190602001808311610f8a57829003601f168201915b505050505090806003018054610fbc90611c99565b80601f0160208091040260200160405190810160405280929190818152602001828054610fe890611c99565b80156110355780601f1061100a57610100808354040283529160200191611035565b820191906000526020600020905b81548152906001019060200180831161101857829003601f168201915b50505050509080600401805461104a90611c99565b80601f016020809104026020016040519081016040528092919081815260200182805461107690611c99565b80156110c35780601f10611098576101008083540402835291602001916110c3565b820191906000526020600020905b8154815290600101906020018083116110a657829003601f168201915b5050505050908060050160009054906101000a900460ff16905086565b60007f01ffc9a7000000000000000000000000000000000000000000000000000000007bffffffffffffffffffffffffffffffffffffffffffffffffffffffff1916827bffffffffffffffffffffffffffffffffffffffffffffffffffffffff1916149050919050565b61115b8161115661124f565b611349565b50565b600061116a8383610b5f565b61124457600160008085815260200190815260200160002060000160008473ffffffffffffffffffffffffffffffffffffffff1673ffffffffffffffffffffffffffffffffffffffff16815260200190815260200160002060006101000a81548160ff0219169083151502179055506111e161124f565b73ffffffffffffffffffffffffffffffffffffffff168273ffffffffffffffffffffffffffffffffffffffff16847f2f8788117e7eff1d82e926ec794901d17c78024a50270940304540a733656f0d60405160405180910390a460019050611249565b600090505b92915050565b600033905090565b60006112638383610b5f565b1561133e57600080600085815260200190815260200160002060000160008473ffffffffffffffffffffffffffffffffffffffff1673ffffffffffffffffffffffffffffffffffffffff16815260200190815260200160002060006101000a81548160ff0219169083151502179055506112db61124f565b73ffffffffffffffffffffffffffffffffffffffff168273ffffffffffffffffffffffffffffffffffffffff16847ff6391f5c32d9c69d2a47ea670b442974b53935d1edc7fd64eb21e047a839171b60405160405180910390a460019050611343565b600090505b92915050565b6113538282610b5f565b6113965780826040517fe2517d3f00000000000000000000000000000000000000000000000000000000815260040161138d929190612077565b60405180910390fd5b5050565b6000604051905090565b600080fd5b600080fd5b60007fffffffff0000000000000000000000000000000000000000000000000000000082169050919050565b6113e3816113ae565b81146113ee57600080fd5b50565b600081359050611400816113da565b92915050565b60006020828403121561141c5761141b6113a4565b5b600061142a848285016113f1565b91505092915050565b60008115159050919050565b61144881611433565b82525050565b6000602082019050611463600083018461143f565b92915050565b6000819050919050565b61147c81611469565b811461148757600080fd5b50565b60008135905061149981611473565b92915050565b6000602082840312156114b5576114b46113a4565b5b60006114c38482850161148a565b91505092915050565b600073ffffffffffffffffffffffffffffffffffffffff82169050919050565b60006114f7826114cc565b9050919050565b611507816114ec565b82525050565b600060408201905061152260008301856114fe565b61152f602083018461143f565b9392505050565b6000819050919050565b61154981611536565b811461155457600080fd5b50565b60008135905061156681611540565b92915050565b600060208284031215611582576115816113a4565b5b600061159084828501611557565b91505092915050565b6115a281611536565b82525050565b60006020820190506115bd6000830184611599565b92915050565b6115cc816114ec565b81146115d757600080fd5b50565b6000813590506115e9816115c3565b92915050565b60008060408385031215611606576116056113a4565b5b600061161485828601611557565b9250506020611625858286016115da565b9150509250929050565b61163881611469565b82525050565b6000602082019050611653600083018461162f565b92915050565b600080604083850312156116705761166f6113a4565b5b600061167e8582860161148a565b925050602061168f858286016115da565b9150509250929050565b600080fd5b600080fd5b6000601f19601f8301169050919050565b7f4e487b7100000000000000000000000000000000000000000000000000000000600052604160045260246000fd5b6116ec826116a3565b810181811067ffffffffffffffff8211171561170b5761170a6116b4565b5b80604052505050565b600061171e61139a565b905061172a82826116e3565b919050565b600067ffffffffffffffff82111561174a576117496116b4565b5b611753826116a3565b9050602081019050919050565b82818337600083830152505050565b600061178261177d8461172f565b611714565b90508281526020810184848401111561179e5761179d61169e565b5b6117a9848285611760565b509392505050565b600082601f8301126117c6576117c5611699565b5b81356117d684826020860161176f565b91505092915050565b600080600080608085870312156117f9576117f86113a4565b5b6000611807878288016115da565b945050602085013567ffffffffffffffff811115611828576118276113a9565b5b611834878288016117b1565b935050604085013567ffffffffffffffff811115611855576118546113a9565b5b611861878288016117b1565b925050606085013567ffffffffffffffff811115611882576118816113a9565b5b61188e878288016117b1565b91505092959194509250565b6000602082840312156118b0576118af6113a4565b5b60006118be848285016115da565b91505092915050565b600081519050919050565b600082825260208201905092915050565b60005b838110156119015780820151818401526020810190506118e6565b60008484015250505050565b6000611918826118c7565b61192281856118d2565b93506119328185602086016118e3565b61193b816116a3565b840191505092915050565b600060c08201905061195b600083018961162f565b61196860208301886114fe565b818103604083015261197a818761190d565b9050818103606083015261198e818661190d565b905081810360808301526119a2818561190d565b90506119b160a083018461143f565b979650505050505050565b7f50726f706572747920646f6573206e6f742065786973742e0000000000000000600082015250565b60006119f26018836118d2565b91506119fd826119bc565b602082019050919050565b60006020820190508181036000830152611a21816119e5565b9050919050565b7f596f7520617265206e6f7420746865206f776e6572206f66207468697320707260008201527f6f70657274792e00000000000000000000000000000000000000000000000000602082015250565b6000611a846027836118d2565b9150611a8f82611a28565b604082019050919050565b60006020820190508181036000830152611ab381611a77565b9050919050565b7f496e76616c696420627579657220616464726573732e00000000000000000000600082015250565b6000611af06016836118d2565b9150611afb82611aba565b602082019050919050565b60006020820190508181036000830152611b1f81611ae3565b9050919050565b7f43616e6e6f74207472616e7366657220746f2073656c662e0000000000000000600082015250565b6000611b5c6018836118d2565b9150611b6782611b26565b602082019050919050565b60006020820190508181036000830152611b8b81611b4f565b9050919050565b7f4e6f74206f776e6572206f72207265676973747261722e000000000000000000600082015250565b6000611bc86017836118d2565b9150611bd382611b92565b602082019050919050565b60006020820190508181036000830152611bf781611bbb565b9050919050565b7f4e6f2070656e64696e67207472616e736665722e000000000000000000000000600082015250565b6000611c346014836118d2565b9150611c3f82611bfe565b602082019050919050565b60006020820190508181036000830152611c6381611c27565b9050919050565b7f4e487b7100000000000000000000000000000000000000000000000000000000600052602260045260246000fd5b60006002820490506001821680611cb157607f821691505b602082108103611cc457611cc3611c6a565b5b50919050565b60008190508160005260206000209050919050565b60006020601f8301049050919050565b600082821b905092915050565b600060088302611d2c7fffffffffffffffffffffffffffffffffffffffffffffffffffffffffffffffff82611cef565b611d368683611cef565b95508019841693508086168417925050509392505050565b6000819050919050565b6000611d73611d6e611d6984611469565b611d4e565b611469565b9050919050565b6000819050919050565b611d8d83611d58565b611da1611d9982611d7a565b848454611cfc565b825550505050565b600090565b611db6611da9565b611dc1818484611d84565b505050565b5b81811015611de557611dda600082611dae565b600181019050611dc7565b5050565b601f821115611e2a57611dfb81611cca565b611e0484611cdf565b81016020851015611e13578190505b611e27611e1f85611cdf565b830182611dc6565b50505b505050565b600082821c905092915050565b6000611e4d60001984600802611e2f565b1980831691505092915050565b6000611e668383611e3c565b9150826002028217905092915050565b611e7f826118c7565b67ffffffffffffffff811115611e9857611e976116b4565b5b611ea28254611c99565b611ead828285611de9565b600060209050601f831160018114611ee05760008415611ece578287015190505b611ed88582611e5a565b865550611f40565b601f198416611eee86611cca565b60005b82811015611f1657848901518255600182019150602085019450602081019050611ef1565b86831015611f335784890151611f2f601f891682611e3c565b8355505b6001600288020188555050505b505050505050565b60006060820190508181036000830152611f62818661190d565b90508181036020830152611f76818561190d565b90508181036040830152611f8a818461190d565b9050949350505050565b7f4e487b7100000000000000000000000000000000000000000000000000000000600052601160045260246000fd5b6000611fce82611469565b91507fffffffffffffffffffffffffffffffffffffffffffffffffffffffffffffffff820361200057611fff611f94565b5b600182019050919050565b7f4e6f2070656e64696e67207472616e7366657220726571756573742e00000000600082015250565b6000612041601c836118d2565b915061204c8261200b565b602082019050919050565b6000602082019050818103600083015261207081612034565b9050919050565b600060408201905061208c60008301856114fe565b6120996020830184611599565b939250505056fea26469706673582212204157a115713a928b607f3363d297fd1a42927bb88eac65f1f69575c433d2065f64736f6c63430008140033",
          "opcodes": "PUSH1 0x80 PUSH1 0x40 MSTORE PUSH1 0x1 PUSH1 0x3 SSTORE CALLVALUE DUP1 ISZERO PUSH3 0x16 JUMPI PUSH1 0x0 DUP1 REVERT JUMPDEST POP PUSH3 0x2C PUSH1 0x0 DUP1 SHL CALLER PUSH3 0x99 PUSH1 0x20 SHL PUSH1 0x20 SHR JUMP JUMPDEST POP PUSH3 0x5F PUSH32 0xD565E3FC066DF348A5CBC05A8D6323E00552838041CEA2D84CC59876BA37735D CALLER PUSH3 0x99 PUSH1 0x20 SHL PUSH1 0x20 SHR JUMP JUMPDEST POP PUSH3 0x92 PUSH32 0xEDCC084D3DCD65A1F7F23C65C46722FACA6953D28E43150A467CF43E5C309238 CALLER PUSH3 0x99 PUSH1 0x20 SHL PUSH1 0x20 SHR JUMP JUMPDEST POP PUSH3 0x20E JUMP JUMPDEST PUSH1 0x0 PUSH3 0xAD DUP4 DUP4 PUSH3 0x19C PUSH1 0x20 SHL PUSH1 0x20 SHR JUMP JUMPDEST PUSH3 0x191 JUMPI PUSH1 0x1 PUSH1 0x0 DUP1 DUP6 DUP2 MSTORE PUSH1 0x20 ADD SWAP1 DUP2 MSTORE PUSH1 0x20 ADD PUSH1 0x0 KECCAK256 PUSH1 0x0 ADD PUSH1 0x0 DUP5 PUSH20 0xFFFFFFFFFFFFFFFFFFFFFFFFFFFFFFFFFFFFFFFF AND PUSH20 0xFFFFFFFFFFFFFFFFFFFFFFFFFFFFFFFFFFFFFFFF AND DUP2 MSTORE PUSH1 0x20 ADD SWAP1 DUP2 MSTORE PUSH1 0x20 ADD PUSH1 0x0 KECCAK256 PUSH1 0x0 PUSH2 0x100 EXP DUP2 SLOAD DUP2 PUSH1 0xFF MUL NOT AND SWAP1 DUP4 ISZERO ISZERO MUL OR SWAP1 SSTORE POP PUSH3 0x12D PUSH3 0x206 PUSH1 0x20 SHL PUSH1 0x20 SHR JUMP JUMPDEST PUSH20 0xFFFFFFFFFFFFFFFFFFFFFFFFFFFFFFFFFFFFFFFF AND DUP3 PUSH20 0xFFFFFFFFFFFFFFFFFFFFFFFFFFFFFFFFFFFFFFFF AND DUP5 PUSH32 0x2F8788117E7EFF1D82E926EC794901D17C78024A50270940304540A733656F0D PUSH1 0x40 MLOAD PUSH1 0x40 MLOAD DUP1 SWAP2 SUB SWAP1 LOG4 PUSH1 0x1 SWAP1 POP PUSH3 0x196 JUMP JUMPDEST PUSH1 0x0 SWAP1 POP JUMPDEST SWAP3 SWAP2 POP POP JUMP JUMPDEST PUSH1 0x0 DUP1 PUSH1 0x0 DUP5 DUP2 MSTORE PUSH1 0x20 ADD SWAP1 DUP2 MSTORE PUSH1 0x20 ADD PUSH1 0x0 KECCAK256 PUSH1 0x0 ADD PUSH1 0x0 DUP4 PUSH20 0xFFFFFFFFFFFFFFFFFFFFFFFFFFFFFFFFFFFFFFFF AND PUSH20 0xFFFFFFFFFFFFFFFFFFFFFFFFFFFFFFFFFFFFFFFF AND DUP2 MSTORE PUSH1 0x20 ADD SWAP1 DUP2 MSTORE PUSH1 0x20 ADD PUSH1 0x0 KECCAK256 PUSH1 0x0 SWAP1 SLOAD SWAP1 PUSH2 0x100 EXP SWAP1 DIV PUSH1 0xFF AND SWAP1 POP SWAP3 SWAP2 POP POP JUMP JUMPDEST PUSH1 0x0 CALLER SWAP1 POP SWAP1 JUMP JUMPDEST PUSH2 0x20D6 DUP1 PUSH3 0x21E PUSH1 0x0 CODECOPY PUSH1 0x0 RETURN INVALID PUSH1 0x80 PUSH1 0x40 MSTORE CALLVALUE DUP1 ISZERO PUSH2 0x10 JUMPI PUSH1 0x0 DUP1 REVERT JUMPDEST POP PUSH1 0x4 CALLDATASIZE LT PUSH2 0x116 JUMPI PUSH1 0x0 CALLDATALOAD PUSH1 0xE0 SHR DUP1 PUSH4 0x8AE7A72E GT PUSH2 0xA2 JUMPI DUP1 PUSH4 0xBA904EED GT PUSH2 0x71 JUMPI DUP1 PUSH4 0xBA904EED EQ PUSH2 0x2DE JUMPI DUP1 PUSH4 0xCACCA4A0 EQ PUSH2 0x2FA JUMPI DUP1 PUSH4 0xD547741F EQ PUSH2 0x316 JUMPI DUP1 PUSH4 0xF68E9553 EQ PUSH2 0x332 JUMPI DUP1 PUSH4 0xF7B10808 EQ PUSH2 0x350 JUMPI PUSH2 0x116 JUMP JUMPDEST DUP1 PUSH4 0x8AE7A72E EQ PUSH2 0x258 JUMPI DUP1 PUSH4 0x91D14854 EQ PUSH2 0x274 JUMPI DUP1 PUSH4 0xA217FDDF EQ PUSH2 0x2A4 JUMPI DUP1 PUSH4 0xAF92A693 EQ PUSH2 0x2C2 JUMPI PUSH2 0x116 JUMP JUMPDEST DUP1 PUSH4 0x36568ABE GT PUSH2 0xE9 JUMPI DUP1 PUSH4 0x36568ABE EQ PUSH2 0x1C8 JUMPI DUP1 PUSH4 0x39500F34 EQ PUSH2 0x1E4 JUMPI DUP1 PUSH4 0x40344232 EQ PUSH2 0x202 JUMPI DUP1 PUSH4 0x4A3FBA0E EQ PUSH2 0x21E JUMPI DUP1 PUSH4 0x59CAECB5 EQ PUSH2 0x23C JUMPI PUSH2 0x116 JUMP JUMPDEST DUP1 PUSH4 0x1FFC9A7 EQ PUSH2 0x11B JUMPI DUP1 PUSH4 0x3486C40 EQ PUSH2 0x14B JUMPI DUP1 PUSH4 0x248A9CA3 EQ PUSH2 0x17C JUMPI DUP1 PUSH4 0x2F2FF15D EQ PUSH2 0x1AC JUMPI JUMPDEST PUSH1 0x0 DUP1 REVERT JUMPDEST PUSH2 0x135 PUSH1 0x4 DUP1 CALLDATASIZE SUB DUP2 ADD SWAP1 PUSH2 0x130 SWAP2 SWAP1 PUSH2 0x1406 JUMP JUMPDEST PUSH2 0x385 JUMP JUMPDEST PUSH1 0x40 MLOAD PUSH2 0x142 SWAP2 SWAP1 PUSH2 0x144E JUMP JUMPDEST PUSH1 0x40 MLOAD DUP1 SWAP2 SUB SWAP1 RETURN JUMPDEST PUSH2 0x165 PUSH1 0x4 DUP1 CALLDATASIZE SUB DUP2 ADD SWAP1 PUSH2 0x160 SWAP2 SWAP1 PUSH2 0x149F JUMP JUMPDEST PUSH2 0x3FF JUMP JUMPDEST PUSH1 0x40 MLOAD PUSH2 0x173 SWAP3 SWAP2 SWAP1 PUSH2 0x150D JUMP JUMPDEST PUSH1 0x40 MLOAD DUP1 SWAP2 SUB SWAP1 RETURN JUMPDEST PUSH2 0x196 PUSH1 0x4 DUP1 CALLDATASIZE SUB DUP2 ADD SWAP1 PUSH2 0x191 SWAP2 SWAP1 PUSH2 0x156C JUMP JUMPDEST PUSH2 0x450 JUMP JUMPDEST PUSH1 0x40 MLOAD PUSH2 0x1A3 SWAP2 SWAP1 PUSH2 0x15A8 JUMP JUMPDEST PUSH1 0x40 MLOAD DUP1 SWAP2 SUB SWAP1 RETURN JUMPDEST PUSH2 0x1C6 PUSH1 0x4 DUP1 CALLDATASIZE SUB DUP2 ADD SWAP1 PUSH2 0x1C1 SWAP2 SWAP1 PUSH2 0x15EF JUMP JUMPDEST PUSH2 0x46F JUMP JUMPDEST STOP JUMPDEST PUSH2 0x1E2 PUSH1 0x4 DUP1 CALLDATASIZE SUB DUP2 ADD SWAP1 PUSH2 0x1DD SWAP2 SWAP1 PUSH2 0x15EF JUMP JUMPDEST PUSH2 0x491 JUMP JUMPDEST STOP JUMPDEST PUSH2 0x1EC PUSH2 0x50C JUMP JUMPDEST PUSH1 0x40 MLOAD PUSH2 0x1F9 SWAP2 SWAP1 PUSH2 0x163E JUMP JUMPDEST PUSH1 0x40 MLOAD DUP1 SWAP2 SUB SWAP1 RETURN JUMPDEST PUSH2 0x21C PUSH1 0x4 DUP1 CALLDATASIZE SUB DUP2 ADD SWAP1 PUSH2 0x217 SWAP2 SWAP1 PUSH2 0x1659 JUMP JUMPDEST PUSH2 0x512 JUMP JUMPDEST STOP JUMPDEST PUSH2 0x226 PUSH2 0x818 JUMP JUMPDEST PUSH1 0x40 MLOAD PUSH2 0x233 SWAP2 SWAP1 PUSH2 0x15A8 JUMP JUMPDEST PUSH1 0x40 MLOAD DUP1 SWAP2 SUB SWAP1 RETURN JUMPDEST PUSH2 0x256 PUSH1 0x4 DUP1 CALLDATASIZE SUB DUP2 ADD SWAP1 PUSH2 0x251 SWAP2 SWAP1 PUSH2 0x149F JUMP JUMPDEST PUSH2 0x83C JUMP JUMPDEST STOP JUMPDEST PUSH2 0x272 PUSH1 0x4 DUP1 CALLDATASIZE SUB DUP2 ADD SWAP1 PUSH2 0x26D SWAP2 SWAP1 PUSH2 0x17DF JUMP JUMPDEST PUSH2 0x9AC JUMP JUMPDEST STOP JUMPDEST PUSH2 0x28E PUSH1 0x4 DUP1 CALLDATASIZE SUB DUP2 ADD SWAP1 PUSH2 0x289 SWAP2 SWAP1 PUSH2 0x15EF JUMP JUMPDEST PUSH2 0xB5F JUMP JUMPDEST PUSH1 0x40 MLOAD PUSH2 0x29B SWAP2 SWAP1 PUSH2 0x144E JUMP JUMPDEST PUSH1 0x40 MLOAD DUP1 SWAP2 SUB SWAP1 RETURN JUMPDEST PUSH2 0x2AC PUSH2 0xBC9 JUMP JUMPDEST PUSH1 0x40 MLOAD PUSH2 0x2B9 SWAP2 SWAP1 PUSH2 0x15A8 JUMP JUMPDEST PUSH1 0x40 MLOAD DUP1 SWAP2 SUB SWAP1 RETURN JUMPDEST PUSH2 0x2DC PUSH1 0x4 DUP1 CALLDATASIZE SUB DUP2 ADD SWAP1 PUSH2 0x2D7 SWAP2 SWAP1 PUSH2 0x189A JUMP JUMPDEST PUSH2 0xBD0 JUMP JUMPDEST STOP JUMPDEST PUSH2 0x2F8 PUSH1 0x4 DUP1 CALLDATASIZE SUB DUP2 ADD SWAP1 PUSH2 0x2F3 SWAP2 SWAP1 PUSH2 0x189A JUMP JUMPDEST PUSH2 0xC28 JUMP JUMPDEST STOP JUMPDEST PUSH2 0x314 PUSH1 0x4 DUP1 CALLDATASIZE SUB DUP2 ADD SWAP1 PUSH2 0x30F SWAP2 SWAP1 PUSH2 0x149F JUMP JUMPDEST PUSH2 0xC80 JUMP JUMPDEST STOP JUMPDEST PUSH2 0x330 PUSH1 0x4 DUP1 CALLDATASIZE SUB DUP2 ADD SWAP1 PUSH2 0x32B SWAP2 SWAP1 PUSH2 0x15EF JUMP JUMPDEST PUSH2 0xE99 JUMP JUMPDEST STOP JUMPDEST PUSH2 0x33A PUSH2 0xEBB JUMP JUMPDEST PUSH1 0x40 MLOAD PUSH2 0x347 SWAP2 SWAP1 PUSH2 0x15A8 JUMP JUMPDEST PUSH1 0x40 MLOAD DUP1 SWAP2 SUB SWAP1 RETURN JUMPDEST PUSH2 0x36A PUSH1 0x4 DUP1 CALLDATASIZE SUB DUP2 ADD SWAP1 PUSH2 0x365 SWAP2 SWAP1 PUSH2 0x149F JUMP JUMPDEST PUSH2 0xEDF JUMP JUMPDEST PUSH1 0x40 MLOAD PUSH2 0x37C SWAP7 SWAP6 SWAP5 SWAP4 SWAP3 SWAP2 SWAP1 PUSH2 0x1946 JUMP JUMPDEST PUSH1 0x40 MLOAD DUP1 SWAP2 SUB SWAP1 RETURN JUMPDEST PUSH1 0x0 PUSH32 0x7965DB0B00000000000000000000000000000000000000000000000000000000 PUSH28 0xFFFFFFFFFFFFFFFFFFFFFFFFFFFFFFFFFFFFFFFFFFFFFFFFFFFFFFFF NOT AND DUP3 PUSH28 0xFFFFFFFFFFFFFFFFFFFFFFFFFFFFFFFFFFFFFFFFFFFFFFFFFFFFFFFF NOT AND EQ DUP1 PUSH2 0x3F8 JUMPI POP PUSH2 0x3F7 DUP3 PUSH2 0x10E0 JUMP JUMPDEST JUMPDEST SWAP1 POP SWAP2 SWAP1 POP JUMP JUMPDEST PUSH1 0x2 PUSH1 0x20 MSTORE DUP1 PUSH1 0x0 MSTORE PUSH1 0x40 PUSH1 0x0 KECCAK256 PUSH1 0x0 SWAP2 POP SWAP1 POP DUP1 PUSH1 0x0 ADD PUSH1 0x0 SWAP1 SLOAD SWAP1 PUSH2 0x100 EXP SWAP1 DIV PUSH20 0xFFFFFFFFFFFFFFFFFFFFFFFFFFFFFFFFFFFFFFFF AND SWAP1 DUP1 PUSH1 0x0 ADD PUSH1 0x14 SWAP1 SLOAD SWAP1 PUSH2 0x100 EXP SWAP1 DIV PUSH1 0xFF AND SWAP1 POP DUP3 JUMP JUMPDEST PUSH1 0x0 DUP1 PUSH1 0x0 DUP4 DUP2 MSTORE PUSH1 0x20 ADD SWAP1 DUP2 MSTORE PUSH1 0x20 ADD PUSH1 0x0 KECCAK256 PUSH1 0x1 ADD SLOAD SWAP1 POP SWAP2 SWAP1 POP JUMP JUMPDEST PUSH2 0x478 DUP3 PUSH2 0x450 JUMP JUMPDEST PUSH2 0x481 DUP2 PUSH2 0x114A JUMP JUMPDEST PUSH2 0x48B DUP4 DUP4 PUSH2 0x115E JUMP JUMPDEST POP POP POP POP JUMP JUMPDEST PUSH2 0x499 PUSH2 0x124F JUMP JUMPDEST PUSH20 0xFFFFFFFFFFFFFFFFFFFFFFFFFFFFFFFFFFFFFFFF AND DUP2 PUSH20 0xFFFFFFFFFFFFFFFFFFFFFFFFFFFFFFFFFFFFFFFF AND EQ PUSH2 0x4FD JUMPI PUSH1 0x40 MLOAD PUSH32 0x6697B23200000000000000000000000000000000000000000000000000000000 DUP2 MSTORE PUSH1 0x4 ADD PUSH1 0x40 MLOAD DUP1 SWAP2 SUB SWAP1 REVERT JUMPDEST PUSH2 0x507 DUP3 DUP3 PUSH2 0x1257 JUMP JUMPDEST POP POP POP JUMP JUMPDEST PUSH1 0x3 SLOAD DUP2 JUMP JUMPDEST PUSH1 0x0 PUSH1 0x1 PUSH1 0x0 DUP5 DUP2 MSTORE PUSH1 0x20 ADD SWAP1 DUP2 MSTORE PUSH1 0x20 ADD PUSH1 0x0 KECCAK256 SWAP1 POP DUP1 PUSH1 0x5 ADD PUSH1 0x0 SWAP1 SLOAD SWAP1 PUSH2 0x100 EXP SWAP1 DIV PUSH1 0xFF AND PUSH2 0x57A JUMPI PUSH1 0x40 MLOAD PUSH32 0x8C379A000000000000000000000000000000000000000000000000000000000 DUP2 MSTORE PUSH1 0x4 ADD PUSH2 0x571 SWAP1 PUSH2 0x1A08 JUMP JUMPDEST PUSH1 0x40 MLOAD DUP1 SWAP2 SUB SWAP1 REVERT JUMPDEST DUP1 PUSH1 0x1 ADD PUSH1 0x0 SWAP1 SLOAD SWAP1 PUSH2 0x100 EXP SWAP1 DIV PUSH20 0xFFFFFFFFFFFFFFFFFFFFFFFFFFFFFFFFFFFFFFFF AND PUSH20 0xFFFFFFFFFFFFFFFFFFFFFFFFFFFFFFFFFFFFFFFF AND CALLER PUSH20 0xFFFFFFFFFFFFFFFFFFFFFFFFFFFFFFFFFFFFFFFF AND EQ PUSH2 0x60C JUMPI PUSH1 0x40 MLOAD PUSH32 0x8C379A000000000000000000000000000000000000000000000000000000000 DUP2 MSTORE PUSH1 0x4 ADD PUSH2 0x603 SWAP1 PUSH2 0x1A9A JUMP JUMPDEST PUSH1 0x40 MLOAD DUP1 SWAP2 SUB SWAP1 REVERT JUMPDEST PUSH1 0x0 PUSH20 0xFFFFFFFFFFFFFFFFFFFFFFFFFFFFFFFFFFFFFFFF AND DUP3 PUSH20 0xFFFFFFFFFFFFFFFFFFFFFFFFFFFFFFFFFFFFFFFF AND SUB PUSH2 0x67B JUMPI PUSH1 0x40 MLOAD PUSH32 0x8C379A000000000000000000000000000000000000000000000000000000000 DUP2 MSTORE PUSH1 0x4 ADD PUSH2 0x672 SWAP1 PUSH2 0x1B06 JUMP JUMPDEST PUSH1 0x40 MLOAD DUP1 SWAP2 SUB SWAP1 REVERT JUMPDEST DUP1 PUSH1 0x1 ADD PUSH1 0x0 SWAP1 SLOAD SWAP1 PUSH2 0x100 EXP SWAP1 DIV PUSH20 0xFFFFFFFFFFFFFFFFFFFFFFFFFFFFFFFFFFFFFFFF AND PUSH20 0xFFFFFFFFFFFFFFFFFFFFFFFFFFFFFFFFFFFFFFFF AND DUP3 PUSH20 0xFFFFFFFFFFFFFFFFFFFFFFFFFFFFFFFFFFFFFFFF AND SUB PUSH2 0x70D JUMPI PUSH1 0x40 MLOAD PUSH32 0x8C379A000000000000000000000000000000000000000000000000000000000 DUP2 MSTORE PUSH1 0x4 ADD PUSH2 0x704 SWAP1 PUSH2 0x1B72 JUMP JUMPDEST PUSH1 0x40 MLOAD DUP1 SWAP2 SUB SWAP1 REVERT JUMPDEST PUSH1 0x40 MLOAD DUP1 PUSH1 0x40 ADD PUSH1 0x40 MSTORE DUP1 DUP4 PUSH20 0xFFFFFFFFFFFFFFFFFFFFFFFFFFFFFFFFFFFFFFFF AND DUP2 MSTORE PUSH1 0x20 ADD PUSH1 0x1 ISZERO ISZERO DUP2 MSTORE POP PUSH1 0x2 PUSH1 0x0 DUP6 DUP2 MSTORE PUSH1 0x20 ADD SWAP1 DUP2 MSTORE PUSH1 0x20 ADD PUSH1 0x0 KECCAK256 PUSH1 0x0 DUP3 ADD MLOAD DUP2 PUSH1 0x0 ADD PUSH1 0x0 PUSH2 0x100 EXP DUP2 SLOAD DUP2 PUSH20 0xFFFFFFFFFFFFFFFFFFFFFFFFFFFFFFFFFFFFFFFF MUL NOT AND SWAP1 DUP4 PUSH20 0xFFFFFFFFFFFFFFFFFFFFFFFFFFFFFFFFFFFFFFFF AND MUL OR SWAP1 SSTORE POP PUSH1 0x20 DUP3 ADD MLOAD DUP2 PUSH1 0x0 ADD PUSH1 0x14 PUSH2 0x100 EXP DUP2 SLOAD DUP2 PUSH1 0xFF MUL NOT AND SWAP1 DUP4 ISZERO ISZERO MUL OR SWAP1 SSTORE POP SWAP1 POP POP DUP2 PUSH20 0xFFFFFFFFFFFFFFFFFFFFFFFFFFFFFFFFFFFFFFFF AND CALLER PUSH20 0xFFFFFFFFFFFFFFFFFFFFFFFFFFFFFFFFFFFFFFFF AND DUP5 PUSH32 0xAD86E5395107A44C23AE10207C8807EFE6CD1BFC2980D8C2BCAB8F3A24DACCD1 PUSH1 0x40 MLOAD PUSH1 0x40 MLOAD DUP1 SWAP2 SUB SWAP1 LOG4 POP POP POP JUMP JUMPDEST PUSH32 0xD565E3FC066DF348A5CBC05A8D6323E00552838041CEA2D84CC59876BA37735D DUP2 JUMP JUMPDEST PUSH1 0x0 PUSH1 0x1 PUSH1 0x0 DUP4 DUP2 MSTORE PUSH1 0x20 ADD SWAP1 DUP2 MSTORE PUSH1 0x20 ADD PUSH1 0x0 KECCAK256 SWAP1 POP DUP1 PUSH1 0x1 ADD PUSH1 0x0 SWAP1 SLOAD SWAP1 PUSH2 0x100 EXP SWAP1 DIV PUSH20 0xFFFFFFFFFFFFFFFFFFFFFFFFFFFFFFFFFFFFFFFF AND PUSH20 0xFFFFFFFFFFFFFFFFFFFFFFFFFFFFFFFFFFFFFFFF AND CALLER PUSH20 0xFFFFFFFFFFFFFFFFFFFFFFFFFFFFFFFFFFFFFFFF AND EQ DUP1 PUSH2 0x8D7 JUMPI POP PUSH2 0x8D6 PUSH32 0xEDCC084D3DCD65A1F7F23C65C46722FACA6953D28E43150A467CF43E5C309238 CALLER PUSH2 0xB5F JUMP JUMPDEST JUMPDEST PUSH2 0x916 JUMPI PUSH1 0x40 MLOAD PUSH32 0x8C379A000000000000000000000000000000000000000000000000000000000 DUP2 MSTORE PUSH1 0x4 ADD PUSH2 0x90D SWAP1 PUSH2 0x1BDE JUMP JUMPDEST PUSH1 0x40 MLOAD DUP1 SWAP2 SUB SWAP1 REVERT JUMPDEST PUSH1 0x2 PUSH1 0x0 DUP4 DUP2 MSTORE PUSH1 0x20 ADD SWAP1 DUP2 MSTORE PUSH1 0x20 ADD PUSH1 0x0 KECCAK256 PUSH1 0x0 ADD PUSH1 0x14 SWAP1 SLOAD SWAP1 PUSH2 0x100 EXP SWAP1 DIV PUSH1 0xFF AND PUSH2 0x979 JUMPI PUSH1 0x40 MLOAD PUSH32 0x8C379A000000000000000000000000000000000000000000000000000000000 DUP2 MSTORE PUSH1 0x4 ADD PUSH2 0x970 SWAP1 PUSH2 0x1C4A JUMP JUMPDEST PUSH1 0x40 MLOAD DUP1 SWAP2 SUB SWAP1 REVERT JUMPDEST PUSH1 0x0 PUSH1 0x2 PUSH1 0x0 DUP5 DUP2 MSTORE PUSH1 0x20 ADD SWAP1 DUP2 MSTORE PUSH1 0x20 ADD PUSH1 0x0 KECCAK256 PUSH1 0x0 ADD PUSH1 0x14 PUSH2 0x100 EXP DUP2 SLOAD DUP2 PUSH1 0xFF MUL NOT AND SWAP1 DUP4 ISZERO ISZERO MUL OR SWAP1 SSTORE POP POP POP JUMP JUMPDEST PUSH32 0xEDCC084D3DCD65A1F7F23C65C46722FACA6953D28E43150A467CF43E5C309238 PUSH2 0x9D6 DUP2 PUSH2 0x114A JUMP JUMPDEST PUSH1 0x0 PUSH1 0x3 SLOAD SWAP1 POP PUSH1 0x40 MLOAD DUP1 PUSH1 0xC0 ADD PUSH1 0x40 MSTORE DUP1 DUP3 DUP2 MSTORE PUSH1 0x20 ADD DUP8 PUSH20 0xFFFFFFFFFFFFFFFFFFFFFFFFFFFFFFFFFFFFFFFF AND DUP2 MSTORE PUSH1 0x20 ADD DUP7 DUP2 MSTORE PUSH1 0x20 ADD DUP6 DUP2 MSTORE PUSH1 0x20 ADD DUP5 DUP2 MSTORE PUSH1 0x20 ADD PUSH1 0x1 ISZERO ISZERO DUP2 MSTORE POP PUSH1 0x1 PUSH1 0x0 DUP4 DUP2 MSTORE PUSH1 0x20 ADD SWAP1 DUP2 MSTORE PUSH1 0x20 ADD PUSH1 0x0 KECCAK256 PUSH1 0x0 DUP3 ADD MLOAD DUP2 PUSH1 0x0 ADD SSTORE PUSH1 0x20 DUP3 ADD MLOAD DUP2 PUSH1 0x1 ADD PUSH1 0x0 PUSH2 0x100 EXP DUP2 SLOAD DUP2 PUSH20 0xFFFFFFFFFFFFFFFFFFFFFFFFFFFFFFFFFFFFFFFF MUL NOT AND SWAP1 DUP4 PUSH20 0xFFFFFFFFFFFFFFFFFFFFFFFFFFFFFFFFFFFFFFFF AND MUL OR SWAP1 SSTORE POP PUSH1 0x40 DUP3 ADD MLOAD DUP2 PUSH1 0x2 ADD SWAP1 DUP2 PUSH2 0xA9C SWAP2 SWAP1 PUSH2 0x1E76 JUMP JUMPDEST POP PUSH1 0x60 DUP3 ADD MLOAD DUP2 PUSH1 0x3 ADD SWAP1 DUP2 PUSH2 0xAB2 SWAP2 SWAP1 PUSH2 0x1E76 JUMP JUMPDEST POP PUSH1 0x80 DUP3 ADD MLOAD DUP2 PUSH1 0x4 ADD SWAP1 DUP2 PUSH2 0xAC8 SWAP2 SWAP1 PUSH2 0x1E76 JUMP JUMPDEST POP PUSH1 0xA0 DUP3 ADD MLOAD DUP2 PUSH1 0x5 ADD PUSH1 0x0 PUSH2 0x100 EXP DUP2 SLOAD DUP2 PUSH1 0xFF MUL NOT AND SWAP1 DUP4 ISZERO ISZERO MUL OR SWAP1 SSTORE POP SWAP1 POP POP DUP6 PUSH20 0xFFFFFFFFFFFFFFFFFFFFFFFFFFFFFFFFFFFFFFFF AND DUP2 PUSH32 0xCCD9EACC2951FAF606F4990AAC2CA22A8DC259BDF2883713B2B85A46E8430A1E DUP8 DUP8 DUP8 PUSH1 0x40 MLOAD PUSH2 0xB37 SWAP4 SWAP3 SWAP2 SWAP1 PUSH2 0x1F48 JUMP JUMPDEST PUSH1 0x40 MLOAD DUP1 SWAP2 SUB SWAP1 LOG3 PUSH1 0x3 PUSH1 0x0 DUP2 SLOAD DUP1 SWAP3 SWAP2 SWAP1 PUSH2 0xB52 SWAP1 PUSH2 0x1FC3 JUMP JUMPDEST SWAP2 SWAP1 POP SSTORE POP POP POP POP POP POP POP JUMP JUMPDEST PUSH1 0x0 DUP1 PUSH1 0x0 DUP5 DUP2 MSTORE PUSH1 0x20 ADD SWAP1 DUP2 MSTORE PUSH1 0x20 ADD PUSH1 0x0 KECCAK256 PUSH1 0x0 ADD PUSH1 0x0 DUP4 PUSH20 0xFFFFFFFFFFFFFFFFFFFFFFFFFFFFFFFFFFFFFFFF AND PUSH20 0xFFFFFFFFFFFFFFFFFFFFFFFFFFFFFFFFFFFFFFFF AND DUP2 MSTORE PUSH1 0x20 ADD SWAP1 DUP2 MSTORE PUSH1 0x20 ADD PUSH1 0x0 KECCAK256 PUSH1 0x0 SWAP1 SLOAD SWAP1 PUSH2 0x100 EXP SWAP1 DIV PUSH1 0xFF AND SWAP1 POP SWAP3 SWAP2 POP POP JUMP JUMPDEST PUSH1 0x0 DUP1 SHL DUP2 JUMP JUMPDEST PUSH32 0xD565E3FC066DF348A5CBC05A8D6323E00552838041CEA2D84CC59876BA37735D PUSH2 0xBFA DUP2 PUSH2 0x114A JUMP JUMPDEST PUSH2 0xC24 PUSH32 0xEDCC084D3DCD65A1F7F23C65C46722FACA6953D28E43150A467CF43E5C309238 DUP4 PUSH2 0x46F JUMP JUMPDEST POP POP JUMP JUMPDEST PUSH32 0xD565E3FC066DF348A5CBC05A8D6323E00552838041CEA2D84CC59876BA37735D PUSH2 0xC52 DUP2 PUSH2 0x114A JUMP JUMPDEST PUSH2 0xC7C PUSH32 0xEDCC084D3DCD65A1F7F23C65C46722FACA6953D28E43150A467CF43E5C309238 DUP4 PUSH2 0xE99 JUMP JUMPDEST POP POP JUMP JUMPDEST PUSH32 0xEDCC084D3DCD65A1F7F23C65C46722FACA6953D28E43150A467CF43E5C309238 PUSH2 0xCAA DUP2 PUSH2 0x114A JUMP JUMPDEST PUSH1 0x0 PUSH1 0x2 PUSH1 0x0 DUP5 DUP2 MSTORE PUSH1 0x20 ADD SWAP1 DUP2 MSTORE PUSH1 0x20 ADD PUSH1 0x0 KECCAK256 SWAP1 POP DUP1 PUSH1 0x0 ADD PUSH1 0x14 SWAP1 SLOAD SWAP1 PUSH2 0x100 EXP SWAP1 DIV PUSH1 0xFF AND PUSH2 0xD12 JUMPI PUSH1 0x40 MLOAD PUSH32 0x8C379A000000000000000000000000000000000000000000000000000000000 DUP2 MSTORE PUSH1 0x4 ADD PUSH2 0xD09 SWAP1 PUSH2 0x2057 JUMP JUMPDEST PUSH1 0x40 MLOAD DUP1 SWAP2 SUB SWAP1 REVERT JUMPDEST PUSH1 0x0 PUSH1 0x1 PUSH1 0x0 DUP6 DUP2 MSTORE PUSH1 0x20 ADD SWAP1 DUP2 MSTORE PUSH1 0x20 ADD PUSH1 0x0 KECCAK256 SWAP1 POP PUSH1 0x0 DUP2 PUSH1 0x1 ADD PUSH1 0x0 SWAP1 SLOAD SWAP1 PUSH2 0x100 EXP SWAP1 DIV PUSH20 0xFFFFFFFFFFFFFFFFFFFFFFFFFFFFFFFFFFFFFFFF AND SWAP1 POP PUSH1 0x0 DUP4 PUSH1 0x0 ADD PUSH1 0x0 SWAP1 SLOAD SWAP1 PUSH2 0x100 EXP SWAP1 DIV PUSH20 0xFFFFFFFFFFFFFFFFFFFFFFFFFFFFFFFFFFFFFFFF AND SWAP1 POP DUP1 DUP4 PUSH1 0x1 ADD PUSH1 0x0 PUSH2 0x100 EXP DUP2 SLOAD DUP2 PUSH20 0xFFFFFFFFFFFFFFFFFFFFFFFFFFFFFFFFFFFFFFFF MUL NOT AND SWAP1 DUP4 PUSH20 0xFFFFFFFFFFFFFFFFFFFFFFFFFFFFFFFFFFFFFFFF AND MUL OR SWAP1 SSTORE POP PUSH1 0x0 DUP5 PUSH1 0x0 ADD PUSH1 0x14 PUSH2 0x100 EXP DUP2 SLOAD DUP2 PUSH1 0xFF MUL NOT AND SWAP1 DUP4 ISZERO ISZERO MUL OR SWAP1 SSTORE POP DUP1 PUSH20 0xFFFFFFFFFFFFFFFFFFFFFFFFFFFFFFFFFFFFFFFF AND DUP3 PUSH20 0xFFFFFFFFFFFFFFFFFFFFFFFFFFFFFFFFFFFFFFFF AND DUP8 PUSH32 0x46F832FCE5ED185C63EBB7F10C809C6ECBE7C0E49554433903D83D6DCEEF88F7 PUSH1 0x40 MLOAD PUSH1 0x40 MLOAD DUP1 SWAP2 SUB SWAP1 LOG4 DUP1 PUSH20 0xFFFFFFFFFFFFFFFFFFFFFFFFFFFFFFFFFFFFFFFF AND DUP3 PUSH20 0xFFFFFFFFFFFFFFFFFFFFFFFFFFFFFFFFFFFFFFFF AND DUP8 PUSH32 0x16B85F49BF01212961345D3016C9A531894ACCF62EB7680F2045D79185CC0EC0 PUSH1 0x40 MLOAD PUSH1 0x40 MLOAD DUP1 SWAP2 SUB SWAP1 LOG4 POP POP POP POP POP POP JUMP JUMPDEST PUSH2 0xEA2 DUP3 PUSH2 0x450 JUMP JUMPDEST PUSH2 0xEAB DUP2 PUSH2 0x114A JUMP JUMPDEST PUSH2 0xEB5 DUP4 DUP4 PUSH2 0x1257 JUMP JUMPDEST POP POP POP POP JUMP JUMPDEST PUSH32 0xEDCC084D3DCD65A1F7F23C65C46722FACA6953D28E43150A467CF43E5C309238 DUP2 JUMP JUMPDEST PUSH1 0x1 PUSH1 0x20 MSTORE DUP1 PUSH1 0x0 MSTORE PUSH1 0x40 PUSH1 0x0 KECCAK256 PUSH1 0x0 SWAP2 POP SWAP1 POP DUP1 PUSH1 0x0 ADD SLOAD SWAP1 DUP1 PUSH1 0x1 ADD PUSH1 0x0 SWAP1 SLOAD SWAP1 PUSH2 0x100 EXP SWAP1 DIV PUSH20 0xFFFFFFFFFFFFFFFFFFFFFFFFFFFFFFFFFFFFFFFF AND SWAP1 DUP1 PUSH1 0x2 ADD DUP1 SLOAD PUSH2 0xF2E SWAP1 PUSH2 0x1C99 JUMP JUMPDEST DUP1 PUSH1 0x1F ADD PUSH1 0x20 DUP1 SWAP2 DIV MUL PUSH1 0x20 ADD PUSH1 0x40 MLOAD SWAP1 DUP2 ADD PUSH1 0x40 MSTORE DUP1 SWAP3 SWAP2 SWAP1 DUP2 DUP2 MSTORE PUSH1 0x20 ADD DUP3 DUP1 SLOAD PUSH2 0xF5A SWAP1 PUSH2 0x1C99 JUMP JUMPDEST DUP1 ISZERO PUSH2 0xFA7 JUMPI DUP1 PUSH1 0x1F LT PUSH2 0xF7C JUMPI PUSH2 0x100 DUP1 DUP4 SLOAD DIV MUL DUP4 MSTORE SWAP2 PUSH1 0x20 ADD SWAP2 PUSH2 0xFA7 JUMP JUMPDEST DUP3 ADD SWAP2 SWAP1 PUSH1 0x0 MSTORE PUSH1 0x20 PUSH1 0x0 KECCAK256 SWAP1 JUMPDEST DUP2 SLOAD DUP2 MSTORE SWAP1 PUSH1 0x1 ADD SWAP1 PUSH1 0x20 ADD DUP1 DUP4 GT PUSH2 0xF8A JUMPI DUP3 SWAP1 SUB PUSH1 0x1F AND DUP3 ADD SWAP2 JUMPDEST POP POP POP POP POP SWAP1 DUP1 PUSH1 0x3 ADD DUP1 SLOAD PUSH2 0xFBC SWAP1 PUSH2 0x1C99 JUMP JUMPDEST DUP1 PUSH1 0x1F ADD PUSH1 0x20 DUP1 SWAP2 DIV MUL PUSH1 0x20 ADD PUSH1 0x40 MLOAD SWAP1 DUP2 ADD PUSH1 0x40 MSTORE DUP1 SWAP3 SWAP2 SWAP1 DUP2 DUP2 MSTORE PUSH1 0x20 ADD DUP3 DUP1 SLOAD PUSH2 0xFE8 SWAP1 PUSH2 0x1C99 JUMP JUMPDEST DUP1 ISZERO PUSH2 0x1035 JUMPI DUP1 PUSH1 0x1F LT PUSH2 0x100A JUMPI PUSH2 0x100 DUP1 DUP4 SLOAD DIV MUL DUP4 MSTORE SWAP2 PUSH1 0x20 ADD SWAP2 PUSH2 0x1035 JUMP JUMPDEST DUP3 ADD SWAP2 SWAP1 PUSH1 0x0 MSTORE PUSH1 0x20 PUSH1 0x0 KECCAK256 SWAP1 JUMPDEST DUP2 SLOAD DUP2 MSTORE SWAP1 PUSH1 0x1 ADD SWAP1 PUSH1 0x20 ADD DUP1 DUP4 GT PUSH2 0x1018 JUMPI DUP3 SWAP1 SUB PUSH1 0x1F AND DUP3 ADD SWAP2 JUMPDEST POP POP POP POP POP SWAP1 DUP1 PUSH1 0x4 ADD DUP1 SLOAD PUSH2 0x104A SWAP1 PUSH2 0x1C99 JUMP JUMPDEST DUP1 PUSH1 0x1F ADD PUSH1 0x20 DUP1 SWAP2 DIV MUL PUSH1 0x20 ADD PUSH1 0x40 MLOAD SWAP1 DUP2 ADD PUSH1 0x40 MSTORE DUP1 SWAP3 SWAP2 SWAP1 DUP2 DUP2 MSTORE PUSH1 0x20 ADD DUP3 DUP1 SLOAD PUSH2 0x1076 SWAP1 PUSH2 0x1C99 JUMP JUMPDEST DUP1 ISZERO PUSH2 0x10C3 JUMPI DUP1 PUSH1 0x1F LT PUSH2 0x1098 JUMPI PUSH2 0x100 DUP1 DUP4 SLOAD DIV MUL DUP4 MSTORE SWAP2 PUSH1 0x20 ADD SWAP2 PUSH2 0x10C3 JUMP JUMPDEST DUP3 ADD SWAP2 SWAP1 PUSH1 0x0 MSTORE PUSH1 0x20 PUSH1 0x0 KECCAK256 SWAP1 JUMPDEST DUP2 SLOAD DUP2 MSTORE SWAP1 PUSH1 0x1 ADD SWAP1 PUSH1 0x20 ADD DUP1 DUP4 GT PUSH2 0x10A6 JUMPI DUP3 SWAP1 SUB PUSH1 0x1F AND DUP3 ADD SWAP2 JUMPDEST POP POP POP POP POP SWAP1 DUP1 PUSH1 0x5 ADD PUSH1 0x0 SWAP1 SLOAD SWAP1 PUSH2 0x100 EXP SWAP1 DIV PUSH1 0xFF AND SWAP1 POP DUP7 JUMP JUMPDEST PUSH1 0x0 PUSH32 0x1FFC9A700000000000000000000000000000000000000000000000000000000 PUSH28 0xFFFFFFFFFFFFFFFFFFFFFFFFFFFFFFFFFFFFFFFFFFFFFFFFFFFFFFFF NOT AND DUP3 PUSH28 0xFFFFFFFFFFFFFFFFFFFFFFFFFFFFFFFFFFFFFFFFFFFFFFFFFFFFFFFF NOT AND EQ SWAP1 POP SWAP2 SWAP1 POP JUMP JUMPDEST PUSH2 0x115B DUP2 PUSH2 0x1156 PUSH2 0x124F JUMP JUMPDEST PUSH2 0x1349 JUMP JUMPDEST POP JUMP JUMPDEST PUSH1 0x0 PUSH2 0x116A DUP4 DUP4 PUSH2 0xB5F JUMP JUMPDEST PUSH2 0x1244 JUMPI PUSH1 0x1 PUSH1 0x0 DUP1 DUP6 DUP2 MSTORE PUSH1 0x20 ADD SWAP1 DUP2 MSTORE PUSH1 0x20 ADD PUSH1 0x0 KECCAK256 PUSH1 0x0 ADD PUSH1 0x0 DUP5 PUSH20 0xFFFFFFFFFFFFFFFFFFFFFFFFFFFFFFFFFFFFFFFF AND PUSH20 0xFFFFFFFFFFFFFFFFFFFFFFFFFFFFFFFFFFFFFFFF AND DUP2 MSTORE PUSH1 0x20 ADD SWAP1 DUP2 MSTORE PUSH1 0x20 ADD PUSH1 0x0 KECCAK256 PUSH1 0x0 PUSH2 0x100 EXP DUP2 SLOAD DUP2 PUSH1 0xFF MUL NOT AND SWAP1 DUP4 ISZERO ISZERO MUL OR SWAP1 SSTORE POP PUSH2 0x11E1 PUSH2 0x124F JUMP JUMPDEST PUSH20 0xFFFFFFFFFFFFFFFFFFFFFFFFFFFFFFFFFFFFFFFF AND DUP3 PUSH20 0xFFFFFFFFFFFFFFFFFFFFFFFFFFFFFFFFFFFFFFFF AND DUP5 PUSH32 0x2F8788117E7EFF1D82E926EC794901D17C78024A50270940304540A733656F0D PUSH1 0x40 MLOAD PUSH1 0x40 MLOAD DUP1 SWAP2 SUB SWAP1 LOG4 PUSH1 0x1 SWAP1 POP PUSH2 0x1249 JUMP JUMPDEST PUSH1 0x0 SWAP1 POP JUMPDEST SWAP3 SWAP2 POP POP JUMP JUMPDEST PUSH1 0x0 CALLER SWAP1 POP SWAP1 JUMP JUMPDEST PUSH1 0x0 PUSH2 0x1263 DUP4 DUP4 PUSH2 0xB5F JUMP JUMPDEST ISZERO PUSH2 0x133E JUMPI PUSH1 0x0 DUP1 PUSH1 0x0 DUP6 DUP2 MSTORE PUSH1 0x20 ADD SWAP1 DUP2 MSTORE PUSH1 0x20 ADD PUSH1 0x0 KECCAK256 PUSH1 0x0 ADD PUSH1 0x0 DUP5 PUSH20 0xFFFFFFFFFFFFFFFFFFFFFFFFFFFFFFFFFFFFFFFF AND PUSH20 0xFFFFFFFFFFFFFFFFFFFFFFFFFFFFFFFFFFFFFFFF AND DUP2 MSTORE PUSH1 0x20 ADD SWAP1 DUP2 MSTORE PUSH1 0x20 ADD PUSH1 0x0 KECCAK256 PUSH1 0x0 PUSH2 0x100 EXP DUP2 SLOAD DUP2 PUSH1 0xFF MUL NOT AND SWAP1 DUP4 ISZERO ISZERO MUL OR SWAP1 SSTORE POP PUSH2 0x12DB PUSH2 0x124F JUMP JUMPDEST PUSH20 0xFFFFFFFFFFFFFFFFFFFFFFFFFFFFFFFFFFFFFFFF AND DUP3 PUSH20 0xFFFFFFFFFFFFFFFFFFFFFFFFFFFFFFFFFFFFFFFF AND DUP5 PUSH32 0xF6391F5C32D9C69D2A47EA670B442974B53935D1EDC7FD64EB21E047A839171B PUSH1 0x40 MLOAD PUSH1 0x40 MLOAD DUP1 SWAP2 SUB SWAP1 LOG4 PUSH1 0x1 SWAP1 POP PUSH2 0x1343 JUMP JUMPDEST PUSH1 0x0 SWAP1 POP JUMPDEST SWAP3 SWAP2 POP POP JUMP JUMPDEST PUSH2 0x1353 DUP3 DUP3 PUSH2 0xB5F JUMP JUMPDEST PUSH2 0x1396 JUMPI DUP1 DUP3 PUSH1 0x40 MLOAD PUSH32 0xE2517D3F00000000000000000000000000000000000000000000000000000000 DUP2 MSTORE PUSH1 0x4 ADD PUSH2 0x138D SWAP3 SWAP2 SWAP1 PUSH2 0x2077 JUMP JUMPDEST PUSH1 0x40 MLOAD DUP1 SWAP2 SUB SWAP1 REVERT JUMPDEST POP POP JUMP JUMPDEST PUSH1 0x0 PUSH1 0x40 MLOAD SWAP1 POP SWAP1 JUMP JUMPDEST PUSH1 0x0 DUP1 REVERT JUMPDEST PUSH1 0x0 DUP1 REVERT JUMPDEST PUSH1 0x0 PUSH32 0xFFFFFFFF00000000000000000000000000000000000000000000000000000000 DUP3 AND SWAP1 POP SWAP2 SWAP1 POP JUMP JUMPDEST PUSH2 0x13E3 DUP2 PUSH2 0x13AE JUMP JUMPDEST DUP2 EQ PUSH2 0x13EE JUMPI PUSH1 0x0 DUP1 REVERT JUMPDEST POP JUMP JUMPDEST PUSH1 0x0 DUP2 CALLDATALOAD SWAP1 POP PUSH2 0x1400 DUP2 PUSH2 0x13DA JUMP JUMPDEST SWAP3 SWAP2 POP POP JUMP JUMPDEST PUSH1 0x0 PUSH1 0x20 DUP3 DUP5 SUB SLT ISZERO PUSH2 0x141C JUMPI PUSH2 0x141B PUSH2 0x13A4 JUMP JUMPDEST JUMPDEST PUSH1 0x0 PUSH2 0x142A DUP5 DUP3 DUP6 ADD PUSH2 0x13F1 JUMP JUMPDEST SWAP2 POP POP SWAP3 SWAP2 POP POP JUMP JUMPDEST PUSH1 0x0 DUP2 ISZERO ISZERO SWAP1 POP SWAP2 SWAP1 POP JUMP JUMPDEST PUSH2 0x1448 DUP2 PUSH2 0x1433 JUMP JUMPDEST DUP3 MSTORE POP POP JUMP JUMPDEST PUSH1 0x0 PUSH1 0x20 DUP3 ADD SWAP1 POP PUSH2 0x1463 PUSH1 0x0 DUP4 ADD DUP5 PUSH2 0x143F JUMP JUMPDEST SWAP3 SWAP2 POP POP JUMP JUMPDEST PUSH1 0x0 DUP2 SWAP1 POP SWAP2 SWAP1 POP JUMP JUMPDEST PUSH2 0x147C DUP2 PUSH2 0x1469 JUMP JUMPDEST DUP2 EQ PUSH2 0x1487 JUMPI PUSH1 0x0 DUP1 REVERT JUMPDEST POP JUMP JUMPDEST PUSH1 0x0 DUP2 CALLDATALOAD SWAP1 POP PUSH2 0x1499 DUP2 PUSH2 0x1473 JUMP JUMPDEST SWAP3 SWAP2 POP POP JUMP JUMPDEST PUSH1 0x0 PUSH1 0x20 DUP3 DUP5 SUB SLT ISZERO PUSH2 0x14B5 JUMPI PUSH2 0x14B4 PUSH2 0x13A4 JUMP JUMPDEST JUMPDEST PUSH1 0x0 PUSH2 0x14C3 DUP5 DUP3 DUP6 ADD PUSH2 0x148A JUMP JUMPDEST SWAP2 POP POP SWAP3 SWAP2 POP POP JUMP JUMPDEST PUSH1 0x0 PUSH20 0xFFFFFFFFFFFFFFFFFFFFFFFFFFFFFFFFFFFFFFFF DUP3 AND SWAP1 POP SWAP2 SWAP1 POP JUMP JUMPDEST PUSH1 0x0 PUSH2 0x14F7 DUP3 PUSH2 0x14CC JUMP JUMPDEST SWAP1 POP SWAP2 SWAP1 POP JUMP JUMPDEST PUSH2 0x1507 DUP2 PUSH2 0x14EC JUMP JUMPDEST DUP3 MSTORE POP POP JUMP JUMPDEST PUSH1 0x0 PUSH1 0x40 DUP3 ADD SWAP1 POP PUSH2 0x1522 PUSH1 0x0 DUP4 ADD DUP6 PUSH2 0x14FE JUMP JUMPDEST PUSH2 0x152F PUSH1 0x20 DUP4 ADD DUP5 PUSH2 0x143F JUMP JUMPDEST SWAP4 SWAP3 POP POP POP JUMP JUMPDEST PUSH1 0x0 DUP2 SWAP1 POP SWAP2 SWAP1 POP JUMP JUMPDEST PUSH2 0x1549 DUP2 PUSH2 0x1536 JUMP JUMPDEST DUP2 EQ PUSH2 0x1554 JUMPI PUSH1 0x0 DUP1 REVERT JUMPDEST POP JUMP JUMPDEST PUSH1 0x0 DUP2 CALLDATALOAD SWAP1 POP PUSH2 0x1566 DUP2 PUSH2 0x1540 JUMP JUMPDEST SWAP3 SWAP2 POP POP JUMP JUMPDEST PUSH1 0x0 PUSH1 0x20 DUP3 DUP5 SUB SLT ISZERO PUSH2 0x1582 JUMPI PUSH2 0x1581 PUSH2 0x13A4 JUMP JUMPDEST JUMPDEST PUSH1 0x0 PUSH2 0x1590 DUP5 DUP3 DUP6 ADD PUSH2 0x1557 JUMP JUMPDEST SWAP2 POP POP SWAP3 SWAP2 POP POP JUMP JUMPDEST PUSH2 0x15A2 DUP2 PUSH2 0x1536 JUMP JUMPDEST DUP3 MSTORE POP POP JUMP JUMPDEST PUSH1 0x0 PUSH1 0x20 DUP3 ADD SWAP1 POP PUSH2 0x15BD PUSH1 0x0 DUP4 ADD DUP5 PUSH2 0x1599 JUMP JUMPDEST SWAP3 SWAP2 POP POP JUMP JUMPDEST PUSH2 0x15CC DUP2 PUSH2 0x14EC JUMP JUMPDEST DUP2 EQ PUSH2 0x15D7 JUMPI PUSH1 0x0 DUP1 REVERT JUMPDEST POP JUMP JUMPDEST PUSH1 0x0 DUP2 CALLDATALOAD SWAP1 POP PUSH2 0x15E9 DUP2 PUSH2 0x15C3 JUMP JUMPDEST SWAP3 SWAP2 POP POP JUMP JUMPDEST PUSH1 0x0 DUP1 PUSH1 0x40 DUP4 DUP6 SUB SLT ISZERO PUSH2 0x1606 JUMPI PUSH2 0x1605 PUSH2 0x13A4 JUMP JUMPDEST JUMPDEST PUSH1 0x0 PUSH2 0x1614 DUP6 DUP3 DUP7 ADD PUSH2 0x1557 JUMP JUMPDEST SWAP3 POP POP PUSH1 0x20 PUSH2 0x1625 DUP6 DUP3 DUP7 ADD PUSH2 0x15DA JUMP JUMPDEST SWAP2 POP POP SWAP3 POP SWAP3 SWAP1 POP JUMP JUMPDEST PUSH2 0x1638 DUP2 PUSH2 0x1469 JUMP JUMPDEST DUP3 MSTORE POP POP JUMP JUMPDEST PUSH1 0x0 PUSH1 0x20 DUP3 ADD SWAP1 POP PUSH2 0x1653 PUSH1 0x0 DUP4 ADD DUP5 PUSH2 0x162F JUMP JUMPDEST SWAP3 SWAP2 POP POP JUMP JUMPDEST PUSH1 0x0 DUP1 PUSH1 0x40 DUP4 DUP6 SUB SLT ISZERO PUSH2 0x1670 JUMPI PUSH2 0x166F PUSH2 0x13A4 JUMP JUMPDEST JUMPDEST PUSH1 0x0 PUSH2 0x167E DUP6 DUP3 DUP7 ADD PUSH2 0x148A JUMP JUMPDEST SWAP3 POP POP PUSH1 0x20 PUSH2 0x168F DUP6 DUP3 DUP7 ADD PUSH2 0x15DA JUMP JUMPDEST SWAP2 POP POP SWAP3 POP SWAP3 SWAP1 POP JUMP JUMPDEST PUSH1 0x0 DUP1 REVERT JUMPDEST PUSH1 0x0 DUP1 REVERT JUMPDEST PUSH1 0x0 PUSH1 0x1F NOT PUSH1 0x1F DUP4 ADD AND SWAP1 POP SWAP2 SWAP1 POP JUMP JUMPDEST PUSH32 0x4E487B7100000000000000000000000000000000000000000000000000000000 PUSH1 0x0 MSTORE PUSH1 0x41 PUSH1 0x4 MSTORE PUSH1 0x24 PUSH1 0x0 REVERT JUMPDEST PUSH2 0x16EC DUP3 PUSH2 0x16A3 JUMP JUMPDEST DUP2 ADD DUP2 DUP2 LT PUSH8 0xFFFFFFFFFFFFFFFF DUP3 GT OR ISZERO PUSH2 0x170B JUMPI PUSH2 0x170A PUSH2 0x16B4 JUMP JUMPDEST JUMPDEST DUP1 PUSH1 0x40 MSTORE POP POP POP JUMP JUMPDEST PUSH1 0x0 PUSH2 0x171E PUSH2 0x139A JUMP JUMPDEST SWAP1 POP PUSH2 0x172A DUP3 DUP3 PUSH2 0x16E3 JUMP JUMPDEST SWAP2 SWAP1 POP JUMP JUMPDEST PUSH1 0x0 PUSH8 0xFFFFFFFFFFFFFFFF DUP3 GT ISZERO PUSH2 0x174A JUMPI PUSH2 0x1749 PUSH2 0x16B4 JUMP JUMPDEST JUMPDEST PUSH2 0x1753 DUP3 PUSH2 0x16A3 JUMP JUMPDEST SWAP1 POP PUSH1 0x20 DUP2 ADD SWAP1 POP SWAP2 SWAP1 POP JUMP JUMPDEST DUP3 DUP2 DUP4 CALLDATACOPY PUSH1 0x0 DUP4 DUP4 ADD MSTORE POP POP POP JUMP JUMPDEST PUSH1 0x0 PUSH2 0x1782 PUSH2 0x177D DUP5 PUSH2 0x172F JUMP JUMPDEST PUSH2 0x1714 JUMP JUMPDEST SWAP1 POP DUP3 DUP2 MSTORE PUSH1 0x20 DUP2 ADD DUP5 DUP5 DUP5 ADD GT ISZERO PUSH2 0x179E JUMPI PUSH2 0x179D PUSH2 0x169E JUMP JUMPDEST JUMPDEST PUSH2 0x17A9 DUP5 DUP3 DUP6 PUSH2 0x1760 JUMP JUMPDEST POP SWAP4 SWAP3 POP POP POP JUMP JUMPDEST PUSH1 0x0 DUP3 PUSH1 0x1F DUP4 ADD SLT PUSH2 0x17C6 JUMPI PUSH2 0x17C5 PUSH2 0x1699 JUMP JUMPDEST JUMPDEST DUP2 CALLDATALOAD PUSH2 0x17D6 DUP5 DUP3 PUSH1 0x20 DUP7 ADD PUSH2 0x176F JUMP JUMPDEST SWAP2 POP POP SWAP3 SWAP2 POP POP JUMP JUMPDEST PUSH1 0x0 DUP1 PUSH1 0x0 DUP1 PUSH1 0x80 DUP6 DUP8 SUB SLT ISZERO PUSH2 0x17F9 JUMPI PUSH2 0x17F8 PUSH2 0x13A4 JUMP JUMPDEST JUMPDEST PUSH1 0x0 PUSH2 0x1807 DUP8 DUP3 DUP9 ADD PUSH2 0x15DA JUMP JUMPDEST SWAP5 POP POP PUSH1 0x20 DUP6 ADD CALLDATALOAD PUSH8 0xFFFFFFFFFFFFFFFF DUP2 GT ISZERO PUSH2 0x1828 JUMPI PUSH2 0x1827 PUSH2 0x13A9 JUMP JUMPDEST JUMPDEST PUSH2 0x1834 DUP8 DUP3 DUP9 ADD PUSH2 0x17B1 JUMP JUMPDEST SWAP4 POP POP PUSH1 0x40 DUP6 ADD CALLDATALOAD PUSH8 0xFFFFFFFFFFFFFFFF DUP2 GT ISZERO PUSH2 0x1855 JUMPI PUSH2 0x1854 PUSH2 0x13A9 JUMP JUMPDEST JUMPDEST PUSH2 0x1861 DUP8 DUP3 DUP9 ADD PUSH2 0x17B1 JUMP JUMPDEST SWAP3 POP POP PUSH1 0x60 DUP6 ADD CALLDATALOAD PUSH8 0xFFFFFFFFFFFFFFFF DUP2 GT ISZERO PUSH2 0x1882 JUMPI PUSH2 0x1881 PUSH2 0x13A9 JUMP JUMPDEST JUMPDEST PUSH2 0x188E DUP8 DUP3 DUP9 ADD PUSH2 0x17B1 JUMP JUMPDEST SWAP2 POP POP SWAP3 SWAP6 SWAP2 SWAP5 POP SWAP3 POP JUMP JUMPDEST PUSH1 0x0 PUSH1 0x20 DUP3 DUP5 SUB SLT ISZERO PUSH2 0x18B0 JUMPI PUSH2 0x18AF PUSH2 0x13A4 JUMP JUMPDEST JUMPDEST PUSH1 0x0 PUSH2 0x18BE DUP5 DUP3 DUP6 ADD PUSH2 0x15DA JUMP JUMPDEST SWAP2 POP POP SWAP3 SWAP2 POP POP JUMP JUMPDEST PUSH1 0x0 DUP2 MLOAD SWAP1 POP SWAP2 SWAP1 POP JUMP JUMPDEST PUSH1 0x0 DUP3 DUP3 MSTORE PUSH1 0x20 DUP3 ADD SWAP1 POP SWAP3 SWAP2 POP POP JUMP JUMPDEST PUSH1 0x0 JUMPDEST DUP4 DUP2 LT ISZERO PUSH2 0x1901 JUMPI DUP1 DUP3 ADD MLOAD DUP2 DUP5 ADD MSTORE PUSH1 0x20 DUP2 ADD SWAP1 POP PUSH2 0x18E6 JUMP JUMPDEST PUSH1 0x0 DUP5 DUP5 ADD MSTORE POP POP POP POP JUMP JUMPDEST PUSH1 0x0 PUSH2 0x1918 DUP3 PUSH2 0x18C7 JUMP JUMPDEST PUSH2 0x1922 DUP2 DUP6 PUSH2 0x18D2 JUMP JUMPDEST SWAP4 POP PUSH2 0x1932 DUP2 DUP6 PUSH1 0x20 DUP7 ADD PUSH2 0x18E3 JUMP JUMPDEST PUSH2 0x193B DUP2 PUSH2 0x16A3 JUMP JUMPDEST DUP5 ADD SWAP2 POP POP SWAP3 SWAP2 POP POP JUMP JUMPDEST PUSH1 0x0 PUSH1 0xC0 DUP3 ADD SWAP1 POP PUSH2 0x195B PUSH1 0x0 DUP4 ADD DUP10 PUSH2 0x162F JUMP JUMPDEST PUSH2 0x1968 PUSH1 0x20 DUP4 ADD DUP9 PUSH2 0x14FE JUMP JUMPDEST DUP2 DUP2 SUB PUSH1 0x40 DUP4 ADD MSTORE PUSH2 0x197A DUP2 DUP8 PUSH2 0x190D JUMP JUMPDEST SWAP1 POP DUP2 DUP2 SUB PUSH1 0x60 DUP4 ADD MSTORE PUSH2 0x198E DUP2 DUP7 PUSH2 0x190D JUMP JUMPDEST SWAP1 POP DUP2 DUP2 SUB PUSH1 0x80 DUP4 ADD MSTORE PUSH2 0x19A2 DUP2 DUP6 PUSH2 0x190D JUMP JUMPDEST SWAP1 POP PUSH2 0x19B1 PUSH1 0xA0 DUP4 ADD DUP5 PUSH2 0x143F JUMP JUMPDEST SWAP8 SWAP7 POP POP POP POP POP POP POP JUMP JUMPDEST PUSH32 0x50726F706572747920646F6573206E6F742065786973742E0000000000000000 PUSH1 0x0 DUP3 ADD MSTORE POP JUMP JUMPDEST PUSH1 0x0 PUSH2 0x19F2 PUSH1 0x18 DUP4 PUSH2 0x18D2 JUMP JUMPDEST SWAP2 POP PUSH2 0x19FD DUP3 PUSH2 0x19BC JUMP JUMPDEST PUSH1 0x20 DUP3 ADD SWAP1 POP SWAP2 SWAP1 POP JUMP JUMPDEST PUSH1 0x0 PUSH1 0x20 DUP3 ADD SWAP1 POP DUP2 DUP2 SUB PUSH1 0x0 DUP4 ADD MSTORE PUSH2 0x1A21 DUP2 PUSH2 0x19E5 JUMP JUMPDEST SWAP1 POP SWAP2 SWAP1 POP JUMP JUMPDEST PUSH32 0x596F7520617265206E6F7420746865206F776E6572206F662074686973207072 PUSH1 0x0 DUP3 ADD MSTORE PUSH32 0x6F70657274792E00000000000000000000000000000000000000000000000000 PUSH1 0x20 DUP3 ADD MSTORE POP JUMP JUMPDEST PUSH1 0x0 PUSH2 0x1A84 PUSH1 0x27 DUP4 PUSH2 0x18D2 JUMP JUMPDEST SWAP2 POP PUSH2 0x1A8F DUP3 PUSH2 0x1A28 JUMP JUMPDEST PUSH1 0x40 DUP3 ADD SWAP1 POP SWAP2 SWAP1 POP JUMP JUMPDEST PUSH1 0x0 PUSH1 0x20 DUP3 ADD SWAP1 POP DUP2 DUP2 SUB PUSH1 0x0 DUP4 ADD MSTORE PUSH2 0x1AB3 DUP2 PUSH2 0x1A77 JUMP JUMPDEST SWAP1 POP SWAP2 SWAP1 POP JUMP JUMPDEST PUSH32 0x496E76616C696420627579657220616464726573732E00000000000000000000 PUSH1 0x0 DUP3 ADD MSTORE POP JUMP JUMPDEST PUSH1 0x0 PUSH2 0x1AF0 PUSH1 0x16 DUP4 PUSH2 0x18D2 JUMP JUMPDEST SWAP2 POP PUSH2 0x1AFB DUP3 PUSH2 0x1ABA JUMP JUMPDEST PUSH1 0x20 DUP3 ADD SWAP1 POP SWAP2 SWAP1 POP JUMP JUMPDEST PUSH1 0x0 PUSH1 0x20 DUP3 ADD SWAP1 POP DUP2 DUP2 SUB PUSH1 0x0 DUP4 ADD MSTORE PUSH2 0x1B1F DUP2 PUSH2 0x1AE3 JUMP JUMPDEST SWAP1 POP SWAP2 SWAP1 POP JUMP JUMPDEST PUSH32 0x43616E6E6F74207472616E7366657220746F2073656C662E0000000000000000 PUSH1 0x0 DUP3 ADD MSTORE POP JUMP JUMPDEST PUSH1 0x0 PUSH2 0x1B5C PUSH1 0x18 DUP4 PUSH2 0x18D2 JUMP JUMPDEST SWAP2 POP PUSH2 0x1B67 DUP3 PUSH2 0x1B26 JUMP JUMPDEST PUSH1 0x20 DUP3 ADD SWAP1 POP SWAP2 SWAP1 POP JUMP JUMPDEST PUSH1 0x0 PUSH1 0x20 DUP3 ADD SWAP1 POP DUP2 DUP2 SUB PUSH1 0x0 DUP4 ADD MSTORE PUSH2 0x1B8B DUP2 PUSH2 0x1B4F JUMP JUMPDEST SWAP1 POP SWAP2 SWAP1 POP JUMP JUMPDEST PUSH32 0x4E6F74206F776E6572206F72207265676973747261722E000000000000000000 PUSH1 0x0 DUP3 ADD MSTORE POP JUMP JUMPDEST PUSH1 0x0 PUSH2 0x1BC8 PUSH1 0x17 DUP4 PUSH2 0x18D2 JUMP JUMPDEST SWAP2 POP PUSH2 0x1BD3 DUP3 PUSH2 0x1B92 JUMP JUMPDEST PUSH1 0x20 DUP3 ADD SWAP1 POP SWAP2 SWAP1 POP JUMP JUMPDEST PUSH1 0x0 PUSH1 0x20 DUP3 ADD SWAP1 POP DUP2 DUP2 SUB PUSH1 0x0 DUP4 ADD MSTORE PUSH2 0x1BF7 DUP2 PUSH2 0x1BBB JUMP JUMPDEST SWAP1 POP SWAP2 SWAP1 POP JUMP JUMPDEST PUSH32 0x4E6F2070656E64696E67207472616E736665722E000000000000000000000000 PUSH1 0x0 DUP3 ADD MSTORE POP JUMP JUMPDEST PUSH1 0x0 PUSH2 0x1C34 PUSH1 0x14 DUP4 PUSH2 0x18D2 JUMP JUMPDEST SWAP2 POP PUSH2 0x1C3F DUP3 PUSH2 0x1BFE JUMP JUMPDEST PUSH1 0x20 DUP3 ADD SWAP1 POP SWAP2 SWAP1 POP JUMP JUMPDEST PUSH1 0x0 PUSH1 0x20 DUP3 ADD SWAP1 POP DUP2 DUP2 SUB PUSH1 0x0 DUP4 ADD MSTORE PUSH2 0x1C63 DUP2 PUSH2 0x1C27 JUMP JUMPDEST SWAP1 POP SWAP2 SWAP1 POP JUMP JUMPDEST PUSH32 0x4E487B7100000000000000000000000000000000000000000000000000000000 PUSH1 0x0 MSTORE PUSH1 0x22 PUSH1 0x4 MSTORE PUSH1 0x24 PUSH1 0x0 REVERT JUMPDEST PUSH1 0x0 PUSH1 0x2 DUP3 DIV SWAP1 POP PUSH1 0x1 DUP3 AND DUP1 PUSH2 0x1CB1 JUMPI PUSH1 0x7F DUP3 AND SWAP2 POP JUMPDEST PUSH1 0x20 DUP3 LT DUP2 SUB PUSH2 0x1CC4 JUMPI PUSH2 0x1CC3 PUSH2 0x1C6A JUMP JUMPDEST JUMPDEST POP SWAP2 SWAP1 POP JUMP JUMPDEST PUSH1 0x0 DUP2 SWAP1 POP DUP2 PUSH1 0x0 MSTORE PUSH1 0x20 PUSH1 0x0 KECCAK256 SWAP1 POP SWAP2 SWAP1 POP JUMP JUMPDEST PUSH1 0x0 PUSH1 0x20 PUSH1 0x1F DUP4 ADD DIV SWAP1 POP SWAP2 SWAP1 POP JUMP JUMPDEST PUSH1 0x0 DUP3 DUP3 SHL SWAP1 POP SWAP3 SWAP2 POP POP JUMP JUMPDEST PUSH1 0x0 PUSH1 0x8 DUP4 MUL PUSH2 0x1D2C PUSH32 0xFFFFFFFFFFFFFFFFFFFFFFFFFFFFFFFFFFFFFFFFFFFFFFFFFFFFFFFFFFFFFFFF DUP3 PUSH2 0x1CEF JUMP JUMPDEST PUSH2 0x1D36 DUP7 DUP4 PUSH2 0x1CEF JUMP JUMPDEST SWAP6 POP DUP1 NOT DUP5 AND SWAP4 POP DUP1 DUP7 AND DUP5 OR SWAP3 POP POP POP SWAP4 SWAP3 POP POP POP JUMP JUMPDEST PUSH1 0x0 DUP2 SWAP1 POP SWAP2 SWAP1 POP JUMP JUMPDEST PUSH1 0x0 PUSH2 0x1D73 PUSH2 0x1D6E PUSH2 0x1D69 DUP5 PUSH2 0x1469 JUMP JUMPDEST PUSH2 0x1D4E JUMP JUMPDEST PUSH2 0x1469 JUMP JUMPDEST SWAP1 POP SWAP2 SWAP1 POP JUMP JUMPDEST PUSH1 0x0 DUP2 SWAP1 POP SWAP2 SWAP1 POP JUMP JUMPDEST PUSH2 0x1D8D DUP4 PUSH2 0x1D58 JUMP JUMPDEST PUSH2 0x1DA1 PUSH2 0x1D99 DUP3 PUSH2 0x1D7A JUMP JUMPDEST DUP5 DUP5 SLOAD PUSH2 0x1CFC JUMP JUMPDEST DUP3 SSTORE POP POP POP POP JUMP JUMPDEST PUSH1 0x0 SWAP1 JUMP JUMPDEST PUSH2 0x1DB6 PUSH2 0x1DA9 JUMP JUMPDEST PUSH2 0x1DC1 DUP2 DUP5 DUP5 PUSH2 0x1D84 JUMP JUMPDEST POP POP POP JUMP JUMPDEST JUMPDEST DUP2 DUP2 LT ISZERO PUSH2 0x1DE5 JUMPI PUSH2 0x1DDA PUSH1 0x0 DUP3 PUSH2 0x1DAE JUMP JUMPDEST PUSH1 0x1 DUP2 ADD SWAP1 POP PUSH2 0x1DC7 JUMP JUMPDEST POP POP JUMP JUMPDEST PUSH1 0x1F DUP3 GT ISZERO PUSH2 0x1E2A JUMPI PUSH2 0x1DFB DUP2 PUSH2 0x1CCA JUMP JUMPDEST PUSH2 0x1E04 DUP5 PUSH2 0x1CDF JUMP JUMPDEST DUP2 ADD PUSH1 0x20 DUP6 LT ISZERO PUSH2 0x1E13 JUMPI DUP2 SWAP1 POP JUMPDEST PUSH2 0x1E27 PUSH2 0x1E1F DUP6 PUSH2 0x1CDF JUMP JUMPDEST DUP4 ADD DUP3 PUSH2 0x1DC6 JUMP JUMPDEST POP POP JUMPDEST POP POP POP JUMP JUMPDEST PUSH1 0x0 DUP3 DUP3 SHR SWAP1 POP SWAP3 SWAP2 POP POP JUMP JUMPDEST PUSH1 0x0 PUSH2 0x1E4D PUSH1 0x0 NOT DUP5 PUSH1 0x8 MUL PUSH2 0x1E2F JUMP JUMPDEST NOT DUP1 DUP4 AND SWAP2 POP POP SWAP3 SWAP2 POP POP JUMP JUMPDEST PUSH1 0x0 PUSH2 0x1E66 DUP4 DUP4 PUSH2 0x1E3C JUMP JUMPDEST SWAP2 POP DUP3 PUSH1 0x2 MUL DUP3 OR SWAP1 POP SWAP3 SWAP2 POP POP JUMP JUMPDEST PUSH2 0x1E7F DUP3 PUSH2 0x18C7 JUMP JUMPDEST PUSH8 0xFFFFFFFFFFFFFFFF DUP2 GT ISZERO PUSH2 0x1E98 JUMPI PUSH2 0x1E97 PUSH2 0x16B4 JUMP JUMPDEST JUMPDEST PUSH2 0x1EA2 DUP3 SLOAD PUSH2 0x1C99 JUMP JUMPDEST PUSH2 0x1EAD DUP3 DUP3 DUP6 PUSH2 0x1DE9 JUMP JUMPDEST PUSH1 0x0 PUSH1 0x20 SWAP1 POP PUSH1 0x1F DUP4 GT PUSH1 0x1 DUP2 EQ PUSH2 0x1EE0 JUMPI PUSH1 0x0 DUP5 ISZERO PUSH2 0x1ECE JUMPI DUP3 DUP8 ADD MLOAD SWAP1 POP JUMPDEST PUSH2 0x1ED8 DUP6 DUP3 PUSH2 0x1E5A JUMP JUMPDEST DUP7 SSTORE POP PUSH2 0x1F40 JUMP JUMPDEST PUSH1 0x1F NOT DUP5 AND PUSH2 0x1EEE DUP7 PUSH2 0x1CCA JUMP JUMPDEST PUSH1 0x0 JUMPDEST DUP3 DUP2 LT ISZERO PUSH2 0x1F16 JUMPI DUP5 DUP10 ADD MLOAD DUP3 SSTORE PUSH1 0x1 DUP3 ADD SWAP2 POP PUSH1 0x20 DUP6 ADD SWAP5 POP PUSH1 0x20 DUP2 ADD SWAP1 POP PUSH2 0x1EF1 JUMP JUMPDEST DUP7 DUP4 LT ISZERO PUSH2 0x1F33 JUMPI DUP5 DUP10 ADD MLOAD PUSH2 0x1F2F PUSH1 0x1F DUP10 AND DUP3 PUSH2 0x1E3C JUMP JUMPDEST DUP4 SSTORE POP JUMPDEST PUSH1 0x1 PUSH1 0x2 DUP9 MUL ADD DUP9 SSTORE POP POP POP JUMPDEST POP POP POP POP POP POP JUMP JUMPDEST PUSH1 0x0 PUSH1 0x60 DUP3 ADD SWAP1 POP DUP2 DUP2 SUB PUSH1 0x0 DUP4 ADD MSTORE PUSH2 0x1F62 DUP2 DUP7 PUSH2 0x190D JUMP JUMPDEST SWAP1 POP DUP2 DUP2 SUB PUSH1 0x20 DUP4 ADD MSTORE PUSH2 0x1F76 DUP2 DUP6 PUSH2 0x190D JUMP JUMPDEST SWAP1 POP DUP2 DUP2 SUB PUSH1 0x40 DUP4 ADD MSTORE PUSH2 0x1F8A DUP2 DUP5 PUSH2 0x190D JUMP JUMPDEST SWAP1 POP SWAP5 SWAP4 POP POP POP POP JUMP JUMPDEST PUSH32 0x4E487B7100000000000000000000000000000000000000000000000000000000 PUSH1 0x0 MSTORE PUSH1 0x11 PUSH1 0x4 MSTORE PUSH1 0x24 PUSH1 0x0 REVERT JUMPDEST PUSH1 0x0 PUSH2 0x1FCE DUP3 PUSH2 0x1469 JUMP JUMPDEST SWAP2 POP PUSH32 0xFFFFFFFFFFFFFFFFFFFFFFFFFFFFFFFFFFFFFFFFFFFFFFFFFFFFFFFFFFFFFFFF DUP3 SUB PUSH2 0x2000 JUMPI PUSH2 0x1FFF PUSH2 0x1F94 JUMP JUMPDEST JUMPDEST PUSH1 0x1 DUP3 ADD SWAP1 POP SWAP2 SWAP1 POP JUMP JUMPDEST PUSH32 0x4E6F2070656E64696E67207472616E7366657220726571756573742E00000000 PUSH1 0x0 DUP3 ADD MSTORE POP JUMP JUMPDEST PUSH1 0x0 PUSH2 0x2041 PUSH1 0x1C DUP4 PUSH2 0x18D2 JUMP JUMPDEST SWAP2 POP PUSH2 0x204C DUP3 PUSH2 0x200B JUMP JUMPDEST PUSH1 0x20 DUP3 ADD SWAP1 POP SWAP2 SWAP1 POP JUMP JUMPDEST PUSH1 0x0 PUSH1 0x20 DUP3 ADD SWAP1 POP DUP2 DUP2 SUB PUSH1 0x0 DUP4 ADD MSTORE PUSH2 0x2070 DUP2 PUSH2 0x2034 JUMP JUMPDEST SWAP1 POP SWAP2 SWAP1 POP JUMP JUMPDEST PUSH1 0x0 PUSH1 0x40 DUP3 ADD SWAP1 POP PUSH2 0x208C PUSH1 0x0 DUP4 ADD DUP6 PUSH2 0x14FE JUMP JUMPDEST PUSH2 0x2099 PUSH1 0x20 DUP4 ADD DUP5 PUSH2 0x1599 JUMP JUMPDEST SWAP4 SWAP3 POP POP POP JUMP INVALID LOG2 PUSH5 0x6970667358 0x22 SLT KECCAK256 COINBASE JUMPI LOG1 ISZERO PUSH18 0x3A928B607F3363D297FD1A42927BB88EAC65 CALL 0xF6 SWAP6 PUSH22 0xC433D2065F64736F6C63430008140033000000000000 "
        },
        "methodIdentifiers": {
          "AUTHORITY_ROLE()": "4a3fba0e",
          "DEFAULT_ADMIN_ROLE()": "a217fddf",
          "REGISTRAR_ROLE()": "f68e9553",
          "addRegistrar(address)": "af92a693",
          "approveTransfer(uint256)": "cacca4a0",
          "cancelTransfer(uint256)": "59caecb5",
          "getRoleAdmin(bytes32)": "248a9ca3",
          "grantRole(bytes32,address)": "2f2ff15d",
          "hasRole(bytes32,address)": "91d14854",
          "nextPropertyId()": "39500f34",
          "properties(uint256)": "f7b10808",
          "registerProperty(address,string,string,string)": "8ae7a72e",
          "removeRegistrar(address)": "ba904eed",
          "renounceRole(bytes32,address)": "36568abe",
          "requestTransfer(uint256,address)": "40344232",
          "revokeRole(bytes32,address)": "d547741f",
          "supportsInterface(bytes4)": "01ffc9a7",
          "transferRequests(uint256)": "03486c40"
        }
      }
    }
  }
}