{
  "contracts/TerraLedger.sol": {
    "TerraLedger": {
      "abi": [
        {
          "inputs": [],
          "stateMutability": "nonpayable",
          "type": "constructor"
        },
        {
          "inputs": [],
          "name": "AccessControlBadConfirmation",
          "type": "error"
        },
        {
          "inputs": [
            {
              "internalType": "address",
              "name": "account",
              "type": "address"
            },
            {
              "internalType": "bytes32",
              "name": "neededRole",
              "type": "bytes32"
            }
          ],
          "name": "AccessControlUnauthorizedAccount",
          "type": "error"
        },
        {
          "anonymous": false,
          "inputs": [
            {
              "indexed": true,
              "internalType": "uint256",
              "name": "propertyId",
              "type": "uint256"
            },
            {
              "indexed": true,
              "internalType": "address",
              "name": "oldOwner",
              "type": "address"
            },
            {
              "indexed": true,
              "internalType": "address",
              "name": "newOwner",
              "type": "address"
            }
          ],
          "name": "OwnershipTransferred",
          "type": "event"
        },
        {
          "anonymous": false,
          "inputs": [
            {
              "indexed": true,
              "internalType": "uint256",
              "name": "propertyId",
              "type": "uint256"
            },
            {
              "indexed": true,
              "internalType": "address",
              "name": "owner",
              "type": "address"
            },
            {
              "indexed": false,
              "internalType": "string",
              "name": "location",
              "type": "string"
            },
            {
              "indexed": false,
              "internalType": "string",
              "name": "area",
              "type": "string"
            },
            {
              "indexed": false,
              "internalType": "string",
              "name": "propertyType",
              "type": "string"
            }
          ],
          "name": "PropertyRegistered",
          "type": "event"
        },
        {
          "anonymous": false,
          "inputs": [
            {
              "indexed": true,
              "internalType": "bytes32",
              "name": "role",
              "type": "bytes32"
            },
            {
              "indexed": true,
              "internalType": "bytes32",
              "name": "previousAdminRole",
              "type": "bytes32"
            },
            {
              "indexed": true,
              "internalType": "bytes32",
              "name": "newAdminRole",
              "type": "bytes32"
            }
          ],
          "name": "RoleAdminChanged",
          "type": "event"
        },
        {
          "anonymous": false,
          "inputs": [
            {
              "indexed": true,
              "internalType": "bytes32",
              "name": "role",
              "type": "bytes32"
            },
            {
              "indexed": true,
              "internalType": "address",
              "name": "account",
              "type": "address"
            },
            {
              "indexed": true,
              "internalType": "address",
              "name": "sender",
              "type": "address"
            }
          ],
          "name": "RoleGranted",
          "type": "event"
        },
        {
          "anonymous": false,
          "inputs": [
            {
              "indexed": true,
              "internalType": "bytes32",
              "name": "role",
              "type": "bytes32"
            },
            {
              "indexed": true,
              "internalType": "address",
              "name": "account",
              "type": "address"
            },
            {
              "indexed": true,
              "internalType": "address",
              "name": "sender",
              "type": "address"
            }
          ],
          "name": "RoleRevoked",
          "type": "event"
        },
        {
          "inputs": [],
          "name": "AUTHORITY_ROLE",
          "outputs": [
            {
              "internalType": "bytes32",
              "name": "",
              "type": "bytes32"
            }
          ],
          "stateMutability": "view",
          "type": "function"
        },
        {
          "inputs": [],
          "name": "DEFAULT_ADMIN_ROLE",
          "outputs": [
            {
              "internalType": "bytes32",
              "name": "",
              "type": "bytes32"
            }
          ],
          "stateMutability": "view",
          "type": "function"
        },
        {
          "inputs": [],
          "name": "REGISTRAR_ROLE",
          "outputs": [
            {
              "internalType": "bytes32",
              "name": "",
              "type": "bytes32"
            }
          ],
          "stateMutability": "view",
          "type": "function"
        },
        {
          "inputs": [
            {
              "internalType": "address",
              "name": "account",
              "type": "address"
            }
          ],
          "name": "addRegistrar",
          "outputs": [],
          "stateMutability": "nonpayable",
          "type": "function"
        },
        {
          "inputs": [
            {
              "internalType": "bytes32",
              "name": "role",
              "type": "bytes32"
            }
          ],
          "name": "getRoleAdmin",
          "outputs": [
            {
              "internalType": "bytes32",
              "name": "",
              "type": "bytes32"
            }
          ],
          "stateMutability": "view",
          "type": "function"
        },
        {
          "inputs": [
            {
              "internalType": "bytes32",
              "name": "role",
              "type": "bytes32"
            },
            {
              "internalType": "address",
              "name": "account",
              "type": "address"
            }
          ],
          "name": "grantRole",
          "outputs": [],
          "stateMutability": "nonpayable",
          "type": "function"
        },
        {
          "inputs": [
            {
              "internalType": "bytes32",
              "name": "role",
              "type": "bytes32"
            },
            {
              "internalType": "address",
              "name": "account",
              "type": "address"
            }
          ],
          "name": "hasRole",
          "outputs": [
            {
              "internalType": "bool",
              "name": "",
              "type": "bool"
            }
          ],
          "stateMutability": "view",
          "type": "function"
        },
        {
          "inputs": [],
          "name": "nextPropertyId",
          "outputs": [
            {
              "internalType": "uint256",
              "name": "",
              "type": "uint256"
            }
          ],
          "stateMutability": "view",
          "type": "function"
        },
        {
          "inputs": [
            {
              "internalType": "uint256",
              "name": "",
              "type": "uint256"
            }
          ],
          "name": "properties",
          "outputs": [
            {
              "internalType": "uint256",
              "name": "propertyId",
              "type": "uint256"
            },
            {
              "internalType": "address",
              "name": "owner",
              "type": "address"
            },
            {
              "internalType": "string",
              "name": "location",
              "type": "string"
            },
            {
              "internalType": "string",
              "name": "area",
              "type": "string"
            },
            {
              "internalType": "string",
              "name": "propertyType",
              "type": "string"
            },
            {
              "internalType": "bool",
              "name": "isRegistered",
              "type": "bool"
            }
          ],
          "stateMutability": "view",
          "type": "function"
        },
        {
          "inputs": [
            {
              "internalType": "address",
              "name": "_propertyOwner",
              "type": "address"
            },
            {
              "internalType": "string",
              "name": "_location",
              "type": "string"
            },
            {
              "internalType": "string",
              "name": "_area",
              "type": "string"
            },
            {
              "internalType": "string",
              "name": "_propertyType",
              "type": "string"
            }
          ],
          "name": "registerProperty",
          "outputs": [],
          "stateMutability": "nonpayable",
          "type": "function"
        },
        {
          "inputs": [
            {
              "internalType": "address",
              "name": "account",
              "type": "address"
            }
          ],
          "name": "removeRegistrar",
          "outputs": [],
          "stateMutability": "nonpayable",
          "type": "function"
        },
        {
          "inputs": [
            {
              "internalType": "bytes32",
              "name": "role",
              "type": "bytes32"
            },
            {
              "internalType": "address",
              "name": "callerConfirmation",
              "type": "address"
            }
          ],
          "name": "renounceRole",
          "outputs": [],
          "stateMutability": "nonpayable",
          "type": "function"
        },
        {
          "inputs": [
            {
              "internalType": "bytes32",
              "name": "role",
              "type": "bytes32"
            },
            {
              "internalType": "address",
              "name": "account",
              "type": "address"
            }
          ],
          "name": "revokeRole",
          "outputs": [],
          "stateMutability": "nonpayable",
          "type": "function"
        },
        {
          "inputs": [
            {
              "internalType": "bytes4",
              "name": "interfaceId",
              "type": "bytes4"
            }
          ],
          "name": "supportsInterface",
          "outputs": [
            {
              "internalType": "bool",
              "name": "",
              "type": "bool"
            }
          ],
          "stateMutability": "view",
          "type": "function"
        },
        {
          "inputs": [
            {
              "internalType": "uint256",
              "name": "_propertyId",
              "type": "uint256"
            },
            {
              "internalType": "address",
              "name": "_newOwner",
              "type": "address"
            }
          ],
          "name": "transferOwnership",
          "outputs": [],
          "stateMutability": "nonpayable",
          "type": "function"
        }
      ],
      "evm": {
        "bytecode": {
          "linkReferences": {},
          "object": "608060405260016002553480156200001657600080fd5b506200002c6000801b336200009960201b60201c565b506200005f7fd565e3fc066df348a5cbc05a8d6323e00552838041cea2d84cc59876ba37735d336200009960201b60201c565b50620000927fedcc084d3dcd65a1f7f23c65c46722faca6953d28e43150a467cf43e5c309238336200009960201b60201c565b506200020e565b6000620000ad83836200019c60201b60201c565b6200019157600160008085815260200190815260200160002060000160008473ffffffffffffffffffffffffffffffffffffffff1673ffffffffffffffffffffffffffffffffffffffff16815260200190815260200160002060006101000a81548160ff0219169083151502179055506200012d6200020660201b60201c565b73ffffffffffffffffffffffffffffffffffffffff168273ffffffffffffffffffffffffffffffffffffffff16847f2f8788117e7eff1d82e926ec794901d17c78024a50270940304540a733656f0d60405160405180910390a46001905062000196565b600090505b92915050565b600080600084815260200190815260200160002060000160008373ffffffffffffffffffffffffffffffffffffffff1673ffffffffffffffffffffffffffffffffffffffff16815260200190815260200160002060009054906101000a900460ff16905092915050565b600033905090565b6118ee806200021e6000396000f3fe608060405234801561001057600080fd5b50600436106100f55760003560e01c80638ae7a72e11610097578063ba904eed11610066578063ba904eed14610270578063d547741f1461028c578063f68e9553146102a8578063f7b10808146102c6576100f5565b80638ae7a72e146101ea57806391d1485414610206578063a217fddf14610236578063af92a69314610254576100f5565b80632f2ff15d116100d35780632f2ff15d1461017657806336568abe1461019257806339500f34146101ae5780634a3fba0e146101cc576100f5565b806301ffc9a7146100fa578063248a9ca31461012a57806329507f731461015a575b600080fd5b610114600480360381019061010f9190610e63565b6102fb565b6040516101219190610eab565b60405180910390f35b610144600480360381019061013f9190610efc565b610375565b6040516101519190610f38565b60405180910390f35b610174600480360381019061016f9190610fe7565b610394565b005b610190600480360381019061018b9190611027565b61055b565b005b6101ac60048036038101906101a79190611027565b61057d565b005b6101b66105f8565b6040516101c39190611076565b60405180910390f35b6101d46105fe565b6040516101e19190610f38565b60405180910390f35b61020460048036038101906101ff91906111d7565b610622565b005b610220600480360381019061021b9190611027565b6107d5565b60405161022d9190610eab565b60405180910390f35b61023e61083f565b60405161024b9190610f38565b60405180910390f35b61026e60048036038101906102699190611292565b610846565b005b61028a60048036038101906102859190611292565b61089e565b005b6102a660048036038101906102a19190611027565b6108f6565b005b6102b0610918565b6040516102bd9190610f38565b60405180910390f35b6102e060048036038101906102db91906112bf565b61093c565b6040516102f29695949392919061137a565b60405180910390f35b60007f7965db0b000000000000000000000000000000000000000000000000000000007bffffffffffffffffffffffffffffffffffffffffffffffffffffffff1916827bffffffffffffffffffffffffffffffffffffffffffffffffffffffff1916148061036e575061036d82610b3d565b5b9050919050565b6000806000838152602001908152602001600020600101549050919050565b60006001600084815260200190815260200160002090508060050160009054906101000a900460ff166103fc576040517f08c379a00000000000000000000000000000000000000000000000000000000081526004016103f39061143c565b60405180910390fd5b8060010160009054906101000a900473ffffffffffffffffffffffffffffffffffffffff1673ffffffffffffffffffffffffffffffffffffffff163373ffffffffffffffffffffffffffffffffffffffff161461048e576040517f08c379a0000000000000000000000000000000000000000000000000000000008152600401610485906114ce565b60405180910390fd5b60008160010160009054906101000a900473ffffffffffffffffffffffffffffffffffffffff169050828260010160006101000a81548173ffffffffffffffffffffffffffffffffffffffff021916908373ffffffffffffffffffffffffffffffffffffffff1602179055508273ffffffffffffffffffffffffffffffffffffffff168173ffffffffffffffffffffffffffffffffffffffff16857f16b85f49bf01212961345d3016c9a531894accf62eb7680f2045d79185cc0ec060405160405180910390a450505050565b61056482610375565b61056d81610ba7565b6105778383610bbb565b50505050565b610585610cac565b73ffffffffffffffffffffffffffffffffffffffff168173ffffffffffffffffffffffffffffffffffffffff16146105e9576040517f6697b23200000000000000000000000000000000000000000000000000000000815260040160405180910390fd5b6105f38282610cb4565b505050565b60025481565b7fd565e3fc066df348a5cbc05a8d6323e00552838041cea2d84cc59876ba37735d81565b7fedcc084d3dcd65a1f7f23c65c46722faca6953d28e43150a467cf43e5c30923861064c81610ba7565b600060025490506040518060c001604052808281526020018773ffffffffffffffffffffffffffffffffffffffff16815260200186815260200185815260200184815260200160011515815250600160008381526020019081526020016000206000820151816000015560208201518160010160006101000a81548173ffffffffffffffffffffffffffffffffffffffff021916908373ffffffffffffffffffffffffffffffffffffffff160217905550604082015181600201908161071291906116fa565b50606082015181600301908161072891906116fa565b50608082015181600401908161073e91906116fa565b5060a08201518160050160006101000a81548160ff0219169083151502179055509050508573ffffffffffffffffffffffffffffffffffffffff16817fccd9eacc2951faf606f4990aac2ca22a8dc259bdf2883713b2b85a46e8430a1e8787876040516107ad939291906117cc565b60405180910390a3600260008154809291906107c890611847565b9190505550505050505050565b600080600084815260200190815260200160002060000160008373ffffffffffffffffffffffffffffffffffffffff1673ffffffffffffffffffffffffffffffffffffffff16815260200190815260200160002060009054906101000a900460ff16905092915050565b6000801b81565b7fd565e3fc066df348a5cbc05a8d6323e00552838041cea2d84cc59876ba37735d61087081610ba7565b61089a7fedcc084d3dcd65a1f7f23c65c46722faca6953d28e43150a467cf43e5c3092388361055b565b5050565b7fd565e3fc066df348a5cbc05a8d6323e00552838041cea2d84cc59876ba37735d6108c881610ba7565b6108f27fedcc084d3dcd65a1f7f23c65c46722faca6953d28e43150a467cf43e5c309238836108f6565b5050565b6108ff82610375565b61090881610ba7565b6109128383610cb4565b50505050565b7fedcc084d3dcd65a1f7f23c65c46722faca6953d28e43150a467cf43e5c30923881565b60016020528060005260406000206000915090508060000154908060010160009054906101000a900473ffffffffffffffffffffffffffffffffffffffff169080600201805461098b9061151d565b80601f01602080910402602001604051908101604052809291908181526020018280546109b79061151d565b8015610a045780601f106109d957610100808354040283529160200191610a04565b820191906000526020600020905b8154815290600101906020018083116109e757829003601f168201915b505050505090806003018054610a199061151d565b80601f0160208091040260200160405190810160405280929190818152602001828054610a459061151d565b8015610a925780601f10610a6757610100808354040283529160200191610a92565b820191906000526020600020905b815481529060010190602001808311610a7557829003601f168201915b505050505090806004018054610aa79061151d565b80601f0160208091040260200160405190810160405280929190818152602001828054610ad39061151d565b8015610b205780601f10610af557610100808354040283529160200191610b20565b820191906000526020600020905b815481529060010190602001808311610b0357829003601f168201915b5050505050908060050160009054906101000a900460ff16905086565b60007f01ffc9a7000000000000000000000000000000000000000000000000000000007bffffffffffffffffffffffffffffffffffffffffffffffffffffffff1916827bffffffffffffffffffffffffffffffffffffffffffffffffffffffff1916149050919050565b610bb881610bb3610cac565b610da6565b50565b6000610bc783836107d5565b610ca157600160008085815260200190815260200160002060000160008473ffffffffffffffffffffffffffffffffffffffff1673ffffffffffffffffffffffffffffffffffffffff16815260200190815260200160002060006101000a81548160ff021916908315150217905550610c3e610cac565b73ffffffffffffffffffffffffffffffffffffffff168273ffffffffffffffffffffffffffffffffffffffff16847f2f8788117e7eff1d82e926ec794901d17c78024a50270940304540a733656f0d60405160405180910390a460019050610ca6565b600090505b92915050565b600033905090565b6000610cc083836107d5565b15610d9b57600080600085815260200190815260200160002060000160008473ffffffffffffffffffffffffffffffffffffffff1673ffffffffffffffffffffffffffffffffffffffff16815260200190815260200160002060006101000a81548160ff021916908315150217905550610d38610cac565b73ffffffffffffffffffffffffffffffffffffffff168273ffffffffffffffffffffffffffffffffffffffff16847ff6391f5c32d9c69d2a47ea670b442974b53935d1edc7fd64eb21e047a839171b60405160405180910390a460019050610da0565b600090505b92915050565b610db082826107d5565b610df35780826040517fe2517d3f000000000000000000000000000000000000000000000000000000008152600401610dea92919061188f565b60405180910390fd5b5050565b6000604051905090565b600080fd5b600080fd5b60007fffffffff0000000000000000000000000000000000000000000000000000000082169050919050565b610e4081610e0b565b8114610e4b57600080fd5b50565b600081359050610e5d81610e37565b92915050565b600060208284031215610e7957610e78610e01565b5b6000610e8784828501610e4e565b91505092915050565b60008115159050919050565b610ea581610e90565b82525050565b6000602082019050610ec06000830184610e9c565b92915050565b6000819050919050565b610ed981610ec6565b8114610ee457600080fd5b50565b600081359050610ef681610ed0565b92915050565b600060208284031215610f1257610f11610e01565b5b6000610f2084828501610ee7565b91505092915050565b610f3281610ec6565b82525050565b6000602082019050610f4d6000830184610f29565b92915050565b6000819050919050565b610f6681610f53565b8114610f7157600080fd5b50565b600081359050610f8381610f5d565b92915050565b600073ffffffffffffffffffffffffffffffffffffffff82169050919050565b6000610fb482610f89565b9050919050565b610fc481610fa9565b8114610fcf57600080fd5b50565b600081359050610fe181610fbb565b92915050565b60008060408385031215610ffe57610ffd610e01565b5b600061100c85828601610f74565b925050602061101d85828601610fd2565b9150509250929050565b6000806040838503121561103e5761103d610e01565b5b600061104c85828601610ee7565b925050602061105d85828601610fd2565b9150509250929050565b61107081610f53565b82525050565b600060208201905061108b6000830184611067565b92915050565b600080fd5b600080fd5b6000601f19601f8301169050919050565b7f4e487b7100000000000000000000000000000000000000000000000000000000600052604160045260246000fd5b6110e48261109b565b810181811067ffffffffffffffff82111715611103576111026110ac565b5b80604052505050565b6000611116610df7565b905061112282826110db565b919050565b600067ffffffffffffffff821115611142576111416110ac565b5b61114b8261109b565b9050602081019050919050565b82818337600083830152505050565b600061117a61117584611127565b61110c565b90508281526020810184848401111561119657611195611096565b5b6111a1848285611158565b509392505050565b600082601f8301126111be576111bd611091565b5b81356111ce848260208601611167565b91505092915050565b600080600080608085870312156111f1576111f0610e01565b5b60006111ff87828801610fd2565b945050602085013567ffffffffffffffff8111156112205761121f610e06565b5b61122c878288016111a9565b935050604085013567ffffffffffffffff81111561124d5761124c610e06565b5b611259878288016111a9565b925050606085013567ffffffffffffffff81111561127a57611279610e06565b5b611286878288016111a9565b91505092959194509250565b6000602082840312156112a8576112a7610e01565b5b60006112b684828501610fd2565b91505092915050565b6000602082840312156112d5576112d4610e01565b5b60006112e384828501610f74565b91505092915050565b6112f581610fa9565b82525050565b600081519050919050565b600082825260208201905092915050565b60005b8381101561133557808201518184015260208101905061131a565b60008484015250505050565b600061134c826112fb565b6113568185611306565b9350611366818560208601611317565b61136f8161109b565b840191505092915050565b600060c08201905061138f6000830189611067565b61139c60208301886112ec565b81810360408301526113ae8187611341565b905081810360608301526113c28186611341565b905081810360808301526113d68185611341565b90506113e560a0830184610e9c565b979650505050505050565b7f50726f706572747920646f6573206e6f742065786973742e0000000000000000600082015250565b6000611426601883611306565b9150611431826113f0565b602082019050919050565b6000602082019050818103600083015261145581611419565b9050919050565b7f596f7520617265206e6f7420746865206f776e6572206f66207468697320707260008201527f6f70657274792e00000000000000000000000000000000000000000000000000602082015250565b60006114b8602783611306565b91506114c38261145c565b604082019050919050565b600060208201905081810360008301526114e7816114ab565b9050919050565b7f4e487b7100000000000000000000000000000000000000000000000000000000600052602260045260246000fd5b6000600282049050600182168061153557607f821691505b602082108103611548576115476114ee565b5b50919050565b60008190508160005260206000209050919050565b60006020601f8301049050919050565b600082821b905092915050565b6000600883026115b07fffffffffffffffffffffffffffffffffffffffffffffffffffffffffffffffff82611573565b6115ba8683611573565b95508019841693508086168417925050509392505050565b6000819050919050565b60006115f76115f26115ed84610f53565b6115d2565b610f53565b9050919050565b6000819050919050565b611611836115dc565b61162561161d826115fe565b848454611580565b825550505050565b600090565b61163a61162d565b611645818484611608565b505050565b5b818110156116695761165e600082611632565b60018101905061164b565b5050565b601f8211156116ae5761167f8161154e565b61168884611563565b81016020851015611697578190505b6116ab6116a385611563565b83018261164a565b50505b505050565b600082821c905092915050565b60006116d1600019846008026116b3565b1980831691505092915050565b60006116ea83836116c0565b9150826002028217905092915050565b611703826112fb565b67ffffffffffffffff81111561171c5761171b6110ac565b5b611726825461151d565b61173182828561166d565b600060209050601f8311600181146117645760008415611752578287015190505b61175c85826116de565b8655506117c4565b601f1984166117728661154e565b60005b8281101561179a57848901518255600182019150602085019450602081019050611775565b868310156117b757848901516117b3601f8916826116c0565b8355505b6001600288020188555050505b505050505050565b600060608201905081810360008301526117e68186611341565b905081810360208301526117fa8185611341565b9050818103604083015261180e8184611341565b9050949350505050565b7f4e487b7100000000000000000000000000000000000000000000000000000000600052601160045260246000fd5b600061185282610f53565b91507fffffffffffffffffffffffffffffffffffffffffffffffffffffffffffffffff820361188457611883611818565b5b600182019050919050565b60006040820190506118a460008301856112ec565b6118b16020830184610f29565b939250505056fea26469706673582212206648f2bbf46fac786ff64e4004b8943da9d98cef9a451071f16256838b44895a64736f6c63430008140033",
          "opcodes": "PUSH1 0x80 PUSH1 0x40 MSTORE PUSH1 0x1 PUSH1 0x2 SSTORE CALLVALUE DUP1 ISZERO PUSH3 0x16 JUMPI PUSH1 0x0 DUP1 REVERT JUMPDEST POP PUSH3 0x2C PUSH1 0x0 DUP1 SHL CALLER PUSH3 0x99 PUSH1 0x20 SHL PUSH1 0x20 SHR JUMP JUMPDEST POP PUSH3 0x5F PUSH32 0xD565E3FC066DF348A5CBC05A8D6323E00552838041CEA2D84CC59876BA37735D CALLER PUSH3 0x99 PUSH1 0x20 SHL PUSH1 0x20 SHR JUMP JUMPDEST POP PUSH3 0x92 PUSH32 0xEDCC084D3DCD65A1F7F23C65C46722FACA6953D28E43150A467CF43E5C309238 CALLER PUSH3 0x99 PUSH1 0x20 SHL PUSH1 0x20 SHR JUMP JUMPDEST POP PUSH3 0x20E JUMP JUMPDEST PUSH1 0x0 PUSH3 0xAD DUP4 DUP4 PUSH3 0x19C PUSH1 0x20 SHL PUSH1 0x20 SHR JUMP JUMPDEST PUSH3 0x191 JUMPI PUSH1 0x1 PUSH1 0x0 DUP1 DUP6 DUP2 MSTORE PUSH1 0x20 ADD SWAP1 DUP2 MSTORE PUSH1 0x20 ADD PUSH1 0x0 KECCAK256 PUSH1 0x0 ADD PUSH1 0x0 DUP5 PUSH20 0xFFFFFFFFFFFFFFFFFFFFFFFFFFFFFFFFFFFFFFFF AND PUSH20 0xFFFFFFFFFFFFFFFFFFFFFFFFFFFFFFFFFFFFFFFF AND DUP2 MSTORE PUSH1 0x20 ADD SWAP1 DUP2 MSTORE PUSH1 0x20 ADD PUSH1 0x0 KECCAK256 PUSH1 0x0 PUSH2 0x100 EXP DUP2 SLOAD DUP2 PUSH1 0xFF MUL NOT AND SWAP1 DUP4 ISZERO ISZERO MUL OR SWAP1 SSTORE POP PUSH3 0x12D PUSH3 0x206 PUSH1 0x20 SHL PUSH1 0x20 SHR JUMP JUMPDEST PUSH20 0xFFFFFFFFFFFFFFFFFFFFFFFFFFFFFFFFFFFFFFFF AND DUP3 PUSH20 0xFFFFFFFFFFFFFFFFFFFFFFFFFFFFFFFFFFFFFFFF AND DUP5 PUSH32 0x2F8788117E7EFF1D82E926EC794901D17C78024A50270940304540A733656F0D PUSH1 0x40 MLOAD PUSH1 0x40 MLOAD DUP1 SWAP2 SUB SWAP1 LOG4 PUSH1 0x1 SWAP1 POP PUSH3 0x196 JUMP JUMPDEST PUSH1 0x0 SWAP1 POP JUMPDEST SWAP3 SWAP2 POP POP JUMP JUMPDEST PUSH1 0x0 DUP1 PUSH1 0x0 DUP5 DUP2 MSTORE PUSH1 0x20 ADD SWAP1 DUP2 MSTORE PUSH1 0x20 ADD PUSH1 0x0 KECCAK256 PUSH1 0x0 ADD PUSH1 0x0 DUP4 PUSH20 0xFFFFFFFFFFFFFFFFFFFFFFFFFFFFFFFFFFFFFFFF AND PUSH20 0xFFFFFFFFFFFFFFFFFFFFFFFFFFFFFFFFFFFFFFFF AND DUP2 MSTORE PUSH1 0x20 ADD SWAP1 DUP2 MSTORE PUSH1 0x20 ADD PUSH1 0x0 KECCAK256 PUSH1 0x0 SWAP1 SLOAD SWAP1 PUSH2 0x100 EXP SWAP1 DIV PUSH1 0xFF AND SWAP1 POP SWAP3 SWAP2 POP POP JUMP JUMPDEST PUSH1 0x0 CALLER SWAP1 POP SWAP1 JUMP JUMPDEST PUSH2 0x18EE DUP1 PUSH3 0x21E PUSH1 0x0 CODECOPY PUSH1 0x0 RETURN INVALID PUSH1 0x80 PUSH1 0x40 MSTORE CALLVALUE DUP1 ISZERO PUSH2 0x10 JUMPI PUSH1 0x0 DUP1 REVERT JUMPDEST POP PUSH1 0x4 CALLDATASIZE LT PUSH2 0xF5 JUMPI PUSH1 0x0 CALLDATALOAD PUSH1 0xE0 SHR DUP1 PUSH4 0x8AE7A72E GT PUSH2 0x97 JUMPI DUP1 PUSH4 0xBA904EED GT PUSH2 0x66 JUMPI DUP1 PUSH4 0xBA904EED EQ PUSH2 0x270 JUMPI DUP1 PUSH4 0xD547741F EQ PUSH2 0x28C JUMPI DUP1 PUSH4 0xF68E9553 EQ PUSH2 0x2A8 JUMPI DUP1 PUSH4 0xF7B10808 EQ PUSH2 0x2C6 JUMPI PUSH2 0xF5 JUMP JUMPDEST DUP1 PUSH4 0x8AE7A72E EQ PUSH2 0x1EA JUMPI DUP1 PUSH4 0x91D14854 EQ PUSH2 0x206 JUMPI DUP1 PUSH4 0xA217FDDF EQ PUSH2 0x236 JUMPI DUP1 PUSH4 0xAF92A693 EQ PUSH2 0x254 JUMPI PUSH2 0xF5 JUMP JUMPDEST DUP1 PUSH4 0x2F2FF15D GT PUSH2 0xD3 JUMPI DUP1 PUSH4 0x2F2FF15D EQ PUSH2 0x176 JUMPI DUP1 PUSH4 0x36568ABE EQ PUSH2 0x192 JUMPI DUP1 PUSH4 0x39500F34 EQ PUSH2 0x1AE JUMPI DUP1 PUSH4 0x4A3FBA0E EQ PUSH2 0x1CC JUMPI PUSH2 0xF5 JUMP JUMPDEST DUP1 PUSH4 0x1FFC9A7 EQ PUSH2 0xFA JUMPI DUP1 PUSH4 0x248A9CA3 EQ PUSH2 0x12A JUMPI DUP1 PUSH4 0x29507F73 EQ PUSH2 0x15A JUMPI JUMPDEST PUSH1 0x0 DUP1 REVERT JUMPDEST PUSH2 0x114 PUSH1 0x4 DUP1 CALLDATASIZE SUB DUP2 ADD SWAP1 PUSH2 0x10F SWAP2 SWAP1 PUSH2 0xE63 JUMP JUMPDEST PUSH2 0x2FB JUMP JUMPDEST PUSH1 0x40 MLOAD PUSH2 0x121 SWAP2 SWAP1 PUSH2 0xEAB JUMP JUMPDEST PUSH1 0x40 MLOAD DUP1 SWAP2 SUB SWAP1 RETURN JUMPDEST PUSH2 0x144 PUSH1 0x4 DUP1 CALLDATASIZE SUB DUP2 ADD SWAP1 PUSH2 0x13F SWAP2 SWAP1 PUSH2 0xEFC JUMP JUMPDEST PUSH2 0x375 JUMP JUMPDEST PUSH1 0x40 MLOAD PUSH2 0x151 SWAP2 SWAP1 PUSH2 0xF38 JUMP JUMPDEST PUSH1 0x40 MLOAD DUP1 SWAP2 SUB SWAP1 RETURN JUMPDEST PUSH2 0x174 PUSH1 0x4 DUP1 CALLDATASIZE SUB DUP2 ADD SWAP1 PUSH2 0x16F SWAP2 SWAP1 PUSH2 0xFE7 JUMP JUMPDEST PUSH2 0x394 JUMP JUMPDEST STOP JUMPDEST PUSH2 0x190 PUSH1 0x4 DUP1 CALLDATASIZE SUB DUP2 ADD SWAP1 PUSH2 0x18B SWAP2 SWAP1 PUSH2 0x1027 JUMP JUMPDEST PUSH2 0x55B JUMP JUMPDEST STOP JUMPDEST PUSH2 0x1AC PUSH1 0x4 DUP1 CALLDATASIZE SUB DUP2 ADD SWAP1 PUSH2 0x1A7 SWAP2 SWAP1 PUSH2 0x1027 JUMP JUMPDEST PUSH2 0x57D JUMP JUMPDEST STOP JUMPDEST PUSH2 0x1B6 PUSH2 0x5F8 JUMP JUMPDEST PUSH1 0x40 MLOAD PUSH2 0x1C3 SWAP2 SWAP1 PUSH2 0x1076 JUMP JUMPDEST PUSH1 0x40 MLOAD DUP1 SWAP2 SUB SWAP1 RETURN JUMPDEST PUSH2 0x1D4 PUSH2 0x5FE JUMP JUMPDEST PUSH1 0x40 MLOAD PUSH2 0x1E1 SWAP2 SWAP1 PUSH2 0xF38 JUMP JUMPDEST PUSH1 0x40 MLOAD DUP1 SWAP2 SUB SWAP1 RETURN JUMPDEST PUSH2 0x204 PUSH1 0x4 DUP1 CALLDATASIZE SUB DUP2 ADD SWAP1 PUSH2 0x1FF SWAP2 SWAP1 PUSH2 0x11D7 JUMP JUMPDEST PUSH2 0x622 JUMP JUMPDEST STOP JUMPDEST PUSH2 0x220 PUSH1 0x4 DUP1 CALLDATASIZE SUB DUP2 ADD SWAP1 PUSH2 0x21B SWAP2 SWAP1 PUSH2 0x1027 JUMP JUMPDEST PUSH2 0x7D5 JUMP JUMPDEST PUSH1 0x40 MLOAD PUSH2 0x22D SWAP2 SWAP1 PUSH2 0xEAB JUMP JUMPDEST PUSH1 0x40 MLOAD DUP1 SWAP2 SUB SWAP1 RETURN JUMPDEST PUSH2 0x23E PUSH2 0x83F JUMP JUMPDEST PUSH1 0x40 MLOAD PUSH2 0x24B SWAP2 SWAP1 PUSH2 0xF38 JUMP JUMPDEST PUSH1 0x40 MLOAD DUP1 SWAP2 SUB SWAP1 RETURN JUMPDEST PUSH2 0x26E PUSH1 0x4 DUP1 CALLDATASIZE SUB DUP2 ADD SWAP1 PUSH2 0x269 SWAP2 SWAP1 PUSH2 0x1292 JUMP JUMPDEST PUSH2 0x846 JUMP JUMPDEST STOP JUMPDEST PUSH2 0x28A PUSH1 0x4 DUP1 CALLDATASIZE SUB DUP2 ADD SWAP1 PUSH2 0x285 SWAP2 SWAP1 PUSH2 0x1292 JUMP JUMPDEST PUSH2 0x89E JUMP JUMPDEST STOP JUMPDEST PUSH2 0x2A6 PUSH1 0x4 DUP1 CALLDATASIZE SUB DUP2 ADD SWAP1 PUSH2 0x2A1 SWAP2 SWAP1 PUSH2 0x1027 JUMP JUMPDEST PUSH2 0x8F6 JUMP JUMPDEST STOP JUMPDEST PUSH2 0x2B0 PUSH2 0x918 JUMP JUMPDEST PUSH1 0x40 MLOAD PUSH2 0x2BD SWAP2 SWAP1 PUSH2 0xF38 JUMP JUMPDEST PUSH1 0x40 MLOAD DUP1 SWAP2 SUB SWAP1 RETURN JUMPDEST PUSH2 0x2E0 PUSH1 0x4 DUP1 CALLDATASIZE SUB DUP2 ADD SWAP1 PUSH2 0x2DB SWAP2 SWAP1 PUSH2 0x12BF JUMP JUMPDEST PUSH2 0x93C JUMP JUMPDEST PUSH1 0x40 MLOAD PUSH2 0x2F2 SWAP7 SWAP6 SWAP5 SWAP4 SWAP3 SWAP2 SWAP1 PUSH2 0x137A JUMP JUMPDEST PUSH1 0x40 MLOAD DUP1 SWAP2 SUB SWAP1 RETURN JUMPDEST PUSH1 0x0 PUSH32 0x7965DB0B00000000000000000000000000000000000000000000000000000000 PUSH28 0xFFFFFFFFFFFFFFFFFFFFFFFFFFFFFFFFFFFFFFFFFFFFFFFFFFFFFFFF NOT AND DUP3 PUSH28 0xFFFFFFFFFFFFFFFFFFFFFFFFFFFFFFFFFFFFFFFFFFFFFFFFFFFFFFFF NOT AND EQ DUP1 PUSH2 0x36E JUMPI POP PUSH2 0x36D DUP3 PUSH2 0xB3D JUMP JUMPDEST JUMPDEST SWAP1 POP SWAP2 SWAP1 POP JUMP JUMPDEST PUSH1 0x0 DUP1 PUSH1 0x0 DUP4 DUP2 MSTORE PUSH1 0x20 ADD SWAP1 DUP2 MSTORE PUSH1 0x20 ADD PUSH1 0x0 KECCAK256 PUSH1 0x1 ADD SLOAD SWAP1 POP SWAP2 SWAP1 POP JUMP JUMPDEST PUSH1 0x0 PUSH1 0x1 PUSH1 0x0 DUP5 DUP2 MSTORE PUSH1 0x20 ADD SWAP1 DUP2 MSTORE PUSH1 0x20 ADD PUSH1 0x0 KECCAK256 SWAP1 POP DUP1 PUSH1 0x5 ADD PUSH1 0x0 SWAP1 SLOAD SWAP1 PUSH2 0x100 EXP SWAP1 DIV PUSH1 0xFF AND PUSH2 0x3FC JUMPI PUSH1 0x40 MLOAD PUSH32 0x8C379A000000000000000000000000000000000000000000000000000000000 DUP2 MSTORE PUSH1 0x4 ADD PUSH2 0x3F3 SWAP1 PUSH2 0x143C JUMP JUMPDEST PUSH1 0x40 MLOAD DUP1 SWAP2 SUB SWAP1 REVERT JUMPDEST DUP1 PUSH1 0x1 ADD PUSH1 0x0 SWAP1 SLOAD SWAP1 PUSH2 0x100 EXP SWAP1 DIV PUSH20 0xFFFFFFFFFFFFFFFFFFFFFFFFFFFFFFFFFFFFFFFF AND PUSH20 0xFFFFFFFFFFFFFFFFFFFFFFFFFFFFFFFFFFFFFFFF AND CALLER PUSH20 0xFFFFFFFFFFFFFFFFFFFFFFFFFFFFFFFFFFFFFFFF AND EQ PUSH2 0x48E JUMPI PUSH1 0x40 MLOAD PUSH32 0x8C379A000000000000000000000000000000000000000000000000000000000 DUP2 MSTORE PUSH1 0x4 ADD PUSH2 0x485 SWAP1 PUSH2 0x14CE JUMP JUMPDEST PUSH1 0x40 MLOAD DUP1 SWAP2 SUB SWAP1 REVERT JUMPDEST PUSH1 0x0 DUP2 PUSH1 0x1 ADD PUSH1 0x0 SWAP1 SLOAD SWAP1 PUSH2 0x100 EXP SWAP1 DIV PUSH20 0xFFFFFFFFFFFFFFFFFFFFFFFFFFFFFFFFFFFFFFFF AND SWAP1 POP DUP3 DUP3 PUSH1 0x1 ADD PUSH1 0x0 PUSH2 0x100 EXP DUP2 SLOAD DUP2 PUSH20 0xFFFFFFFFFFFFFFFFFFFFFFFFFFFFFFFFFFFFFFFF MUL NOT AND SWAP1 DUP4 PUSH20 0xFFFFFFFFFFFFFFFFFFFFFFFFFFFFFFFFFFFFFFFF AND MUL OR SWAP1 SSTORE POP DUP3 PUSH20 0xFFFFFFFFFFFFFFFFFFFFFFFFFFFFFFFFFFFFFFFF AND DUP2 PUSH20 0xFFFFFFFFFFFFFFFFFFFFFFFFFFFFFFFFFFFFFFFF AND DUP6 PUSH32 0x16B85F49BF01212961345D3016C9A531894ACCF62EB7680F2045D79185CC0EC0 PUSH1 0x40 MLOAD PUSH1 0x40 MLOAD DUP1 SWAP2 SUB SWAP1 LOG4 POP POP POP POP JUMP JUMPDEST PUSH2 0x564 DUP3 PUSH2 0x375 JUMP JUMPDEST PUSH2 0x56D DUP2 PUSH2 0xBA7 JUMP JUMPDEST PUSH2 0x577 DUP4 DUP4 PUSH2 0xBBB JUMP JUMPDEST POP POP POP POP JUMP JUMPDEST PUSH2 0x585 PUSH2 0xCAC JUMP JUMPDEST PUSH20 0xFFFFFFFFFFFFFFFFFFFFFFFFFFFFFFFFFFFFFFFF AND DUP2 PUSH20 0xFFFFFFFFFFFFFFFFFFFFFFFFFFFFFFFFFFFFFFFF AND EQ PUSH2 0x5E9 JUMPI PUSH1 0x40 MLOAD PUSH32 0x6697B23200000000000000000000000000000000000000000000000000000000 DUP2 MSTORE PUSH1 0x4 ADD PUSH1 0x40 MLOAD DUP1 SWAP2 SUB SWAP1 REVERT JUMPDEST PUSH2 0x5F3 DUP3 DUP3 PUSH2 0xCB4 JUMP JUMPDEST POP POP POP JUMP JUMPDEST PUSH1 0x2 SLOAD DUP2 JUMP JUMPDEST PUSH32 0xD565E3FC066DF348A5CBC05A8D6323E00552838041CEA2D84CC59876BA37735D DUP2 JUMP JUMPDEST PUSH32 0xEDCC084D3DCD65A1F7F23C65C46722FACA6953D28E43150A467CF43E5C309238 PUSH2 0x64C DUP2 PUSH2 0xBA7 JUMP JUMPDEST PUSH1 0x0 PUSH1 0x2 SLOAD SWAP1 POP PUSH1 0x40 MLOAD DUP1 PUSH1 0xC0 ADD PUSH1 0x40 MSTORE DUP1 DUP3 DUP2 MSTORE PUSH1 0x20 ADD DUP8 PUSH20 0xFFFFFFFFFFFFFFFFFFFFFFFFFFFFFFFFFFFFFFFF AND DUP2 MSTORE PUSH1 0x20 ADD DUP7 DUP2 MSTORE PUSH1 0x20 ADD DUP6 DUP2 MSTORE PUSH1 0x20 ADD DUP5 DUP2 MSTORE PUSH1 0x20 ADD PUSH1 0x1 ISZERO ISZERO DUP2 MSTORE POP PUSH1 0x1 PUSH1 0x0 DUP4 DUP2 MSTORE PUSH1 0x20 ADD SWAP1 DUP2 MSTORE PUSH1 0x20 ADD PUSH1 0x0 KECCAK256 PUSH1 0x0 DUP3 ADD MLOAD DUP2 PUSH1 0x0 ADD SSTORE PUSH1 0x20 DUP3 ADD MLOAD DUP2 PUSH1 0x1 ADD PUSH1 0x0 PUSH2 0x100 EXP DUP2 SLOAD DUP2 PUSH20 0xFFFFFFFFFFFFFFFFFFFFFFFFFFFFFFFFFFFFFFFF MUL NOT AND SWAP1 DUP4 PUSH20 0xFFFFFFFFFFFFFFFFFFFFFFFFFFFFFFFFFFFFFFFF AND MUL OR SWAP1 SSTORE POP PUSH1 0x40 DUP3 ADD MLOAD DUP2 PUSH1 0x2 ADD SWAP1 DUP2 PUSH2 0x712 SWAP2 SWAP1 PUSH2 0x16FA JUMP JUMPDEST POP PUSH1 0x60 DUP3 ADD MLOAD DUP2 PUSH1 0x3 ADD SWAP1 DUP2 PUSH2 0x728 SWAP2 SWAP1 PUSH2 0x16FA JUMP JUMPDEST POP PUSH1 0x80 DUP3 ADD MLOAD DUP2 PUSH1 0x4 ADD SWAP1 DUP2 PUSH2 0x73E SWAP2 SWAP1 PUSH2 0x16FA JUMP JUMPDEST POP PUSH1 0xA0 DUP3 ADD MLOAD DUP2 PUSH1 0x5 ADD PUSH1 0x0 PUSH2 0x100 EXP DUP2 SLOAD DUP2 PUSH1 0xFF MUL NOT AND SWAP1 DUP4 ISZERO ISZERO MUL OR SWAP1 SSTORE POP SWAP1 POP POP DUP6 PUSH20 0xFFFFFFFFFFFFFFFFFFFFFFFFFFFFFFFFFFFFFFFF AND DUP2 PUSH32 0xCCD9EACC2951FAF606F4990AAC2CA22A8DC259BDF2883713B2B85A46E8430A1E DUP8 DUP8 DUP8 PUSH1 0x40 MLOAD PUSH2 0x7AD SWAP4 SWAP3 SWAP2 SWAP1 PUSH2 0x17CC JUMP JUMPDEST PUSH1 0x40 MLOAD DUP1 SWAP2 SUB SWAP1 LOG3 PUSH1 0x2 PUSH1 0x0 DUP2 SLOAD DUP1 SWAP3 SWAP2 SWAP1 PUSH2 0x7C8 SWAP1 PUSH2 0x1847 JUMP JUMPDEST SWAP2 SWAP1 POP SSTORE POP POP POP POP POP POP POP JUMP JUMPDEST PUSH1 0x0 DUP1 PUSH1 0x0 DUP5 DUP2 MSTORE PUSH1 0x20 ADD SWAP1 DUP2 MSTORE PUSH1 0x20 ADD PUSH1 0x0 KECCAK256 PUSH1 0x0 ADD PUSH1 0x0 DUP4 PUSH20 0xFFFFFFFFFFFFFFFFFFFFFFFFFFFFFFFFFFFFFFFF AND PUSH20 0xFFFFFFFFFFFFFFFFFFFFFFFFFFFFFFFFFFFFFFFF AND DUP2 MSTORE PUSH1 0x20 ADD SWAP1 DUP2 MSTORE PUSH1 0x20 ADD PUSH1 0x0 KECCAK256 PUSH1 0x0 SWAP1 SLOAD SWAP1 PUSH2 0x100 EXP SWAP1 DIV PUSH1 0xFF AND SWAP1 POP SWAP3 SWAP2 POP POP JUMP JUMPDEST PUSH1 0x0 DUP1 SHL DUP2 JUMP JUMPDEST PUSH32 0xD565E3FC066DF348A5CBC05A8D6323E00552838041CEA2D84CC59876BA37735D PUSH2 0x870 DUP2 PUSH2 0xBA7 JUMP JUMPDEST PUSH2 0x89A PUSH32 0xEDCC084D3DCD65A1F7F23C65C46722FACA6953D28E43150A467CF43E5C309238 DUP4 PUSH2 0x55B JUMP JUMPDEST POP POP JUMP JUMPDEST PUSH32 0xD565E3FC066DF348A5CBC05A8D6323E00552838041CEA2D84CC59876BA37735D PUSH2 0x8C8 DUP2 PUSH2 0xBA7 JUMP JUMPDEST PUSH2 0x8F2 PUSH32 0xEDCC084D3DCD65A1F7F23C65C46722FACA6953D28E43150A467CF43E5C309238 DUP4 PUSH2 0x8F6 JUMP JUMPDEST POP POP JUMP JUMPDEST PUSH2 0x8FF DUP3 PUSH2 0x375 JUMP JUMPDEST PUSH2 0x908 DUP2 PUSH2 0xBA7 JUMP JUMPDEST PUSH2 0x912 DUP4 DUP4 PUSH2 0xCB4 JUMP JUMPDEST POP POP POP POP JUMP JUMPDEST PUSH32 0xEDCC084D3DCD65A1F7F23C65C46722FACA6953D28E43150A467CF43E5C309238 DUP2 JUMP JUMPDEST PUSH1 0x1 PUSH1 0x20 MSTORE DUP1 PUSH1 0x0 MSTORE PUSH1 0x40 PUSH1 0x0 KECCAK256 PUSH1 0x0 SWAP2 POP SWAP1 POP DUP1 PUSH1 0x0 ADD SLOAD SWAP1 DUP1 PUSH1 0x1 ADD PUSH1 0x0 SWAP1 SLOAD SWAP1 PUSH2 0x100 EXP SWAP1 DIV PUSH20 0xFFFFFFFFFFFFFFFFFFFFFFFFFFFFFFFFFFFFFFFF AND SWAP1 DUP1 PUSH1 0x2 ADD DUP1 SLOAD PUSH2 0x98B SWAP1 PUSH2 0x151D JUMP JUMPDEST DUP1 PUSH1 0x1F ADD PUSH1 0x20 DUP1 SWAP2 DIV MUL PUSH1 0x20 ADD PUSH1 0x40 MLOAD SWAP1 DUP2 ADD PUSH1 0x40 MSTORE DUP1 SWAP3 SWAP2 SWAP1 DUP2 DUP2 MSTORE PUSH1 0x20 ADD DUP3 DUP1 SLOAD PUSH2 0x9B7 SWAP1 PUSH2 0x151D JUMP JUMPDEST DUP1 ISZERO PUSH2 0xA04 JUMPI DUP1 PUSH1 0x1F LT PUSH2 0x9D9 JUMPI PUSH2 0x100 DUP1 DUP4 SLOAD DIV MUL DUP4 MSTORE SWAP2 PUSH1 0x20 ADD SWAP2 PUSH2 0xA04 JUMP JUMPDEST DUP3 ADD SWAP2 SWAP1 PUSH1 0x0 MSTORE PUSH1 0x20 PUSH1 0x0 KECCAK256 SWAP1 JUMPDEST DUP2 SLOAD DUP2 MSTORE SWAP1 PUSH1 0x1 ADD SWAP1 PUSH1 0x20 ADD DUP1 DUP4 GT PUSH2 0x9E7 JUMPI DUP3 SWAP1 SUB PUSH1 0x1F AND DUP3 ADD SWAP2 JUMPDEST POP POP POP POP POP SWAP1 DUP1 PUSH1 0x3 ADD DUP1 SLOAD PUSH2 0xA19 SWAP1 PUSH2 0x151D JUMP JUMPDEST DUP1 PUSH1 0x1F ADD PUSH1 0x20 DUP1 SWAP2 DIV MUL PUSH1 0x20 ADD PUSH1 0x40 MLOAD SWAP1 DUP2 ADD PUSH1 0x40 MSTORE DUP1 SWAP3 SWAP2 SWAP1 DUP2 DUP2 MSTORE PUSH1 0x20 ADD DUP3 DUP1 SLOAD PUSH2 0xA45 SWAP1 PUSH2 0x151D JUMP JUMPDEST DUP1 ISZERO PUSH2 0xA92 JUMPI DUP1 PUSH1 0x1F LT PUSH2 0xA67 JUMPI PUSH2 0x100 DUP1 DUP4 SLOAD DIV MUL DUP4 MSTORE SWAP2 PUSH1 0x20 ADD SWAP2 PUSH2 0xA92 JUMP JUMPDEST DUP3 ADD SWAP2 SWAP1 PUSH1 0x0 MSTORE PUSH1 0x20 PUSH1 0x0 KECCAK256 SWAP1 JUMPDEST DUP2 SLOAD DUP2 MSTORE SWAP1 PUSH1 0x1 ADD SWAP1 PUSH1 0x20 ADD DUP1 DUP4 GT PUSH2 0xA75 JUMPI DUP3 SWAP1 SUB PUSH1 0x1F AND DUP3 ADD SWAP2 JUMPDEST POP POP POP POP POP SWAP1 DUP1 PUSH1 0x4 ADD DUP1 SLOAD PUSH2 0xAA7 SWAP1 PUSH2 0x151D JUMP JUMPDEST DUP1 PUSH1 0x1F ADD PUSH1 0x20 DUP1 SWAP2 DIV MUL PUSH1 0x20 ADD PUSH1 0x40 MLOAD SWAP1 DUP2 ADD PUSH1 0x40 MSTORE DUP1 SWAP3 SWAP2 SWAP1 DUP2 DUP2 MSTORE PUSH1 0x20 ADD DUP3 DUP1 SLOAD PUSH2 0xAD3 SWAP1 PUSH2 0x151D JUMP JUMPDEST DUP1 ISZERO PUSH2 0xB20 JUMPI DUP1 PUSH1 0x1F LT PUSH2 0xAF5 JUMPI PUSH2 0x100 DUP1 DUP4 SLOAD DIV MUL DUP4 MSTORE SWAP2 PUSH1 0x20 ADD SWAP2 PUSH2 0xB20 JUMP JUMPDEST DUP3 ADD SWAP2 SWAP1 PUSH1 0x0 MSTORE PUSH1 0x20 PUSH1 0x0 KECCAK256 SWAP1 JUMPDEST DUP2 SLOAD DUP2 MSTORE SWAP1 PUSH1 0x1 ADD SWAP1 PUSH1 0x20 ADD DUP1 DUP4 GT PUSH2 0xB03 JUMPI DUP3 SWAP1 SUB PUSH1 0x1F AND DUP3 ADD SWAP2 JUMPDEST POP POP POP POP POP SWAP1 DUP1 PUSH1 0x5 ADD PUSH1 0x0 SWAP1 SLOAD SWAP1 PUSH2 0x100 EXP SWAP1 DIV PUSH1 0xFF AND SWAP1 POP DUP7 JUMP JUMPDEST PUSH1 0x0 PUSH32 0x1FFC9A700000000000000000000000000000000000000000000000000000000 PUSH28 0xFFFFFFFFFFFFFFFFFFFFFFFFFFFFFFFFFFFFFFFFFFFFFFFFFFFFFFFF NOT AND DUP3 PUSH28 0xFFFFFFFFFFFFFFFFFFFFFFFFFFFFFFFFFFFFFFFFFFFFFFFFFFFFFFFF NOT AND EQ SWAP1 POP SWAP2 SWAP1 POP JUMP JUMPDEST PUSH2 0xBB8 DUP2 PUSH2 0xBB3 PUSH2 0xCAC JUMP JUMPDEST PUSH2 0xDA6 JUMP JUMPDEST POP JUMP JUMPDEST PUSH1 0x0 PUSH2 0xBC7 DUP4 DUP4 PUSH2 0x7D5 JUMP JUMPDEST PUSH2 0xCA1 JUMPI PUSH1 0x1 PUSH1 0x0 DUP1 DUP6 DUP2 MSTORE PUSH1 0x20 ADD SWAP1 DUP2 MSTORE PUSH1 0x20 ADD PUSH1 0x0 KECCAK256 PUSH1 0x0 ADD PUSH1 0x0 DUP5 PUSH20 0xFFFFFFFFFFFFFFFFFFFFFFFFFFFFFFFFFFFFFFFF AND PUSH20 0xFFFFFFFFFFFFFFFFFFFFFFFFFFFFFFFFFFFFFFFF AND DUP2 MSTORE PUSH1 0x20 ADD SWAP1 DUP2 MSTORE PUSH1 0x20 ADD PUSH1 0x0 KECCAK256 PUSH1 0x0 PUSH2 0x100 EXP DUP2 SLOAD DUP2 PUSH1 0xFF MUL NOT AND SWAP1 DUP4 ISZERO ISZERO MUL OR SWAP1 SSTORE POP PUSH2 0xC3E PUSH2 0xCAC JUMP JUMPDEST PUSH20 0xFFFFFFFFFFFFFFFFFFFFFFFFFFFFFFFFFFFFFFFF AND DUP3 PUSH20 0xFFFFFFFFFFFFFFFFFFFFFFFFFFFFFFFFFFFFFFFF AND DUP5 PUSH32 0x2F8788117E7EFF1D82E926EC794901D17C78024A50270940304540A733656F0D PUSH1 0x40 MLOAD PUSH1 0x40 MLOAD DUP1 SWAP2 SUB SWAP1 LOG4 PUSH1 0x1 SWAP1 POP PUSH2 0xCA6 JUMP JUMPDEST PUSH1 0x0 SWAP1 POP JUMPDEST SWAP3 SWAP2 POP POP JUMP JUMPDEST PUSH1 0x0 CALLER SWAP1 POP SWAP1 JUMP JUMPDEST PUSH1 0x0 PUSH2 0xCC0 DUP4 DUP4 PUSH2 0x7D5 JUMP JUMPDEST ISZERO PUSH2 0xD9B JUMPI PUSH1 0x0 DUP1 PUSH1 0x0 DUP6 DUP2 MSTORE PUSH1 0x20 ADD SWAP1 DUP2 MSTORE PUSH1 0x20 ADD PUSH1 0x0 KECCAK256 PUSH1 0x0 ADD PUSH1 0x0 DUP5 PUSH20 0xFFFFFFFFFFFFFFFFFFFFFFFFFFFFFFFFFFFFFFFF AND PUSH20 0xFFFFFFFFFFFFFFFFFFFFFFFFFFFFFFFFFFFFFFFF AND DUP2 MSTORE PUSH1 0x20 ADD SWAP1 DUP2 MSTORE PUSH1 0x20 ADD PUSH1 0x0 KECCAK256 PUSH1 0x0 PUSH2 0x100 EXP DUP2 SLOAD DUP2 PUSH1 0xFF MUL NOT AND SWAP1 DUP4 ISZERO ISZERO MUL OR SWAP1 SSTORE POP PUSH2 0xD38 PUSH2 0xCAC JUMP JUMPDEST PUSH20 0xFFFFFFFFFFFFFFFFFFFFFFFFFFFFFFFFFFFFFFFF AND DUP3 PUSH20 0xFFFFFFFFFFFFFFFFFFFFFFFFFFFFFFFFFFFFFFFF AND DUP5 PUSH32 0xF6391F5C32D9C69D2A47EA670B442974B53935D1EDC7FD64EB21E047A839171B PUSH1 0x40 MLOAD PUSH1 0x40 MLOAD DUP1 SWAP2 SUB SWAP1 LOG4 PUSH1 0x1 SWAP1 POP PUSH2 0xDA0 JUMP JUMPDEST PUSH1 0x0 SWAP1 POP JUMPDEST SWAP3 SWAP2 POP POP JUMP JUMPDEST PUSH2 0xDB0 DUP3 DUP3 PUSH2 0x7D5 JUMP JUMPDEST PUSH2 0xDF3 JUMPI DUP1 DUP3 PUSH1 0x40 MLOAD PUSH32 0xE2517D3F00000000000000000000000000000000000000000000000000000000 DUP2 MSTORE PUSH1 0x4 ADD PUSH2 0xDEA SWAP3 SWAP2 SWAP1 PUSH2 0x188F JUMP JUMPDEST PUSH1 0x40 MLOAD DUP1 SWAP2 SUB SWAP1 REVERT JUMPDEST POP POP JUMP JUMPDEST PUSH1 0x0 PUSH1 0x40 MLOAD SWAP1 POP SWAP1 JUMP JUMPDEST PUSH1 0x0 DUP1 REVERT JUMPDEST PUSH1 0x0 DUP1 REVERT JUMPDEST PUSH1 0x0 PUSH32 0xFFFFFFFF00000000000000000000000000000000000000000000000000000000 DUP3 AND SWAP1 POP SWAP2 SWAP1 POP JUMP JUMPDEST PUSH2 0xE40 DUP2 PUSH2 0xE0B JUMP JUMPDEST DUP2 EQ PUSH2 0xE4B JUMPI PUSH1 0x0 DUP1 REVERT JUMPDEST POP JUMP JUMPDEST PUSH1 0x0 DUP2 CALLDATALOAD SWAP1 POP PUSH2 0xE5D DUP2 PUSH2 0xE37 JUMP JUMPDEST SWAP3 SWAP2 POP POP JUMP JUMPDEST PUSH1 0x0 PUSH1 0x20 DUP3 DUP5 SUB SLT ISZERO PUSH2 0xE79 JUMPI PUSH2 0xE78 PUSH2 0xE01 JUMP JUMPDEST JUMPDEST PUSH1 0x0 PUSH2 0xE87 DUP5 DUP3 DUP6 ADD PUSH2 0xE4E JUMP JUMPDEST SWAP2 POP POP SWAP3 SWAP2 POP POP JUMP JUMPDEST PUSH1 0x0 DUP2 ISZERO ISZERO SWAP1 POP SWAP2 SWAP1 POP JUMP JUMPDEST PUSH2 0xEA5 DUP2 PUSH2 0xE90 JUMP JUMPDEST DUP3 MSTORE POP POP JUMP JUMPDEST PUSH1 0x0 PUSH1 0x20 DUP3 ADD SWAP1 POP PUSH2 0xEC0 PUSH1 0x0 DUP4 ADD DUP5 PUSH2 0xE9C JUMP JUMPDEST SWAP3 SWAP2 POP POP JUMP JUMPDEST PUSH1 0x0 DUP2 SWAP1 POP SWAP2 SWAP1 POP JUMP JUMPDEST PUSH2 0xED9 DUP2 PUSH2 0xEC6 JUMP JUMPDEST DUP2 EQ PUSH2 0xEE4 JUMPI PUSH1 0x0 DUP1 REVERT JUMPDEST POP JUMP JUMPDEST PUSH1 0x0 DUP2 CALLDATALOAD SWAP1 POP PUSH2 0xEF6 DUP2 PUSH2 0xED0 JUMP JUMPDEST SWAP3 SWAP2 POP POP JUMP JUMPDEST PUSH1 0x0 PUSH1 0x20 DUP3 DUP5 SUB SLT ISZERO PUSH2 0xF12 JUMPI PUSH2 0xF11 PUSH2 0xE01 JUMP JUMPDEST JUMPDEST PUSH1 0x0 PUSH2 0xF20 DUP5 DUP3 DUP6 ADD PUSH2 0xEE7 JUMP JUMPDEST SWAP2 POP POP SWAP3 SWAP2 POP POP JUMP JUMPDEST PUSH2 0xF32 DUP2 PUSH2 0xEC6 JUMP JUMPDEST DUP3 MSTORE POP POP JUMP JUMPDEST PUSH1 0x0 PUSH1 0x20 DUP3 ADD SWAP1 POP PUSH2 0xF4D PUSH1 0x0 DUP4 ADD DUP5 PUSH2 0xF29 JUMP JUMPDEST SWAP3 SWAP2 POP POP JUMP JUMPDEST PUSH1 0x0 DUP2 SWAP1 POP SWAP2 SWAP1 POP JUMP JUMPDEST PUSH2 0xF66 DUP2 PUSH2 0xF53 JUMP JUMPDEST DUP2 EQ PUSH2 0xF71 JUMPI PUSH1 0x0 DUP1 REVERT JUMPDEST POP JUMP JUMPDEST PUSH1 0x0 DUP2 CALLDATALOAD SWAP1 POP PUSH2 0xF83 DUP2 PUSH2 0xF5D JUMP JUMPDEST SWAP3 SWAP2 POP POP JUMP JUMPDEST PUSH1 0x0 PUSH20 0xFFFFFFFFFFFFFFFFFFFFFFFFFFFFFFFFFFFFFFFF DUP3 AND SWAP1 POP SWAP2 SWAP1 POP JUMP JUMPDEST PUSH1 0x0 PUSH2 0xFB4 DUP3 PUSH2 0xF89 JUMP JUMPDEST SWAP1 POP SWAP2 SWAP1 POP JUMP JUMPDEST PUSH2 0xFC4 DUP2 PUSH2 0xFA9 JUMP JUMPDEST DUP2 EQ PUSH2 0xFCF JUMPI PUSH1 0x0 DUP1 REVERT JUMPDEST POP JUMP JUMPDEST PUSH1 0x0 DUP2 CALLDATALOAD SWAP1 POP PUSH2 0xFE1 DUP2 PUSH2 0xFBB JUMP JUMPDEST SWAP3 SWAP2 POP POP JUMP JUMPDEST PUSH1 0x0 DUP1 PUSH1 0x40 DUP4 DUP6 SUB SLT ISZERO PUSH2 0xFFE JUMPI PUSH2 0xFFD PUSH2 0xE01 JUMP JUMPDEST JUMPDEST PUSH1 0x0 PUSH2 0x100C DUP6 DUP3 DUP7 ADD PUSH2 0xF74 JUMP JUMPDEST SWAP3 POP POP PUSH1 0x20 PUSH2 0x101D DUP6 DUP3 DUP7 ADD PUSH2 0xFD2 JUMP JUMPDEST SWAP2 POP POP SWAP3 POP SWAP3 SWAP1 POP JUMP JUMPDEST PUSH1 0x0 DUP1 PUSH1 0x40 DUP4 DUP6 SUB SLT ISZERO PUSH2 0x103E JUMPI PUSH2 0x103D PUSH2 0xE01 JUMP JUMPDEST JUMPDEST PUSH1 0x0 PUSH2 0x104C DUP6 DUP3 DUP7 ADD PUSH2 0xEE7 JUMP JUMPDEST SWAP3 POP POP PUSH1 0x20 PUSH2 0x105D DUP6 DUP3 DUP7 ADD PUSH2 0xFD2 JUMP JUMPDEST SWAP2 POP POP SWAP3 POP SWAP3 SWAP1 POP JUMP JUMPDEST PUSH2 0x1070 DUP2 PUSH2 0xF53 JUMP JUMPDEST DUP3 MSTORE POP POP JUMP JUMPDEST PUSH1 0x0 PUSH1 0x20 DUP3 ADD SWAP1 POP PUSH2 0x108B PUSH1 0x0 DUP4 ADD DUP5 PUSH2 0x1067 JUMP JUMPDEST SWAP3 SWAP2 POP POP JUMP JUMPDEST PUSH1 0x0 DUP1 REVERT JUMPDEST PUSH1 0x0 DUP1 REVERT JUMPDEST PUSH1 0x0 PUSH1 0x1F NOT PUSH1 0x1F DUP4 ADD AND SWAP1 POP SWAP2 SWAP1 POP JUMP JUMPDEST PUSH32 0x4E487B7100000000000000000000000000000000000000000000000000000000 PUSH1 0x0 MSTORE PUSH1 0x41 PUSH1 0x4 MSTORE PUSH1 0x24 PUSH1 0x0 REVERT JUMPDEST PUSH2 0x10E4 DUP3 PUSH2 0x109B JUMP JUMPDEST DUP2 ADD DUP2 DUP2 LT PUSH8 0xFFFFFFFFFFFFFFFF DUP3 GT OR ISZERO PUSH2 0x1103 JUMPI PUSH2 0x1102 PUSH2 0x10AC JUMP JUMPDEST JUMPDEST DUP1 PUSH1 0x40 MSTORE POP POP POP JUMP JUMPDEST PUSH1 0x0 PUSH2 0x1116 PUSH2 0xDF7 JUMP JUMPDEST SWAP1 POP PUSH2 0x1122 DUP3 DUP3 PUSH2 0x10DB JUMP JUMPDEST SWAP2 SWAP1 POP JUMP JUMPDEST PUSH1 0x0 PUSH8 0xFFFFFFFFFFFFFFFF DUP3 GT ISZERO PUSH2 0x1142 JUMPI PUSH2 0x1141 PUSH2 0x10AC JUMP JUMPDEST JUMPDEST PUSH2 0x114B DUP3 PUSH2 0x109B JUMP JUMPDEST SWAP1 POP PUSH1 0x20 DUP2 ADD SWAP1 POP SWAP2 SWAP1 POP JUMP JUMPDEST DUP3 DUP2 DUP4 CALLDATACOPY PUSH1 0x0 DUP4 DUP4 ADD MSTORE POP POP POP JUMP JUMPDEST PUSH1 0x0 PUSH2 0x117A PUSH2 0x1175 DUP5 PUSH2 0x1127 JUMP JUMPDEST PUSH2 0x110C JUMP JUMPDEST SWAP1 POP DUP3 DUP2 MSTORE PUSH1 0x20 DUP2 ADD DUP5 DUP5 DUP5 ADD GT ISZERO PUSH2 0x1196 JUMPI PUSH2 0x1195 PUSH2 0x1096 JUMP JUMPDEST JUMPDEST PUSH2 0x11A1 DUP5 DUP3 DUP6 PUSH2 0x1158 JUMP JUMPDEST POP SWAP4 SWAP3 POP POP POP JUMP JUMPDEST PUSH1 0x0 DUP3 PUSH1 0x1F DUP4 ADD SLT PUSH2 0x11BE JUMPI PUSH2 0x11BD PUSH2 0x1091 JUMP JUMPDEST JUMPDEST DUP2 CALLDATALOAD PUSH2 0x11CE DUP5 DUP3 PUSH1 0x20 DUP7 ADD PUSH2 0x1167 JUMP JUMPDEST SWAP2 POP POP SWAP3 SWAP2 POP POP JUMP JUMPDEST PUSH1 0x0 DUP1 PUSH1 0x0 DUP1 PUSH1 0x80 DUP6 DUP8 SUB SLT ISZERO PUSH2 0x11F1 JUMPI PUSH2 0x11F0 PUSH2 0xE01 JUMP JUMPDEST JUMPDEST PUSH1 0x0 PUSH2 0x11FF DUP8 DUP3 DUP9 ADD PUSH2 0xFD2 JUMP JUMPDEST SWAP5 POP POP PUSH1 0x20 DUP6 ADD CALLDATALOAD PUSH8 0xFFFFFFFFFFFFFFFF DUP2 GT ISZERO PUSH2 0x1220 JUMPI PUSH2 0x121F PUSH2 0xE06 JUMP JUMPDEST JUMPDEST PUSH2 0x122C DUP8 DUP3 DUP9 ADD PUSH2 0x11A9 JUMP JUMPDEST SWAP4 POP POP PUSH1 0x40 DUP6 ADD CALLDATALOAD PUSH8 0xFFFFFFFFFFFFFFFF DUP2 GT ISZERO PUSH2 0x124D JUMPI PUSH2 0x124C PUSH2 0xE06 JUMP JUMPDEST JUMPDEST PUSH2 0x1259 DUP8 DUP3 DUP9 ADD PUSH2 0x11A9 JUMP JUMPDEST SWAP3 POP POP PUSH1 0x60 DUP6 ADD CALLDATALOAD PUSH8 0xFFFFFFFFFFFFFFFF DUP2 GT ISZERO PUSH2 0x127A JUMPI PUSH2 0x1279 PUSH2 0xE06 JUMP JUMPDEST JUMPDEST PUSH2 0x1286 DUP8 DUP3 DUP9 ADD PUSH2 0x11A9 JUMP JUMPDEST SWAP2 POP POP SWAP3 SWAP6 SWAP2 SWAP5 POP SWAP3 POP JUMP JUMPDEST PUSH1 0x0 PUSH1 0x20 DUP3 DUP5 SUB SLT ISZERO PUSH2 0x12A8 JUMPI PUSH2 0x12A7 PUSH2 0xE01 JUMP JUMPDEST JUMPDEST PUSH1 0x0 PUSH2 0x12B6 DUP5 DUP3 DUP6 ADD PUSH2 0xFD2 JUMP JUMPDEST SWAP2 POP POP SWAP3 SWAP2 POP POP JUMP JUMPDEST PUSH1 0x0 PUSH1 0x20 DUP3 DUP5 SUB SLT ISZERO PUSH2 0x12D5 JUMPI PUSH2 0x12D4 PUSH2 0xE01 JUMP JUMPDEST JUMPDEST PUSH1 0x0 PUSH2 0x12E3 DUP5 DUP3 DUP6 ADD PUSH2 0xF74 JUMP JUMPDEST SWAP2 POP POP SWAP3 SWAP2 POP POP JUMP JUMPDEST PUSH2 0x12F5 DUP2 PUSH2 0xFA9 JUMP JUMPDEST DUP3 MSTORE POP POP JUMP JUMPDEST PUSH1 0x0 DUP2 MLOAD SWAP1 POP SWAP2 SWAP1 POP JUMP JUMPDEST PUSH1 0x0 DUP3 DUP3 MSTORE PUSH1 0x20 DUP3 ADD SWAP1 POP SWAP3 SWAP2 POP POP JUMP JUMPDEST PUSH1 0x0 JUMPDEST DUP4 DUP2 LT ISZERO PUSH2 0x1335 JUMPI DUP1 DUP3 ADD MLOAD DUP2 DUP5 ADD MSTORE PUSH1 0x20 DUP2 ADD SWAP1 POP PUSH2 0x131A JUMP JUMPDEST PUSH1 0x0 DUP5 DUP5 ADD MSTORE POP POP POP POP JUMP JUMPDEST PUSH1 0x0 PUSH2 0x134C DUP3 PUSH2 0x12FB JUMP JUMPDEST PUSH2 0x1356 DUP2 DUP6 PUSH2 0x1306 JUMP JUMPDEST SWAP4 POP PUSH2 0x1366 DUP2 DUP6 PUSH1 0x20 DUP7 ADD PUSH2 0x1317 JUMP JUMPDEST PUSH2 0x136F DUP2 PUSH2 0x109B JUMP JUMPDEST DUP5 ADD SWAP2 POP POP SWAP3 SWAP2 POP POP JUMP JUMPDEST PUSH1 0x0 PUSH1 0xC0 DUP3 ADD SWAP1 POP PUSH2 0x138F PUSH1 0x0 DUP4 ADD DUP10 PUSH2 0x1067 JUMP JUMPDEST PUSH2 0x139C PUSH1 0x20 DUP4 ADD DUP9 PUSH2 0x12EC JUMP JUMPDEST DUP2 DUP2 SUB PUSH1 0x40 DUP4 ADD MSTORE PUSH2 0x13AE DUP2 DUP8 PUSH2 0x1341 JUMP JUMPDEST SWAP1 POP DUP2 DUP2 SUB PUSH1 0x60 DUP4 ADD MSTORE PUSH2 0x13C2 DUP2 DUP7 PUSH2 0x1341 JUMP JUMPDEST SWAP1 POP DUP2 DUP2 SUB PUSH1 0x80 DUP4 ADD MSTORE PUSH2 0x13D6 DUP2 DUP6 PUSH2 0x1341 JUMP JUMPDEST SWAP1 POP PUSH2 0x13E5 PUSH1 0xA0 DUP4 ADD DUP5 PUSH2 0xE9C JUMP JUMPDEST SWAP8 SWAP7 POP POP POP POP POP POP POP JUMP JUMPDEST PUSH32 0x50726F706572747920646F6573206E6F742065786973742E0000000000000000 PUSH1 0x0 DUP3 ADD MSTORE POP JUMP JUMPDEST PUSH1 0x0 PUSH2 0x1426 PUSH1 0x18 DUP4 PUSH2 0x1306 JUMP JUMPDEST SWAP2 POP PUSH2 0x1431 DUP3 PUSH2 0x13F0 JUMP JUMPDEST PUSH1 0x20 DUP3 ADD SWAP1 POP SWAP2 SWAP1 POP JUMP JUMPDEST PUSH1 0x0 PUSH1 0x20 DUP3 ADD SWAP1 POP DUP2 DUP2 SUB PUSH1 0x0 DUP4 ADD MSTORE PUSH2 0x1455 DUP2 PUSH2 0x1419 JUMP JUMPDEST SWAP1 POP SWAP2 SWAP1 POP JUMP JUMPDEST PUSH32 0x596F7520617265206E6F7420746865206F776E6572206F662074686973207072 PUSH1 0x0 DUP3 ADD MSTORE PUSH32 0x6F70657274792E00000000000000000000000000000000000000000000000000 PUSH1 0x20 DUP3 ADD MSTORE POP JUMP JUMPDEST PUSH1 0x0 PUSH2 0x14B8 PUSH1 0x27 DUP4 PUSH2 0x1306 JUMP JUMPDEST SWAP2 POP PUSH2 0x14C3 DUP3 PUSH2 0x145C JUMP JUMPDEST PUSH1 0x40 DUP3 ADD SWAP1 POP SWAP2 SWAP1 POP JUMP JUMPDEST PUSH1 0x0 PUSH1 0x20 DUP3 ADD SWAP1 POP DUP2 DUP2 SUB PUSH1 0x0 DUP4 ADD MSTORE PUSH2 0x14E7 DUP2 PUSH2 0x14AB JUMP JUMPDEST SWAP1 POP SWAP2 SWAP1 POP JUMP JUMPDEST PUSH32 0x4E487B7100000000000000000000000000000000000000000000000000000000 PUSH1 0x0 MSTORE PUSH1 0x22 PUSH1 0x4 MSTORE PUSH1 0x24 PUSH1 0x0 REVERT JUMPDEST PUSH1 0x0 PUSH1 0x2 DUP3 DIV SWAP1 POP PUSH1 0x1 DUP3 AND DUP1 PUSH2 0x1535 JUMPI PUSH1 0x7F DUP3 AND SWAP2 POP JUMPDEST PUSH1 0x20 DUP3 LT DUP2 SUB PUSH2 0x1548 JUMPI PUSH2 0x1547 PUSH2 0x14EE JUMP JUMPDEST JUMPDEST POP SWAP2 SWAP1 POP JUMP JUMPDEST PUSH1 0x0 DUP2 SWAP1 POP DUP2 PUSH1 0x0 MSTORE PUSH1 0x20 PUSH1 0x0 KECCAK256 SWAP1 POP SWAP2 SWAP1 POP JUMP JUMPDEST PUSH1 0x0 PUSH1 0x20 PUSH1 0x1F DUP4 ADD DIV SWAP1 POP SWAP2 SWAP1 POP JUMP JUMPDEST PUSH1 0x0 DUP3 DUP3 SHL SWAP1 POP SWAP3 SWAP2 POP POP JUMP JUMPDEST PUSH1 0x0 PUSH1 0x8 DUP4 MUL PUSH2 0x15B0 PUSH32 0xFFFFFFFFFFFFFFFFFFFFFFFFFFFFFFFFFFFFFFFFFFFFFFFFFFFFFFFFFFFFFFFF DUP3 PUSH2 0x1573 JUMP JUMPDEST PUSH2 0x15BA DUP7 DUP4 PUSH2 0x1573 JUMP JUMPDEST SWAP6 POP DUP1 NOT DUP5 AND SWAP4 POP DUP1 DUP7 AND DUP5 OR SWAP3 POP POP POP SWAP4 SWAP3 POP POP POP JUMP JUMPDEST PUSH1 0x0 DUP2 SWAP1 POP SWAP2 SWAP1 POP JUMP JUMPDEST PUSH1 0x0 PUSH2 0x15F7 PUSH2 0x15F2 PUSH2 0x15ED DUP5 PUSH2 0xF53 JUMP JUMPDEST PUSH2 0x15D2 JUMP JUMPDEST PUSH2 0xF53 JUMP JUMPDEST SWAP1 POP SWAP2 SWAP1 POP JUMP JUMPDEST PUSH1 0x0 DUP2 SWAP1 POP SWAP2 SWAP1 POP JUMP JUMPDEST PUSH2 0x1611 DUP4 PUSH2 0x15DC JUMP JUMPDEST PUSH2 0x1625 PUSH2 0x161D DUP3 PUSH2 0x15FE JUMP JUMPDEST DUP5 DUP5 SLOAD PUSH2 0x1580 JUMP JUMPDEST DUP3 SSTORE POP POP POP POP JUMP JUMPDEST PUSH1 0x0 SWAP1 JUMP JUMPDEST PUSH2 0x163A PUSH2 0x162D JUMP JUMPDEST PUSH2 0x1645 DUP2 DUP5 DUP5 PUSH2 0x1608 JUMP JUMPDEST POP POP POP JUMP JUMPDEST JUMPDEST DUP2 DUP2 LT ISZERO PUSH2 0x1669 JUMPI PUSH2 0x165E PUSH1 0x0 DUP3 PUSH2 0x1632 JUMP JUMPDEST PUSH1 0x1 DUP2 ADD SWAP1 POP PUSH2 0x164B JUMP JUMPDEST POP POP JUMP JUMPDEST PUSH1 0x1F DUP3 GT ISZERO PUSH2 0x16AE JUMPI PUSH2 0x167F DUP2 PUSH2 0x154E JUMP JUMPDEST PUSH2 0x1688 DUP5 PUSH2 0x1563 JUMP JUMPDEST DUP2 ADD PUSH1 0x20 DUP6 LT ISZERO PUSH2 0x1697 JUMPI DUP2 SWAP1 POP JUMPDEST PUSH2 0x16AB PUSH2 0x16A3 DUP6 PUSH2 0x1563 JUMP JUMPDEST DUP4 ADD DUP3 PUSH2 0x164A JUMP JUMPDEST POP POP JUMPDEST POP POP POP JUMP JUMPDEST PUSH1 0x0 DUP3 DUP3 SHR SWAP1 POP SWAP3 SWAP2 POP POP JUMP JUMPDEST PUSH1 0x0 PUSH2 0x16D1 PUSH1 0x0 NOT DUP5 PUSH1 0x8 MUL PUSH2 0x16B3 JUMP JUMPDEST NOT DUP1 DUP4 AND SWAP2 POP POP SWAP3 SWAP2 POP POP JUMP JUMPDEST PUSH1 0x0 PUSH2 0x16EA DUP4 DUP4 PUSH2 0x16C0 JUMP JUMPDEST SWAP2 POP DUP3 PUSH1 0x2 MUL DUP3 OR SWAP1 POP SWAP3 SWAP2 POP POP JUMP JUMPDEST PUSH2 0x1703 DUP3 PUSH2 0x12FB JUMP JUMPDEST PUSH8 0xFFFFFFFFFFFFFFFF DUP2 GT ISZERO PUSH2 0x171C JUMPI PUSH2 0x171B PUSH2 0x10AC JUMP JUMPDEST JUMPDEST PUSH2 0x1726 DUP3 SLOAD PUSH2 0x151D JUMP JUMPDEST PUSH2 0x1731 DUP3 DUP3 DUP6 PUSH2 0x166D JUMP JUMPDEST PUSH1 0x0 PUSH1 0x20 SWAP1 POP PUSH1 0x1F DUP4 GT PUSH1 0x1 DUP2 EQ PUSH2 0x1764 JUMPI PUSH1 0x0 DUP5 ISZERO PUSH2 0x1752 JUMPI DUP3 DUP8 ADD MLOAD SWAP1 POP JUMPDEST PUSH2 0x175C DUP6 DUP3 PUSH2 0x16DE JUMP JUMPDEST DUP7 SSTORE POP PUSH2 0x17C4 JUMP JUMPDEST PUSH1 0x1F NOT DUP5 AND PUSH2 0x1772 DUP7 PUSH2 0x154E JUMP JUMPDEST PUSH1 0x0 JUMPDEST DUP3 DUP2 LT ISZERO PUSH2 0x179A JUMPI DUP5 DUP10 ADD MLOAD DUP3 SSTORE PUSH1 0x1 DUP3 ADD SWAP2 POP PUSH1 0x20 DUP6 ADD SWAP5 POP PUSH1 0x20 DUP2 ADD SWAP1 POP PUSH2 0x1775 JUMP JUMPDEST DUP7 DUP4 LT ISZERO PUSH2 0x17B7 JUMPI DUP5 DUP10 ADD MLOAD PUSH2 0x17B3 PUSH1 0x1F DUP10 AND DUP3 PUSH2 0x16C0 JUMP JUMPDEST DUP4 SSTORE POP JUMPDEST PUSH1 0x1 PUSH1 0x2 DUP9 MUL ADD DUP9 SSTORE POP POP POP JUMPDEST POP POP POP POP POP POP JUMP JUMPDEST PUSH1 0x0 PUSH1 0x60 DUP3 ADD SWAP1 POP DUP2 DUP2 SUB PUSH1 0x0 DUP4 ADD MSTORE PUSH2 0x17E6 DUP2 DUP7 PUSH2 0x1341 JUMP JUMPDEST SWAP1 POP DUP2 DUP2 SUB PUSH1 0x20 DUP4 ADD MSTORE PUSH2 0x17FA DUP2 DUP6 PUSH2 0x1341 JUMP JUMPDEST SWAP1 POP DUP2 DUP2 SUB PUSH1 0x40 DUP4 ADD MSTORE PUSH2 0x180E DUP2 DUP5 PUSH2 0x1341 JUMP JUMPDEST SWAP1 POP SWAP5 SWAP4 POP POP POP POP JUMP JUMPDEST PUSH32 0x4E487B7100000000000000000000000000000000000000000000000000000000 PUSH1 0x0 MSTORE PUSH1 0x11 PUSH1 0x4 MSTORE PUSH1 0x24 PUSH1 0x0 REVERT JUMPDEST PUSH1 0x0 PUSH2 0x1852 DUP3 PUSH2 0xF53 JUMP JUMPDEST SWAP2 POP PUSH32 0xFFFFFFFFFFFFFFFFFFFFFFFFFFFFFFFFFFFFFFFFFFFFFFFFFFFFFFFFFFFFFFFF DUP3 SUB PUSH2 0x1884 JUMPI PUSH2 0x1883 PUSH2 0x1818 JUMP JUMPDEST JUMPDEST PUSH1 0x1 DUP3 ADD SWAP1 POP SWAP2 SWAP1 POP JUMP JUMPDEST PUSH1 0x0 PUSH1 0x40 DUP3 ADD SWAP1 POP PUSH2 0x18A4 PUSH1 0x0 DUP4 ADD DUP6 PUSH2 0x12EC JUMP JUMPDEST PUSH2 0x18B1 PUSH1 0x20 DUP4 ADD DUP5 PUSH2 0xF29 JUMP JUMPDEST SWAP4 SWAP3 POP POP POP JUMP INVALID LOG2 PUSH5 0x6970667358 0x22 SLT KECCAK256 PUSH7 0x48F2BBF46FAC78 PUSH16 0xF64E4004B8943DA9D98CEF9A451071F1 PUSH3 0x56838B PREVRANDAO DUP10 GAS PUSH5 0x736F6C6343 STOP ADDMOD EQ STOP CALLER "
        },
        "methodIdentifiers": {
          "AUTHORITY_ROLE()": "4a3fba0e",
          "DEFAULT_ADMIN_ROLE()": "a217fddf",
          "REGISTRAR_ROLE()": "f68e9553",
          "addRegistrar(address)": "af92a693",
          "getRoleAdmin(bytes32)": "248a9ca3",
          "grantRole(bytes32,address)": "2f2ff15d",
          "hasRole(bytes32,address)": "91d14854",
          "nextPropertyId()": "39500f34",
          "properties(uint256)": "f7b10808",
          "registerProperty(address,string,string,string)": "8ae7a72e",
          "removeRegistrar(address)": "ba904eed",
          "renounceRole(bytes32,address)": "36568abe",
          "revokeRole(bytes32,address)": "d547741f",
          "supportsInterface(bytes4)": "01ffc9a7",
          "transferOwnership(uint256,address)": "29507f73"
        }
      }
    }
  }
}