{
  "_format": "hh-sol-artifact-1",
  "contractName": "TerraLedger",
  "sourceName": "contracts/TerraLedger.sol",
  "abi": [
    {
      "inputs": [],
      "stateMutability": "nonpayable",
      "type": "constructor"
    },
    {
      "inputs": [],
      "name": "AccessControlBadConfirmation",
      "type": "error"
    },
    {
      "inputs": [
        {
          "internalType": "address",
          "name": "account",
          "type": "address"
        },
        {
          "internalType": "bytes32",
          "name": "neededRole",
          "type": "bytes32"
        }
      ],
      "name": "AccessControlUnauthorizedAccount",
      "type": "error"
    },
    {
      "anonymous": false,
      "inputs": [
        {
          "indexed": true,
          "internalType": "uint256",
          "name": "propertyId",
          "type": "uint256"
        },
        {
          "indexed": true,
          "internalType": "address",
          "name": "oldOwner",
          "type": "address"
        },
        {
          "indexed": true,
          "internalType": "address",
          "name": "newOwner",
          "type": "address"
        }
      ],
      "name": "OwnershipTransferred",
      "type": "event"
    },
    {
      "anonymous": false,
      "inputs": [
        {
          "indexed": true,
          "internalType": "uint256",
          "name": "propertyId",
          "type": "uint256"
        },
        {
          "indexed": true,
          "internalType": "address",
          "name": "updatedBy",
          "type": "address"
        },
        {
          "indexed": false,
          "internalType": "string",
          "name": "newDocumentHash",
          "type": "string"
        }
      ],
      "name": "PropertyDocumentUpdated",
      "type": "event"
    },
    {
      "anonymous": false,
      "inputs": [
        {
          "indexed": true,
          "internalType": "uint256",
          "name": "propertyId",
          "type": "uint256"
        },
        {
          "indexed": true,
          "internalType": "address",
          "name": "owner",
          "type": "address"
        },
        {
          "indexed": false,
          "internalType": "string",
          "name": "location",
          "type": "string"
        },
        {
          "indexed": false,
          "internalType": "string",
          "name": "area",
          "type": "string"
        },
        {
          "indexed": false,
          "internalType": "string",
          "name": "propertyType",
          "type": "string"
        },
        {
          "indexed": false,
          "internalType": "string",
          "name": "documentHash",
          "type": "string"
        }
      ],
      "name": "PropertyRegistered",
      "type": "event"
    },
    {
      "anonymous": false,
      "inputs": [
        {
          "indexed": true,
          "internalType": "bytes32",
          "name": "role",
          "type": "bytes32"
        },
        {
          "indexed": true,
          "internalType": "bytes32",
          "name": "previousAdminRole",
          "type": "bytes32"
        },
        {
          "indexed": true,
          "internalType": "bytes32",
          "name": "newAdminRole",
          "type": "bytes32"
        }
      ],
      "name": "RoleAdminChanged",
      "type": "event"
    },
    {
      "anonymous": false,
      "inputs": [
        {
          "indexed": true,
          "internalType": "bytes32",
          "name": "role",
          "type": "bytes32"
        },
        {
          "indexed": true,
          "internalType": "address",
          "name": "account",
          "type": "address"
        },
        {
          "indexed": true,
          "internalType": "address",
          "name": "sender",
          "type": "address"
        }
      ],
      "name": "RoleGranted",
      "type": "event"
    },
    {
      "anonymous": false,
      "inputs": [
        {
          "indexed": true,
          "internalType": "bytes32",
          "name": "role",
          "type": "bytes32"
        },
        {
          "indexed": true,
          "internalType": "address",
          "name": "account",
          "type": "address"
        },
        {
          "indexed": true,
          "internalType": "address",
          "name": "sender",
          "type": "address"
        }
      ],
      "name": "RoleRevoked",
      "type": "event"
    },
    {
      "anonymous": false,
      "inputs": [
        {
          "indexed": true,
          "internalType": "uint256",
          "name": "propertyId",
          "type": "uint256"
        },
        {
          "indexed": true,
          "internalType": "address",
          "name": "owner",
          "type": "address"
        },
        {
          "indexed": true,
          "internalType": "address",
          "name": "buyer",
          "type": "address"
        }
      ],
      "name": "TransferApproved",
      "type": "event"
    },
    {
      "anonymous": false,
      "inputs": [
        {
          "indexed": true,
          "internalType": "uint256",
          "name": "propertyId",
          "type": "uint256"
        },
        {
          "indexed": true,
          "internalType": "address",
          "name": "cancelledBy",
          "type": "address"
        }
      ],
      "name": "TransferCancelled",
      "type": "event"
    },
    {
      "anonymous": false,
      "inputs": [
        {
          "indexed": true,
          "internalType": "uint256",
          "name": "propertyId",
          "type": "uint256"
        },
        {
          "indexed": true,
          "internalType": "address",
          "name": "owner",
          "type": "address"
        },
        {
          "indexed": true,
          "internalType": "address",
          "name": "buyer",
          "type": "address"
        }
      ],
      "name": "TransferRequested",
      "type": "event"
    },
    {
      "inputs": [],
      "name": "AUTHORITY_ROLE",
      "outputs": [
        {
          "internalType": "bytes32",
          "name": "",
          "type": "bytes32"
        }
      ],
      "stateMutability": "view",
      "type": "function"
    },
    {
      "inputs": [],
      "name": "DEFAULT_ADMIN_ROLE",
      "outputs": [
        {
          "internalType": "bytes32",
          "name": "",
          "type": "bytes32"
        }
      ],
      "stateMutability": "view",
      "type": "function"
    },
    {
      "inputs": [],
      "name": "REGISTRAR_ROLE",
      "outputs": [
        {
          "internalType": "bytes32",
          "name": "",
          "type": "bytes32"
        }
      ],
      "stateMutability": "view",
      "type": "function"
    },
    {
      "inputs": [
        {
          "internalType": "address",
          "name": "account",
          "type": "address"
        }
      ],
      "name": "addRegistrar",
      "outputs": [],
      "stateMutability": "nonpayable",
      "type": "function"
    },
    {
      "inputs": [
        {
          "internalType": "uint256",
          "name": "_propertyId",
          "type": "uint256"
        }
      ],
      "name": "approveTransfer",
      "outputs": [],
      "stateMutability": "nonpayable",
      "type": "function"
    },
    {
      "inputs": [
        {
          "internalType": "uint256",
          "name": "_propertyId",
          "type": "uint256"
        }
      ],
      "name": "cancelTransfer",
      "outputs": [],
      "stateMutability": "nonpayable",
      "type": "function"
    },
    {
      "inputs": [
        {
          "internalType": "bytes32",
          "name": "role",
          "type": "bytes32"
        }
      ],
      "name": "getRoleAdmin",
      "outputs": [
        {
          "internalType": "bytes32",
          "name": "",
          "type": "bytes32"
        }
      ],
      "stateMutability": "view",
      "type": "function"
    },
    {
      "inputs": [
        {
          "internalType": "bytes32",
          "name": "role",
          "type": "bytes32"
        },
        {
          "internalType": "address",
          "name": "account",
          "type": "address"
        }
      ],
      "name": "grantRole",
      "outputs": [],
      "stateMutability": "nonpayable",
      "type": "function"
    },
    {
      "inputs": [
        {
          "internalType": "bytes32",
          "name": "role",
          "type": "bytes32"
        },
        {
          "internalType": "address",
          "name": "account",
          "type": "address"
        }
      ],
      "name": "hasRole",
      "outputs": [
        {
          "internalType": "bool",
          "name": "",
          "type": "bool"
        }
      ],
      "stateMutability": "view",
      "type": "function"
    },
    {
      "inputs": [],
      "name": "nextPropertyId",
      "outputs": [
        {
          "internalType": "uint256",
          "name": "",
          "type": "uint256"
        }
      ],
      "stateMutability": "view",
      "type": "function"
    },
    {
      "inputs": [
        {
          "internalType": "uint256",
          "name": "",
          "type": "uint256"
        }
      ],
      "name": "properties",
      "outputs": [
        {
          "internalType": "uint256",
          "name": "propertyId",
          "type": "uint256"
        },
        {
          "internalType": "address",
          "name": "owner",
          "type": "address"
        },
        {
          "internalType": "string",
          "name": "location",
          "type": "string"
        },
        {
          "internalType": "string",
          "name": "area",
          "type": "string"
        },
        {
          "internalType": "string",
          "name": "propertyType",
          "type": "string"
        },
        {
          "internalType": "string",
          "name": "documentHash",
          "type": "string"
        },
        {
          "internalType": "bool",
          "name": "isRegistered",
          "type": "bool"
        }
      ],
      "stateMutability": "view",
      "type": "function"
    },
    {
      "inputs": [
        {
          "internalType": "address",
          "name": "_propertyOwner",
          "type": "address"
        },
        {
          "internalType": "string",
          "name": "_location",
          "type": "string"
        },
        {
          "internalType": "string",
          "name": "_area",
          "type": "string"
        },
        {
          "internalType": "string",
          "name": "_propertyType",
          "type": "string"
        },
        {
          "internalType": "string",
          "name": "_documentHash",
          "type": "string"
        }
      ],
      "name": "registerProperty",
      "outputs": [],
      "stateMutability": "nonpayable",
      "type": "function"
    },
    {
      "inputs": [
        {
          "internalType": "address",
          "name": "account",
          "type": "address"
        }
      ],
      "name": "removeRegistrar",
      "outputs": [],
      "stateMutability": "nonpayable",
      "type": "function"
    },
    {
      "inputs": [
        {
          "internalType": "bytes32",
          "name": "role",
          "type": "bytes32"
        },
        {
          "internalType": "address",
          "name": "callerConfirmation",
          "type": "address"
        }
      ],
      "name": "renounceRole",
      "outputs": [],
      "stateMutability": "nonpayable",
      "type": "function"
    },
    {
      "inputs": [
        {
          "internalType": "uint256",
          "name": "_propertyId",
          "type": "uint256"
        },
        {
          "internalType": "address",
          "name": "_buyer",
          "type": "address"
        }
      ],
      "name": "requestTransfer",
      "outputs": [],
      "stateMutability": "nonpayable",
      "type": "function"
    },
    {
      "inputs": [
        {
          "internalType": "bytes32",
          "name": "role",
          "type": "bytes32"
        },
        {
          "internalType": "address",
          "name": "account",
          "type": "address"
        }
      ],
      "name": "revokeRole",
      "outputs": [],
      "stateMutability": "nonpayable",
      "type": "function"
    },
    {
      "inputs": [
        {
          "internalType": "bytes4",
          "name": "interfaceId",
          "type": "bytes4"
        }
      ],
      "name": "supportsInterface",
      "outputs": [
        {
          "internalType": "bool",
          "name": "",
          "type": "bool"
        }
      ],
      "stateMutability": "view",
      "type": "function"
    },
    {
      "inputs": [
        {
          "internalType": "uint256",
          "name": "",
          "type": "uint256"
        }
      ],
      "name": "transferRequests",
      "outputs": [
        {
          "internalType": "address",
          "name": "buyer",
          "type": "address"
        },
        {
          "internalType": "bool",
          "name": "pending",
          "type": "bool"
        }
      ],
      "stateMutability": "view",
      "type": "function"
    },
    {
      "inputs": [
        {
          "internalType": "uint256",
          "name": "_propertyId",
          "type": "uint256"
        },
        {
          "internalType": "string",
          "name": "_newDocumentHash",
          "type": "string"
        }
      ],
      "name": "updatePropertyDocument",
      "outputs": [],
      "stateMutability": "nonpayable",
      "type": "function"
    }
  ],
  "bytecode": "0x608060405260016003553480156200001657600080fd5b50620000246000336200008d565b5062000040600080516020620016aa833981519152336200008d565b506200005c600080516020620016ca833981519152336200008d565b5062000087600080516020620016ca833981519152600080516020620016aa8339815191526200013c565b62000187565b6000828152602081815260408083206001600160a01b038516845290915281205460ff1662000132576000838152602081815260408083206001600160a01b03861684529091529020805460ff19166001179055620000e93390565b6001600160a01b0316826001600160a01b0316847f2f8788117e7eff1d82e926ec794901d17c78024a50270940304540a733656f0d60405160405180910390a450600162000136565b5060005b92915050565b600082815260208190526040808220600101805490849055905190918391839186917fbd79b86ffe0ab8e8776151514217cd7cacd52c909f66475c3af44e129f0b00ff9190a4505050565b61151380620001976000396000f3fe608060405234801561001057600080fd5b50600436106101215760003560e01c806359caecb5116100ad578063cacca4a011610071578063cacca4a0146102a5578063d547741f146102b8578063f68e9553146102cb578063f7b10808146102e0578063fad01ff81461030657600080fd5b806359caecb51461025157806391d1485414610264578063a217fddf14610277578063af92a6931461027f578063ba904eed1461029257600080fd5b806336568abe116100f457806336568abe146101e857806339500f34146101fb578063403442321461020457806344435e7e146102175780634a3fba0e1461022a57600080fd5b806301ffc9a71461012657806303486c401461014e578063248a9ca3146101a25780632f2ff15d146101d3575b600080fd5b610139610134366004610fcd565b610319565b60405190151581526020015b60405180910390f35b61018361015c366004610ffe565b6002602052600090815260409020546001600160a01b03811690600160a01b900460ff1682565b604080516001600160a01b039093168352901515602083015201610145565b6101c56101b0366004610ffe565b60009081526020819052604090206001015490565b604051908152602001610145565b6101e66101e1366004611033565b610350565b005b6101e66101f6366004611033565b61037b565b6101c560035481565b6101e6610212366004611033565b6103b3565b6101e6610225366004611102565b6105b2565b6101c57fd565e3fc066df348a5cbc05a8d6323e00552838041cea2d84cc59876ba37735d81565b6101e661025f366004610ffe565b6107ff565b610139610272366004611033565b61092f565b6101c5600081565b6101e661028d3660046111c0565b610958565b6101e66102a03660046111c0565b61099e565b6101e66102b3366004610ffe565b6109e0565b6101e66102c6366004611033565b610b25565b6101c56000805160206114be83398151915281565b6102f36102ee366004610ffe565b610b4a565b6040516101459796959493929190611221565b6101e661031436600461129c565b610db3565b60006001600160e01b03198216637965db0b60e01b148061034a57506301ffc9a760e01b6001600160e01b03198316145b92915050565b60008281526020819052604090206001015461036b81610e8a565b6103758383610e97565b50505050565b6001600160a01b03811633146103a45760405163334bd91960e11b815260040160405180910390fd5b6103ae8282610f29565b505050565b6000828152600160205260409020600681015460ff166104155760405162461bcd60e51b8152602060048201526018602482015277283937b832b93a3c903237b2b9903737ba1032bc34b9ba1760411b60448201526064015b60405180910390fd5b60018101546001600160a01b031633146104815760405162461bcd60e51b815260206004820152602760248201527f596f7520617265206e6f7420746865206f776e6572206f66207468697320707260448201526637b832b93a3c9760c91b606482015260840161040c565b6001600160a01b0382166104d05760405162461bcd60e51b815260206004820152601660248201527524b73b30b634b210313abcb2b91030b2323932b9b99760511b604482015260640161040c565b60018101546001600160a01b03908116908316036105305760405162461bcd60e51b815260206004820152601860248201527f43616e6e6f74207472616e7366657220746f2073656c662e0000000000000000604482015260640161040c565b6040805180820182526001600160a01b0380851680835260016020808501918252600089815260029091528581209451855492511515600160a01b026001600160a81b03199093169416939093171790925591519091339186917fad86e5395107a44c23ae10207c8807efe6cd1bfc2980d8c2bcab8f3a24daccd191a4505050565b6000805160206114be8339815191526105ca81610e8a565b6001600160a01b0386166106195760405162461bcd60e51b815260206004820152601660248201527524b73b30b634b21037bbb732b91030b2323932b9b99760511b604482015260640161040c565b600085511161066a5760405162461bcd60e51b815260206004820152601960248201527f4c6f636174696f6e2063616e6e6f7420626520656d7074792e00000000000000604482015260640161040c565b60008451116106b35760405162461bcd60e51b815260206004820152601560248201527420b932b09031b0b73737ba1031329032b6b83a3c9760591b604482015260640161040c565b6003546040805160e0810182528281526001600160a01b0389811660208084019182528385018b8152606085018b9052608085018a905260a08501899052600160c086018190526000888152928190529590912084518155915194820180546001600160a01b03191695909316949094179091559151909190600282019061073b908261136b565b5060608201516003820190610750908261136b565b5060808201516004820190610765908261136b565b5060a0820151600582019061077a908261136b565b5060c091909101516006909101805460ff19169115159190911790556040516001600160a01b0388169082907f89b8abf8448a723120191240550eaa60794f372e3cfa10f8f231da0ad0d8e468906107d9908a908a908a908a9061142b565b60405180910390a3600380549060006107f183611483565b919050555050505050505050565b6000818152600160208190526040909120908101546001600160a01b031633148061083d575061083d6000805160206114be8339815191523361092f565b6108895760405162461bcd60e51b815260206004820152601760248201527f4e6f74206f776e6572206f72207265676973747261722e000000000000000000604482015260640161040c565b600082815260026020526040902054600160a01b900460ff166108e55760405162461bcd60e51b81526020600482015260146024820152732737903832b73234b733903a3930b739b332b91760611b604482015260640161040c565b60008281526002602052604080822080546001600160a81b031916905551339184917fad5d1da63a71147a146daa2d4c6cdc9ab57b00bd41306f855d0afe41c5ed28409190a35050565b6000918252602082815260408084206001600160a01b0393909316845291905290205460ff1690565b7fd565e3fc066df348a5cbc05a8d6323e00552838041cea2d84cc59876ba37735d61098281610e8a565b61099a6000805160206114be83398151915283610350565b5050565b7fd565e3fc066df348a5cbc05a8d6323e00552838041cea2d84cc59876ba37735d6109c881610e8a565b61099a6000805160206114be83398151915283610b25565b6000805160206114be8339815191526109f881610e8a565b60008281526002602052604090208054600160a01b900460ff16610a5e5760405162461bcd60e51b815260206004820152601c60248201527f4e6f2070656e64696e67207472616e7366657220726571756573742e00000000604482015260640161040c565b6000838152600160208181526040808420928301805486546001600160a01b039081166001600160a01b031983168117909355600290945282862080546001600160a81b031916905591519394929091169290918291849189917f46f832fce5ed185c63ebb7f10c809c6ecbe7c0e49554433903d83d6dceef88f79190a4806001600160a01b0316826001600160a01b0316877f16b85f49bf01212961345d3016c9a531894accf62eb7680f2045d79185cc0ec060405160405180910390a4505050505050565b600082815260208190526040902060010154610b4081610e8a565b6103758383610f29565b60016020819052600091825260409091208054918101546002820180546001600160a01b039092169291610b7d906112e3565b80601f0160208091040260200160405190810160405280929190818152602001828054610ba9906112e3565b8015610bf65780601f10610bcb57610100808354040283529160200191610bf6565b820191906000526020600020905b815481529060010190602001808311610bd957829003601f168201915b505050505090806003018054610c0b906112e3565b80601f0160208091040260200160405190810160405280929190818152602001828054610c37906112e3565b8015610c845780601f10610c5957610100808354040283529160200191610c84565b820191906000526020600020905b815481529060010190602001808311610c6757829003601f168201915b505050505090806004018054610c99906112e3565b80601f0160208091040260200160405190810160405280929190818152602001828054610cc5906112e3565b8015610d125780601f10610ce757610100808354040283529160200191610d12565b820191906000526020600020905b815481529060010190602001808311610cf557829003601f168201915b505050505090806005018054610d27906112e3565b80601f0160208091040260200160405190810160405280929190818152602001828054610d53906112e3565b8015610da05780601f10610d7557610100808354040283529160200191610da0565b820191906000526020600020905b815481529060010190602001808311610d8357829003601f168201915b5050506006909301549192505060ff1687565b6000805160206114be833981519152610dcb81610e8a565b60008381526001602052604090206006015460ff16610e275760405162461bcd60e51b8152602060048201526018602482015277283937b832b93a3c903237b2b9903737ba1032bc34b9ba1760411b604482015260640161040c565b6000838152600160205260409020600501610e42838261136b565b50336001600160a01b0316837f43e4a34b0d0ae1397d5f0de7c4d7d38a8244bf08da4db5e3e760a6b47608898f84604051610e7d91906114aa565b60405180910390a3505050565b610e948133610f94565b50565b6000610ea3838361092f565b610f21576000838152602081815260408083206001600160a01b03861684529091529020805460ff19166001179055610ed93390565b6001600160a01b0316826001600160a01b0316847f2f8788117e7eff1d82e926ec794901d17c78024a50270940304540a733656f0d60405160405180910390a450600161034a565b50600061034a565b6000610f35838361092f565b15610f21576000838152602081815260408083206001600160a01b0386168085529252808320805460ff1916905551339286917ff6391f5c32d9c69d2a47ea670b442974b53935d1edc7fd64eb21e047a839171b9190a450600161034a565b610f9e828261092f565b61099a5760405163e2517d3f60e01b81526001600160a01b03821660048201526024810183905260440161040c565b600060208284031215610fdf57600080fd5b81356001600160e01b031981168114610ff757600080fd5b9392505050565b60006020828403121561101057600080fd5b5035919050565b80356001600160a01b038116811461102e57600080fd5b919050565b6000806040838503121561104657600080fd5b8235915061105660208401611017565b90509250929050565b634e487b7160e01b600052604160045260246000fd5b600082601f83011261108657600080fd5b813567ffffffffffffffff808211156110a1576110a161105f565b604051601f8301601f19908116603f011681019082821181831017156110c9576110c961105f565b816040528381528660208588010111156110e257600080fd5b836020870160208301376000602085830101528094505050505092915050565b600080600080600060a0868803121561111a57600080fd5b61112386611017565b9450602086013567ffffffffffffffff8082111561114057600080fd5b61114c89838a01611075565b9550604088013591508082111561116257600080fd5b61116e89838a01611075565b9450606088013591508082111561118457600080fd5b61119089838a01611075565b935060808801359150808211156111a657600080fd5b506111b388828901611075565b9150509295509295909350565b6000602082840312156111d257600080fd5b610ff782611017565b6000815180845260005b81811015611201576020818501810151868301820152016111e5565b506000602082860101526020601f19601f83011685010191505092915050565b8781526001600160a01b038716602082015260e06040820181905260009061124b908301886111db565b828103606084015261125d81886111db565b9050828103608084015261127181876111db565b905082810360a084015261128581866111db565b91505082151560c083015298975050505050505050565b600080604083850312156112af57600080fd5b82359150602083013567ffffffffffffffff8111156112cd57600080fd5b6112d985828601611075565b9150509250929050565b600181811c908216806112f757607f821691505b60208210810361131757634e487b7160e01b600052602260045260246000fd5b50919050565b601f8211156103ae57600081815260208120601f850160051c810160208610156113445750805b601f850160051c820191505b8181101561136357828155600101611350565b505050505050565b815167ffffffffffffffff8111156113855761138561105f565b6113998161139384546112e3565b8461131d565b602080601f8311600181146113ce57600084156113b65750858301515b600019600386901b1c1916600185901b178555611363565b600085815260208120601f198616915b828110156113fd578886015182559484019460019091019084016113de565b508582101561141b5787850151600019600388901b60f8161c191681555b5050505050600190811b01905550565b60808152600061143e60808301876111db565b828103602084015261145081876111db565b9050828103604084015261146481866111db565b9050828103606084015261147881856111db565b979650505050505050565b6000600182016114a357634e487b7160e01b600052601160045260246000fd5b5060010190565b602081526000610ff760208301846111db56feedcc084d3dcd65a1f7f23c65c46722faca6953d28e43150a467cf43e5c309238a264697066735822122048153e5f86dfaeda5d7cf576ba3c24e530475cbbd79949aa6ace5bceb61c8b3764736f6c63430008140033d565e3fc066df348a5cbc05a8d6323e00552838041cea2d84cc59876ba37735dedcc084d3dcd65a1f7f23c65c46722faca6953d28e43150a467cf43e5c309238",
  "linkReferences": {},
  "deployedLinkReferences": {}
}