{
  "_format": "hh-sol-artifact-1",
  "contractName": "TerraLedger",
  "sourceName": "contracts/TerraLedger.sol",
  "abi": [
    {
      "inputs": [],
      "stateMutability": "nonpayable",
      "type": "constructor"
    },
    {
      "inputs": [],
      "name": "AccessControlBadConfirmation",
      "type": "error"
    },
    {
      "inputs": [
        {
          "internalType": "address",
          "name": "account",
          "type": "address"
        },
        {
          "internalType": "bytes32",
          "name": "neededRole",
          "type": "bytes32"
        }
      ],
      "name": "AccessControlUnauthorizedAccount",
      "type": "error"
    },
    {
      "anonymous": false,
      "inputs": [
        {
          "indexed": true,
          "internalType": "uint256",
          "name": "propertyId",
          "type": "uint256"
        },
        {
          "indexed": true,
          "internalType": "address",
          "name": "oldOwner",
          "type": "address"
        },
        {
          "indexed": true,
          "internalType": "address",
          "name": "newOwner",
          "type": "address"
        }
      ],
      "name": "OwnershipTransferred",
      "type": "event"
    },
    {
      "anonymous": false,
      "inputs": [
        {
          "indexed": true,
          "internalType": "uint256",
          "name": "propertyId",
          "type": "uint256"
        },
        {
          "indexed": true,
          "internalType": "address",
          "name": "updatedBy",
          "type": "address"
        },
        {
          "indexed": false,
          "internalType": "string",
          "name": "newDocumentHash",
          "type": "string"
        }
      ],
      "name": "PropertyDocumentUpdated",
      "type": "event"
    },
    {
      "anonymous": false,
      "inputs": [
        {
          "indexed": true,
          "internalType": "uint256",
          "name": "propertyId",
          "type": "uint256"
        },
        {
          "indexed": true,
          "internalType": "address",
          "name": "owner",
          "type": "address"
        },
        {
          "indexed": false,
          "internalType": "string",
          "name": "location",
          "type": "string"
        },
        {
          "indexed": false,
          "internalType": "string",
          "name": "area",
          "type": "string"
        },
        {
          "indexed": false,
          "internalType": "string",
          "name": "propertyType",
          "type": "string"
        },
        {
          "indexed": false,
          "internalType": "string",
          "name": "documentHash",
          "type": "string"
        }
      ],
      "name": "PropertyRegistered",
      "type": "event"
    },
    {
      "anonymous": false,
      "inputs": [
        {
          "indexed": true,
          "internalType": "bytes32",
          "name": "role",
          "type": "bytes32"
        },
        {
          "indexed": true,
          "internalType": "bytes32",
          "name": "previousAdminRole",
          "type": "bytes32"
        },
        {
          "indexed": true,
          "internalType": "bytes32",
          "name": "newAdminRole",
          "type": "bytes32"
        }
      ],
      "name": "RoleAdminChanged",
      "type": "event"
    },
    {
      "anonymous": false,
      "inputs": [
        {
          "indexed": true,
          "internalType": "bytes32",
          "name": "role",
          "type": "bytes32"
        },
        {
          "indexed": true,
          "internalType": "address",
          "name": "account",
          "type": "address"
        },
        {
          "indexed": true,
          "internalType": "address",
          "name": "sender",
          "type": "address"
        }
      ],
      "name": "RoleGranted",
      "type": "event"
    },
    {
      "anonymous": false,
      "inputs": [
        {
          "indexed": true,
          "internalType": "bytes32",
          "name": "role",
          "type": "bytes32"
        },
        {
          "indexed": true,
          "internalType": "address",
          "name": "account",
          "type": "address"
        },
        {
          "indexed": true,
          "internalType": "address",
          "name": "sender",
          "type": "address"
        }
      ],
      "name": "RoleRevoked",
      "type": "event"
    },
    {
      "anonymous": false,
      "inputs": [
        {
          "indexed": true,
          "internalType": "uint256",
          "name": "propertyId",
          "type": "uint256"
        },
        {
          "indexed": true,
          "internalType": "address",
          "name": "owner",
          "type": "address"
        },
        {
          "indexed": true,
          "internalType": "address",
          "name": "buyer",
          "type": "address"
        }
      ],
      "name": "TransferApproved",
      "type": "event"
    },
    {
      "anonymous": false,
      "inputs": [
        {
          "indexed": true,
          "internalType": "uint256",
          "name": "propertyId",
          "type": "uint256"
        },
        {
          "indexed": true,
          "internalType": "address",
          "name": "owner",
          "type": "address"
        },
        {
          "indexed": true,
          "internalType": "address",
          "name": "buyer",
          "type": "address"
        }
      ],
      "name": "TransferRequested",
      "type": "event"
    },
    {
      "inputs": [],
      "name": "AUTHORITY_ROLE",
      "outputs": [
        {
          "internalType": "bytes32",
          "name": "",
          "type": "bytes32"
        }
      ],
      "stateMutability": "view",
      "type": "function"
    },
    {
      "inputs": [],
      "name": "DEFAULT_ADMIN_ROLE",
      "outputs": [
        {
          "internalType": "bytes32",
          "name": "",
          "type": "bytes32"
        }
      ],
      "stateMutability": "view",
      "type": "function"
    },
    {
      "inputs": [],
      "name": "REGISTRAR_ROLE",
      "outputs": [
        {
          "internalType": "bytes32",
          "name": "",
          "type": "bytes32"
        }
      ],
      "stateMutability": "view",
      "type": "function"
    },
    {
      "inputs": [
        {
          "internalType": "address",
          "name": "account",
          "type": "address"
        }
      ],
      "name": "addRegistrar",
      "outputs": [],
      "stateMutability": "nonpayable",
      "type": "function"
    },
    {
      "inputs": [
        {
          "internalType": "uint256",
          "name": "_propertyId",
          "type": "uint256"
        }
      ],
      "name": "approveTransfer",
      "outputs": [],
      "stateMutability": "nonpayable",
      "type": "function"
    },
    {
      "inputs": [
        {
          "internalType": "uint256",
          "name": "_propertyId",
          "type": "uint256"
        }
      ],
      "name": "cancelTransfer",
      "outputs": [],
      "stateMutability": "nonpayable",
      "type": "function"
    },
    {
      "inputs": [
        {
          "internalType": "bytes32",
          "name": "role",
          "type": "bytes32"
        }
      ],
      "name": "getRoleAdmin",
      "outputs": [
        {
          "internalType": "bytes32",
          "name": "",
          "type": "bytes32"
        }
      ],
      "stateMutability": "view",
      "type": "function"
    },
    {
      "inputs": [
        {
          "internalType": "bytes32",
          "name": "role",
          "type": "bytes32"
        },
        {
          "internalType": "address",
          "name": "account",
          "type": "address"
        }
      ],
      "name": "grantRole",
      "outputs": [],
      "stateMutability": "nonpayable",
      "type": "function"
    },
    {
      "inputs": [
        {
          "internalType": "bytes32",
          "name": "role",
          "type": "bytes32"
        },
        {
          "internalType": "address",
          "name": "account",
          "type": "address"
        }
      ],
      "name": "hasRole",
      "outputs": [
        {
          "internalType": "bool",
          "name": "",
          "type": "bool"
        }
      ],
      "stateMutability": "view",
      "type": "function"
    },
    {
      "inputs": [],
      "name": "nextPropertyId",
      "outputs": [
        {
          "internalType": "uint256",
          "name": "",
          "type": "uint256"
        }
      ],
      "stateMutability": "view",
      "type": "function"
    },
    {
      "inputs": [
        {
          "internalType": "uint256",
          "name": "",
          "type": "uint256"
        }
      ],
      "name": "properties",
      "outputs": [
        {
          "internalType": "uint256",
          "name": "propertyId",
          "type": "uint256"
        },
        {
          "internalType": "address",
          "name": "owner",
          "type": "address"
        },
        {
          "internalType": "string",
          "name": "location",
          "type": "string"
        },
        {
          "internalType": "string",
          "name": "area",
          "type": "string"
        },
        {
          "internalType": "string",
          "name": "propertyType",
          "type": "string"
        },
        {
          "internalType": "string",
          "name": "documentHash",
          "type": "string"
        },
        {
          "internalType": "bool",
          "name": "isRegistered",
          "type": "bool"
        }
      ],
      "stateMutability": "view",
      "type": "function"
    },
    {
      "inputs": [
        {
          "internalType": "address",
          "name": "_propertyOwner",
          "type": "address"
        },
        {
          "internalType": "string",
          "name": "_location",
          "type": "string"
        },
        {
          "internalType": "string",
          "name": "_area",
          "type": "string"
        },
        {
          "internalType": "string",
          "name": "_propertyType",
          "type": "string"
        },
        {
          "internalType": "string",
          "name": "_documentHash",
          "type": "string"
        }
      ],
      "name": "registerProperty",
      "outputs": [],
      "stateMutability": "nonpayable",
      "type": "function"
    },
    {
      "inputs": [
        {
          "internalType": "address",
          "name": "account",
          "type": "address"
        }
      ],
      "name": "removeRegistrar",
      "outputs": [],
      "stateMutability": "nonpayable",
      "type": "function"
    },
    {
      "inputs": [
        {
          "internalType": "bytes32",
          "name": "role",
          "type": "bytes32"
        },
        {
          "internalType": "address",
          "name": "callerConfirmation",
          "type": "address"
        }
      ],
      "name": "renounceRole",
      "outputs": [],
      "stateMutability": "nonpayable",
      "type": "function"
    },
    {
      "inputs": [
        {
          "internalType": "uint256",
          "name": "_propertyId",
          "type": "uint256"
        },
        {
          "internalType": "address",
          "name": "_buyer",
          "type": "address"
        }
      ],
      "name": "requestTransfer",
      "outputs": [],
      "stateMutability": "nonpayable",
      "type": "function"
    },
    {
      "inputs": [
        {
          "internalType": "bytes32",
          "name": "role",
          "type": "bytes32"
        },
        {
          "internalType": "address",
          "name": "account",
          "type": "address"
        }
      ],
      "name": "revokeRole",
      "outputs": [],
      "stateMutability": "nonpayable",
      "type": "function"
    },
    {
      "inputs": [
        {
          "internalType": "bytes4",
          "name": "interfaceId",
          "type": "bytes4"
        }
      ],
      "name": "supportsInterface",
      "outputs": [
        {
          "internalType": "bool",
          "name": "",
          "type": "bool"
        }
      ],
      "stateMutability": "view",
      "type": "function"
    },
    {
      "inputs": [
        {
          "internalType": "uint256",
          "name": "",
          "type": "uint256"
        }
      ],
      "name": "transferRequests",
      "outputs": [
        {
          "internalType": "address",
          "name": "buyer",
          "type": "address"
        },
        {
          "internalType": "bool",
          "name": "pending",
          "type": "bool"
        }
      ],
      "stateMutability": "view",
      "type": "function"
    },
    {
      "inputs": [
        {
          "internalType": "uint256",
          "name": "_propertyId",
          "type": "uint256"
        },
        {
          "internalType": "string",
          "name": "_newDocumentHash",
          "type": "string"
        }
      ],
      "name": "updatePropertyDocument",
      "outputs": [],
      "stateMutability": "nonpayable",
      "type": "function"
    }
  ],
  "bytecode": "0x608060405260016003553480156200001657600080fd5b506200002c6000801b336200009960201b60201c565b506200005f7fd565e3fc066df348a5cbc05a8d6323e00552838041cea2d84cc59876ba37735d336200009960201b60201c565b50620000927fedcc084d3dcd65a1f7f23c65c46722faca6953d28e43150a467cf43e5c309238336200009960201b60201c565b506200020e565b6000620000ad83836200019c60201b60201c565b6200019157600160008085815260200190815260200160002060000160008473ffffffffffffffffffffffffffffffffffffffff1673ffffffffffffffffffffffffffffffffffffffff16815260200190815260200160002060006101000a81548160ff0219169083151502179055506200012d6200020660201b60201c565b73ffffffffffffffffffffffffffffffffffffffff168273ffffffffffffffffffffffffffffffffffffffff16847f2f8788117e7eff1d82e926ec794901d17c78024a50270940304540a733656f0d60405160405180910390a46001905062000196565b600090505b92915050565b600080600084815260200190815260200160002060000160008373ffffffffffffffffffffffffffffffffffffffff1673ffffffffffffffffffffffffffffffffffffffff16815260200190815260200160002060009054906101000a900460ff16905092915050565b600033905090565b612388806200021e6000396000f3fe608060405234801561001057600080fd5b50600436106101215760003560e01c806359caecb5116100ad578063cacca4a011610071578063cacca4a014610305578063d547741f14610321578063f68e95531461033d578063f7b108081461035b578063fad01ff81461039157610121565b806359caecb51461026357806391d148541461027f578063a217fddf146102af578063af92a693146102cd578063ba904eed146102e957610121565b806336568abe116100f457806336568abe146101d357806339500f34146101ef578063403442321461020d57806344435e7e146102295780634a3fba0e1461024557610121565b806301ffc9a71461012657806303486c4014610156578063248a9ca3146101875780632f2ff15d146101b7575b600080fd5b610140600480360381019061013b91906115e0565b6103ad565b60405161014d9190611628565b60405180910390f35b610170600480360381019061016b9190611679565b610427565b60405161017e9291906116e7565b60405180910390f35b6101a1600480360381019061019c9190611746565b610478565b6040516101ae9190611782565b60405180910390f35b6101d160048036038101906101cc91906117c9565b610497565b005b6101ed60048036038101906101e891906117c9565b6104b9565b005b6101f7610534565b6040516102049190611818565b60405180910390f35b61022760048036038101906102229190611833565b61053a565b005b610243600480360381019061023e91906119b9565b610840565b005b61024d610a12565b60405161025a9190611782565b60405180910390f35b61027d60048036038101906102789190611679565b610a36565b005b610299600480360381019061029491906117c9565b610ba6565b6040516102a69190611628565b60405180910390f35b6102b7610c10565b6040516102c49190611782565b60405180910390f35b6102e760048036038101906102e29190611aa4565b610c17565b005b61030360048036038101906102fe9190611aa4565b610c6f565b005b61031f600480360381019061031a9190611679565b610cc7565b005b61033b600480360381019061033691906117c9565b610ee0565b005b610345610f02565b6040516103529190611782565b60405180910390f35b61037560048036038101906103709190611679565b610f26565b6040516103889796959493929190611b50565b60405180910390f35b6103ab60048036038101906103a69190611bdb565b6111b5565b005b60007f7965db0b000000000000000000000000000000000000000000000000000000007bffffffffffffffffffffffffffffffffffffffffffffffffffffffff1916827bffffffffffffffffffffffffffffffffffffffffffffffffffffffff19161480610420575061041f826112ba565b5b9050919050565b60026020528060005260406000206000915090508060000160009054906101000a900473ffffffffffffffffffffffffffffffffffffffff16908060000160149054906101000a900460ff16905082565b6000806000838152602001908152602001600020600101549050919050565b6104a082610478565b6104a981611324565b6104b38383611338565b50505050565b6104c1611429565b73ffffffffffffffffffffffffffffffffffffffff168173ffffffffffffffffffffffffffffffffffffffff1614610525576040517f6697b23200000000000000000000000000000000000000000000000000000000815260040160405180910390fd5b61052f8282611431565b505050565b60035481565b60006001600084815260200190815260200160002090508060060160009054906101000a900460ff166105a2576040517f08c379a000000000000000000000000000000000000000000000000000000000815260040161059990611c83565b60405180910390fd5b8060010160009054906101000a900473ffffffffffffffffffffffffffffffffffffffff1673ffffffffffffffffffffffffffffffffffffffff163373ffffffffffffffffffffffffffffffffffffffff1614610634576040517f08c379a000000000000000000000000000000000000000000000000000000000815260040161062b90611d15565b60405180910390fd5b600073ffffffffffffffffffffffffffffffffffffffff168273ffffffffffffffffffffffffffffffffffffffff16036106a3576040517f08c379a000000000000000000000000000000000000000000000000000000000815260040161069a90611d81565b60405180910390fd5b8060010160009054906101000a900473ffffffffffffffffffffffffffffffffffffffff1673ffffffffffffffffffffffffffffffffffffffff168273ffffffffffffffffffffffffffffffffffffffff1603610735576040517f08c379a000000000000000000000000000000000000000000000000000000000815260040161072c90611ded565b60405180910390fd5b60405180604001604052808373ffffffffffffffffffffffffffffffffffffffff168152602001600115158152506002600085815260200190815260200160002060008201518160000160006101000a81548173ffffffffffffffffffffffffffffffffffffffff021916908373ffffffffffffffffffffffffffffffffffffffff16021790555060208201518160000160146101000a81548160ff0219169083151502179055509050508173ffffffffffffffffffffffffffffffffffffffff163373ffffffffffffffffffffffffffffffffffffffff16847fad86e5395107a44c23ae10207c8807efe6cd1bfc2980d8c2bcab8f3a24daccd160405160405180910390a4505050565b7fedcc084d3dcd65a1f7f23c65c46722faca6953d28e43150a467cf43e5c30923861086a81611324565b600060035490506040518060e001604052808281526020018873ffffffffffffffffffffffffffffffffffffffff16815260200187815260200186815260200185815260200184815260200160011515815250600160008381526020019081526020016000206000820151816000015560208201518160010160006101000a81548173ffffffffffffffffffffffffffffffffffffffff021916908373ffffffffffffffffffffffffffffffffffffffff16021790555060408201518160020190816109369190612019565b50606082015181600301908161094c9190612019565b5060808201518160040190816109629190612019565b5060a08201518160050190816109789190612019565b5060c08201518160060160006101000a81548160ff0219169083151502179055509050508673ffffffffffffffffffffffffffffffffffffffff16817f89b8abf8448a723120191240550eaa60794f372e3cfa10f8f231da0ad0d8e468888888886040516109e994939291906120eb565b60405180910390a360036000815480929190610a049061217b565b919050555050505050505050565b7fd565e3fc066df348a5cbc05a8d6323e00552838041cea2d84cc59876ba37735d81565b60006001600083815260200190815260200160002090508060010160009054906101000a900473ffffffffffffffffffffffffffffffffffffffff1673ffffffffffffffffffffffffffffffffffffffff163373ffffffffffffffffffffffffffffffffffffffff161480610ad15750610ad07fedcc084d3dcd65a1f7f23c65c46722faca6953d28e43150a467cf43e5c30923833610ba6565b5b610b10576040517f08c379a0000000000000000000000000000000000000000000000000000000008152600401610b079061220f565b60405180910390fd5b6002600083815260200190815260200160002060000160149054906101000a900460ff16610b73576040517f08c379a0000000000000000000000000000000000000000000000000000000008152600401610b6a9061227b565b60405180910390fd5b60006002600084815260200190815260200160002060000160146101000a81548160ff0219169083151502179055505050565b600080600084815260200190815260200160002060000160008373ffffffffffffffffffffffffffffffffffffffff1673ffffffffffffffffffffffffffffffffffffffff16815260200190815260200160002060009054906101000a900460ff16905092915050565b6000801b81565b7fd565e3fc066df348a5cbc05a8d6323e00552838041cea2d84cc59876ba37735d610c4181611324565b610c6b7fedcc084d3dcd65a1f7f23c65c46722faca6953d28e43150a467cf43e5c30923883610497565b5050565b7fd565e3fc066df348a5cbc05a8d6323e00552838041cea2d84cc59876ba37735d610c9981611324565b610cc37fedcc084d3dcd65a1f7f23c65c46722faca6953d28e43150a467cf43e5c30923883610ee0565b5050565b7fedcc084d3dcd65a1f7f23c65c46722faca6953d28e43150a467cf43e5c309238610cf181611324565b60006002600084815260200190815260200160002090508060000160149054906101000a900460ff16610d59576040517f08c379a0000000000000000000000000000000000000000000000000000000008152600401610d50906122e7565b60405180910390fd5b600060016000858152602001908152602001600020905060008160010160009054906101000a900473ffffffffffffffffffffffffffffffffffffffff16905060008360000160009054906101000a900473ffffffffffffffffffffffffffffffffffffffff169050808360010160006101000a81548173ffffffffffffffffffffffffffffffffffffffff021916908373ffffffffffffffffffffffffffffffffffffffff16021790555060008460000160146101000a81548160ff0219169083151502179055508073ffffffffffffffffffffffffffffffffffffffff168273ffffffffffffffffffffffffffffffffffffffff16877f46f832fce5ed185c63ebb7f10c809c6ecbe7c0e49554433903d83d6dceef88f760405160405180910390a48073ffffffffffffffffffffffffffffffffffffffff168273ffffffffffffffffffffffffffffffffffffffff16877f16b85f49bf01212961345d3016c9a531894accf62eb7680f2045d79185cc0ec060405160405180910390a4505050505050565b610ee982610478565b610ef281611324565b610efc8383611431565b50505050565b7fedcc084d3dcd65a1f7f23c65c46722faca6953d28e43150a467cf43e5c30923881565b60016020528060005260406000206000915090508060000154908060010160009054906101000a900473ffffffffffffffffffffffffffffffffffffffff1690806002018054610f7590611e3c565b80601f0160208091040260200160405190810160405280929190818152602001828054610fa190611e3c565b8015610fee5780601f10610fc357610100808354040283529160200191610fee565b820191906000526020600020905b815481529060010190602001808311610fd157829003601f168201915b50505050509080600301805461100390611e3c565b80601f016020809104026020016040519081016040528092919081815260200182805461102f90611e3c565b801561107c5780601f106110515761010080835404028352916020019161107c565b820191906000526020600020905b81548152906001019060200180831161105f57829003601f168201915b50505050509080600401805461109190611e3c565b80601f01602080910402602001604051908101604052809291908181526020018280546110bd90611e3c565b801561110a5780601f106110df5761010080835404028352916020019161110a565b820191906000526020600020905b8154815290600101906020018083116110ed57829003601f168201915b50505050509080600501805461111f90611e3c565b80601f016020809104026020016040519081016040528092919081815260200182805461114b90611e3c565b80156111985780601f1061116d57610100808354040283529160200191611198565b820191906000526020600020905b81548152906001019060200180831161117b57829003601f168201915b5050505050908060060160009054906101000a900460ff16905087565b7fedcc084d3dcd65a1f7f23c65c46722faca6953d28e43150a467cf43e5c3092386111df81611324565b6001600084815260200190815260200160002060060160009054906101000a900460ff16611242576040517f08c379a000000000000000000000000000000000000000000000000000000000815260040161123990611c83565b60405180910390fd5b816001600085815260200190815260200160002060050190816112659190612019565b503373ffffffffffffffffffffffffffffffffffffffff16837f43e4a34b0d0ae1397d5f0de7c4d7d38a8244bf08da4db5e3e760a6b47608898f846040516112ad9190612307565b60405180910390a3505050565b60007f01ffc9a7000000000000000000000000000000000000000000000000000000007bffffffffffffffffffffffffffffffffffffffffffffffffffffffff1916827bffffffffffffffffffffffffffffffffffffffffffffffffffffffff1916149050919050565b61133581611330611429565b611523565b50565b60006113448383610ba6565b61141e57600160008085815260200190815260200160002060000160008473ffffffffffffffffffffffffffffffffffffffff1673ffffffffffffffffffffffffffffffffffffffff16815260200190815260200160002060006101000a81548160ff0219169083151502179055506113bb611429565b73ffffffffffffffffffffffffffffffffffffffff168273ffffffffffffffffffffffffffffffffffffffff16847f2f8788117e7eff1d82e926ec794901d17c78024a50270940304540a733656f0d60405160405180910390a460019050611423565b600090505b92915050565b600033905090565b600061143d8383610ba6565b1561151857600080600085815260200190815260200160002060000160008473ffffffffffffffffffffffffffffffffffffffff1673ffffffffffffffffffffffffffffffffffffffff16815260200190815260200160002060006101000a81548160ff0219169083151502179055506114b5611429565b73ffffffffffffffffffffffffffffffffffffffff168273ffffffffffffffffffffffffffffffffffffffff16847ff6391f5c32d9c69d2a47ea670b442974b53935d1edc7fd64eb21e047a839171b60405160405180910390a46001905061151d565b600090505b92915050565b61152d8282610ba6565b6115705780826040517fe2517d3f000000000000000000000000000000000000000000000000000000008152600401611567929190612329565b60405180910390fd5b5050565b6000604051905090565b600080fd5b600080fd5b60007fffffffff0000000000000000000000000000000000000000000000000000000082169050919050565b6115bd81611588565b81146115c857600080fd5b50565b6000813590506115da816115b4565b92915050565b6000602082840312156115f6576115f561157e565b5b6000611604848285016115cb565b91505092915050565b60008115159050919050565b6116228161160d565b82525050565b600060208201905061163d6000830184611619565b92915050565b6000819050919050565b61165681611643565b811461166157600080fd5b50565b6000813590506116738161164d565b92915050565b60006020828403121561168f5761168e61157e565b5b600061169d84828501611664565b91505092915050565b600073ffffffffffffffffffffffffffffffffffffffff82169050919050565b60006116d1826116a6565b9050919050565b6116e1816116c6565b82525050565b60006040820190506116fc60008301856116d8565b6117096020830184611619565b9392505050565b6000819050919050565b61172381611710565b811461172e57600080fd5b50565b6000813590506117408161171a565b92915050565b60006020828403121561175c5761175b61157e565b5b600061176a84828501611731565b91505092915050565b61177c81611710565b82525050565b60006020820190506117976000830184611773565b92915050565b6117a6816116c6565b81146117b157600080fd5b50565b6000813590506117c38161179d565b92915050565b600080604083850312156117e0576117df61157e565b5b60006117ee85828601611731565b92505060206117ff858286016117b4565b9150509250929050565b61181281611643565b82525050565b600060208201905061182d6000830184611809565b92915050565b6000806040838503121561184a5761184961157e565b5b600061185885828601611664565b9250506020611869858286016117b4565b9150509250929050565b600080fd5b600080fd5b6000601f19601f8301169050919050565b7f4e487b7100000000000000000000000000000000000000000000000000000000600052604160045260246000fd5b6118c68261187d565b810181811067ffffffffffffffff821117156118e5576118e461188e565b5b80604052505050565b60006118f8611574565b905061190482826118bd565b919050565b600067ffffffffffffffff8211156119245761192361188e565b5b61192d8261187d565b9050602081019050919050565b82818337600083830152505050565b600061195c61195784611909565b6118ee565b90508281526020810184848401111561197857611977611878565b5b61198384828561193a565b509392505050565b600082601f8301126119a05761199f611873565b5b81356119b0848260208601611949565b91505092915050565b600080600080600060a086880312156119d5576119d461157e565b5b60006119e3888289016117b4565b955050602086013567ffffffffffffffff811115611a0457611a03611583565b5b611a108882890161198b565b945050604086013567ffffffffffffffff811115611a3157611a30611583565b5b611a3d8882890161198b565b935050606086013567ffffffffffffffff811115611a5e57611a5d611583565b5b611a6a8882890161198b565b925050608086013567ffffffffffffffff811115611a8b57611a8a611583565b5b611a978882890161198b565b9150509295509295909350565b600060208284031215611aba57611ab961157e565b5b6000611ac8848285016117b4565b91505092915050565b600081519050919050565b600082825260208201905092915050565b60005b83811015611b0b578082015181840152602081019050611af0565b60008484015250505050565b6000611b2282611ad1565b611b2c8185611adc565b9350611b3c818560208601611aed565b611b458161187d565b840191505092915050565b600060e082019050611b65600083018a611809565b611b7260208301896116d8565b8181036040830152611b848188611b17565b90508181036060830152611b988187611b17565b90508181036080830152611bac8186611b17565b905081810360a0830152611bc08185611b17565b9050611bcf60c0830184611619565b98975050505050505050565b60008060408385031215611bf257611bf161157e565b5b6000611c0085828601611664565b925050602083013567ffffffffffffffff811115611c2157611c20611583565b5b611c2d8582860161198b565b9150509250929050565b7f50726f706572747920646f6573206e6f742065786973742e0000000000000000600082015250565b6000611c6d601883611adc565b9150611c7882611c37565b602082019050919050565b60006020820190508181036000830152611c9c81611c60565b9050919050565b7f596f7520617265206e6f7420746865206f776e6572206f66207468697320707260008201527f6f70657274792e00000000000000000000000000000000000000000000000000602082015250565b6000611cff602783611adc565b9150611d0a82611ca3565b604082019050919050565b60006020820190508181036000830152611d2e81611cf2565b9050919050565b7f496e76616c696420627579657220616464726573732e00000000000000000000600082015250565b6000611d6b601683611adc565b9150611d7682611d35565b602082019050919050565b60006020820190508181036000830152611d9a81611d5e565b9050919050565b7f43616e6e6f74207472616e7366657220746f2073656c662e0000000000000000600082015250565b6000611dd7601883611adc565b9150611de282611da1565b602082019050919050565b60006020820190508181036000830152611e0681611dca565b9050919050565b7f4e487b7100000000000000000000000000000000000000000000000000000000600052602260045260246000fd5b60006002820490506001821680611e5457607f821691505b602082108103611e6757611e66611e0d565b5b50919050565b60008190508160005260206000209050919050565b60006020601f8301049050919050565b600082821b905092915050565b600060088302611ecf7fffffffffffffffffffffffffffffffffffffffffffffffffffffffffffffffff82611e92565b611ed98683611e92565b95508019841693508086168417925050509392505050565b6000819050919050565b6000611f16611f11611f0c84611643565b611ef1565b611643565b9050919050565b6000819050919050565b611f3083611efb565b611f44611f3c82611f1d565b848454611e9f565b825550505050565b600090565b611f59611f4c565b611f64818484611f27565b505050565b5b81811015611f8857611f7d600082611f51565b600181019050611f6a565b5050565b601f821115611fcd57611f9e81611e6d565b611fa784611e82565b81016020851015611fb6578190505b611fca611fc285611e82565b830182611f69565b50505b505050565b600082821c905092915050565b6000611ff060001984600802611fd2565b1980831691505092915050565b60006120098383611fdf565b9150826002028217905092915050565b61202282611ad1565b67ffffffffffffffff81111561203b5761203a61188e565b5b6120458254611e3c565b612050828285611f8c565b600060209050601f8311600181146120835760008415612071578287015190505b61207b8582611ffd565b8655506120e3565b601f19841661209186611e6d565b60005b828110156120b957848901518255600182019150602085019450602081019050612094565b868310156120d657848901516120d2601f891682611fdf565b8355505b6001600288020188555050505b505050505050565b600060808201905081810360008301526121058187611b17565b905081810360208301526121198186611b17565b9050818103604083015261212d8185611b17565b905081810360608301526121418184611b17565b905095945050505050565b7f4e487b7100000000000000000000000000000000000000000000000000000000600052601160045260246000fd5b600061218682611643565b91507fffffffffffffffffffffffffffffffffffffffffffffffffffffffffffffffff82036121b8576121b761214c565b5b600182019050919050565b7f4e6f74206f776e6572206f72207265676973747261722e000000000000000000600082015250565b60006121f9601783611adc565b9150612204826121c3565b602082019050919050565b60006020820190508181036000830152612228816121ec565b9050919050565b7f4e6f2070656e64696e67207472616e736665722e000000000000000000000000600082015250565b6000612265601483611adc565b91506122708261222f565b602082019050919050565b6000602082019050818103600083015261229481612258565b9050919050565b7f4e6f2070656e64696e67207472616e7366657220726571756573742e00000000600082015250565b60006122d1601c83611adc565b91506122dc8261229b565b602082019050919050565b60006020820190508181036000830152612300816122c4565b9050919050565b600060208201905081810360008301526123218184611b17565b905092915050565b600060408201905061233e60008301856116d8565b61234b6020830184611773565b939250505056fea2646970667358221220d5c8d0bcf70e550f40a96635842254eeb80c4cab9877a4ea12ca34f42923f17264736f6c63430008140033",
  "linkReferences": {},
  "deployedLinkReferences": {}
}