{
  "_format": "hh-sol-artifact-1",
  "contractName": "TerraLedger",
  "sourceName": "contracts/TerraLedger.sol",
  "abi": [
    {
      "inputs": [],
      "stateMutability": "nonpayable",
      "type": "constructor"
    },
    {
      "inputs": [],
      "name": "AccessControlBadConfirmation",
      "type": "error"
    },
    {
      "inputs": [
        {
          "internalType": "address",
          "name": "account",
          "type": "address"
        },
        {
          "internalType": "bytes32",
          "name": "neededRole",
          "type": "bytes32"
        }
      ],
      "name": "AccessControlUnauthorizedAccount",
      "type": "error"
    },
    {
      "anonymous": false,
      "inputs": [
        {
          "indexed": true,
          "internalType": "uint256",
          "name": "propertyId",
          "type": "uint256"
        },
        {
          "indexed": true,
          "internalType": "address",
          "name": "oldOwner",
          "type": "address"
        },
        {
          "indexed": true,
          "internalType": "address",
          "name": "newOwner",
          "type": "address"
        }
      ],
      "name": "OwnershipTransferred",
      "type": "event"
    },
    {
      "anonymous": false,
      "inputs": [
        {
          "indexed": true,
          "internalType": "uint256",
          "name": "propertyId",
          "type": "uint256"
        },
        {
          "indexed": true,
          "internalType": "address",
          "name": "owner",
          "type": "address"
        },
        {
          "indexed": false,
          "internalType": "string",
          "name": "location",
          "type": "string"
        },
        {
          "indexed": false,
          "internalType": "string",
          "name": "area",
          "type": "string"
        },
        {
          "indexed": false,
          "internalType": "string",
          "name": "propertyType",
          "type": "string"
        },
        {
          "indexed": false,
          "internalType": "string",
          "name": "documentHash",
          "type": "string"
        }
      ],
      "name": "PropertyRegistered",
      "type": "event"
    },
    {
      "anonymous": false,
      "inputs": [
        {
          "indexed": true,
          "internalType": "bytes32",
          "name": "role",
          "type": "bytes32"
        },
        {
          "indexed": true,
          "internalType": "bytes32",
          "name": "previousAdminRole",
          "type": "bytes32"
        },
        {
          "indexed": true,
          "internalType": "bytes32",
          "name": "newAdminRole",
          "type": "bytes32"
        }
      ],
      "name": "RoleAdminChanged",
      "type": "event"
    },
    {
      "anonymous": false,
      "inputs": [
        {
          "indexed": true,
          "internalType": "bytes32",
          "name": "role",
          "type": "bytes32"
        },
        {
          "indexed": true,
          "internalType": "address",
          "name": "account",
          "type": "address"
        },
        {
          "indexed": true,
          "internalType": "address",
          "name": "sender",
          "type": "address"
        }
      ],
      "name": "RoleGranted",
      "type": "event"
    },
    {
      "anonymous": false,
      "inputs": [
        {
          "indexed": true,
          "internalType": "bytes32",
          "name": "role",
          "type": "bytes32"
        },
        {
          "indexed": true,
          "internalType": "address",
          "name": "account",
          "type": "address"
        },
        {
          "indexed": true,
          "internalType": "address",
          "name": "sender",
          "type": "address"
        }
      ],
      "name": "RoleRevoked",
      "type": "event"
    },
    {
      "anonymous": false,
      "inputs": [
        {
          "indexed": true,
          "internalType": "uint256",
          "name": "propertyId",
          "type": "uint256"
        },
        {
          "indexed": true,
          "internalType": "address",
          "name": "owner",
          "type": "address"
        },
        {
          "indexed": true,
          "internalType": "address",
          "name": "buyer",
          "type": "address"
        }
      ],
      "name": "TransferApproved",
      "type": "event"
    },
    {
      "anonymous": false,
      "inputs": [
        {
          "indexed": true,
          "internalType": "uint256",
          "name": "propertyId",
          "type": "uint256"
        },
        {
          "indexed": true,
          "internalType": "address",
          "name": "owner",
          "type": "address"
        },
        {
          "indexed": true,
          "internalType": "address",
          "name": "buyer",
          "type": "address"
        }
      ],
      "name": "TransferRequested",
      "type": "event"
    },
    {
      "inputs": [],
      "name": "AUTHORITY_ROLE",
      "outputs": [
        {
          "internalType": "bytes32",
          "name": "",
          "type": "bytes32"
        }
      ],
      "stateMutability": "view",
      "type": "function"
    },
    {
      "inputs": [],
      "name": "DEFAULT_ADMIN_ROLE",
      "outputs": [
        {
          "internalType": "bytes32",
          "name": "",
          "type": "bytes32"
        }
      ],
      "stateMutability": "view",
      "type": "function"
    },
    {
      "inputs": [],
      "name": "REGISTRAR_ROLE",
      "outputs": [
        {
          "internalType": "bytes32",
          "name": "",
          "type": "bytes32"
        }
      ],
      "stateMutability": "view",
      "type": "function"
    },
    {
      "inputs": [
        {
          "internalType": "address",
          "name": "account",
          "type": "address"
        }
      ],
      "name": "addRegistrar",
      "outputs": [],
      "stateMutability": "nonpayable",
      "type": "function"
    },
    {
      "inputs": [
        {
          "internalType": "uint256",
          "name": "_propertyId",
          "type": "uint256"
        }
      ],
      "name": "approveTransfer",
      "outputs": [],
      "stateMutability": "nonpayable",
      "type": "function"
    },
    {
      "inputs": [
        {
          "internalType": "uint256",
          "name": "_propertyId",
          "type": "uint256"
        }
      ],
      "name": "cancelTransfer",
      "outputs": [],
      "stateMutability": "nonpayable",
      "type": "function"
    },
    {
      "inputs": [
        {
          "internalType": "bytes32",
          "name": "role",
          "type": "bytes32"
        }
      ],
      "name": "getRoleAdmin",
      "outputs": [
        {
          "internalType": "bytes32",
          "name": "",
          "type": "bytes32"
        }
      ],
      "stateMutability": "view",
      "type": "function"
    },
    {
      "inputs": [
        {
          "internalType": "bytes32",
          "name": "role",
          "type": "bytes32"
        },
        {
          "internalType": "address",
          "name": "account",
          "type": "address"
        }
      ],
      "name": "grantRole",
      "outputs": [],
      "stateMutability": "nonpayable",
      "type": "function"
    },
    {
      "inputs": [
        {
          "internalType": "bytes32",
          "name": "role",
          "type": "bytes32"
        },
        {
          "internalType": "address",
          "name": "account",
          "type": "address"
        }
      ],
      "name": "hasRole",
      "outputs": [
        {
          "internalType": "bool",
          "name": "",
          "type": "bool"
        }
      ],
      "stateMutability": "view",
      "type": "function"
    },
    {
      "inputs": [],
      "name": "nextPropertyId",
      "outputs": [
        {
          "internalType": "uint256",
          "name": "",
          "type": "uint256"
        }
      ],
      "stateMutability": "view",
      "type": "function"
    },
    {
      "inputs": [
        {
          "internalType": "uint256",
          "name": "",
          "type": "uint256"
        }
      ],
      "name": "properties",
      "outputs": [
        {
          "internalType": "uint256",
          "name": "propertyId",
          "type": "uint256"
        },
        {
          "internalType": "address",
          "name": "owner",
          "type": "address"
        },
        {
          "internalType": "string",
          "name": "location",
          "type": "string"
        },
        {
          "internalType": "string",
          "name": "area",
          "type": "string"
        },
        {
          "internalType": "string",
          "name": "propertyType",
          "type": "string"
        },
        {
          "internalType": "string",
          "name": "documentHash",
          "type": "string"
        },
        {
          "internalType": "bool",
          "name": "isRegistered",
          "type": "bool"
        }
      ],
      "stateMutability": "view",
      "type": "function"
    },
    {
      "inputs": [
        {
          "internalType": "address",
          "name": "_propertyOwner",
          "type": "address"
        },
        {
          "internalType": "string",
          "name": "_location",
          "type": "string"
        },
        {
          "internalType": "string",
          "name": "_area",
          "type": "string"
        },
        {
          "internalType": "string",
          "name": "_propertyType",
          "type": "string"
        },
        {
          "internalType": "string",
          "name": "_documentHash",
          "type": "string"
        }
      ],
      "name": "registerProperty",
      "outputs": [],
      "stateMutability": "nonpayable",
      "type": "function"
    },
    {
      "inputs": [
        {
          "internalType": "address",
          "name": "account",
          "type": "address"
        }
      ],
      "name": "removeRegistrar",
      "outputs": [],
      "stateMutability": "nonpayable",
      "type": "function"
    },
    {
      "inputs": [
        {
          "internalType": "bytes32",
          "name": "role",
          "type": "bytes32"
        },
        {
          "internalType": "address",
          "name": "callerConfirmation",
          "type": "address"
        }
      ],
      "name": "renounceRole",
      "outputs": [],
      "stateMutability": "nonpayable",
      "type": "function"
    },
    {
      "inputs": [
        {
          "internalType": "uint256",
          "name": "_propertyId",
          "type": "uint256"
        },
        {
          "internalType": "address",
          "name": "_buyer",
          "type": "address"
        }
      ],
      "name": "requestTransfer",
      "outputs": [],
      "stateMutability": "nonpayable",
      "type": "function"
    },
    {
      "inputs": [
        {
          "internalType": "bytes32",
          "name": "role",
          "type": "bytes32"
        },
        {
          "internalType": "address",
          "name": "account",
          "type": "address"
        }
      ],
      "name": "revokeRole",
      "outputs": [],
      "stateMutability": "nonpayable",
      "type": "function"
    },
    {
      "inputs": [
        {
          "internalType": "bytes4",
          "name": "interfaceId",
          "type": "bytes4"
        }
      ],
      "name": "supportsInterface",
      "outputs": [
        {
          "internalType": "bool",
          "name": "",
          "type": "bool"
        }
      ],
      "stateMutability": "view",
      "type": "function"
    },
    {
      "inputs": [
        {
          "internalType": "uint256",
          "name": "",
          "type": "uint256"
        }
      ],
      "name": "transferRequests",
      "outputs": [
        {
          "internalType": "address",
          "name": "buyer",
          "type": "address"
        },
        {
          "internalType": "bool",
          "name": "pending",
          "type": "bool"
        }
      ],
      "stateMutability": "view",
      "type": "function"
    }
  ],
  "bytecode": "0x608060405260016003553480156200001657600080fd5b506200002c6000801b336200009960201b60201c565b506200005f7fd565e3fc066df348a5cbc05a8d6323e00552838041cea2d84cc59876ba37735d336200009960201b60201c565b50620000927fedcc084d3dcd65a1f7f23c65c46722faca6953d28e43150a467cf43e5c309238336200009960201b60201c565b506200020e565b6000620000ad83836200019c60201b60201c565b6200019157600160008085815260200190815260200160002060000160008473ffffffffffffffffffffffffffffffffffffffff1673ffffffffffffffffffffffffffffffffffffffff16815260200190815260200160002060006101000a81548160ff0219169083151502179055506200012d6200020660201b60201c565b73ffffffffffffffffffffffffffffffffffffffff168273ffffffffffffffffffffffffffffffffffffffff16847f2f8788117e7eff1d82e926ec794901d17c78024a50270940304540a733656f0d60405160405180910390a46001905062000196565b600090505b92915050565b600080600084815260200190815260200160002060000160008373ffffffffffffffffffffffffffffffffffffffff1673ffffffffffffffffffffffffffffffffffffffff16815260200190815260200160002060009054906101000a900460ff16905092915050565b600033905090565b6121de806200021e6000396000f3fe608060405234801561001057600080fd5b50600436106101165760003560e01c806359caecb5116100a2578063ba904eed11610071578063ba904eed146102de578063cacca4a0146102fa578063d547741f14610316578063f68e955314610332578063f7b108081461035057610116565b806359caecb51461025857806391d1485414610274578063a217fddf146102a4578063af92a693146102c257610116565b806336568abe116100e957806336568abe146101c857806339500f34146101e4578063403442321461020257806344435e7e1461021e5780634a3fba0e1461023a57610116565b806301ffc9a71461011b57806303486c401461014b578063248a9ca31461017c5780632f2ff15d146101ac575b600080fd5b610135600480360381019061013091906114b4565b610386565b60405161014291906114fc565b60405180910390f35b6101656004803603810190610160919061154d565b610400565b6040516101739291906115bb565b60405180910390f35b6101966004803603810190610191919061161a565b610451565b6040516101a39190611656565b60405180910390f35b6101c660048036038101906101c1919061169d565b610470565b005b6101e260048036038101906101dd919061169d565b610492565b005b6101ec61050d565b6040516101f991906116ec565b60405180910390f35b61021c60048036038101906102179190611707565b610513565b005b6102386004803603810190610233919061188d565b610819565b005b6102426109eb565b60405161024f9190611656565b60405180910390f35b610272600480360381019061026d919061154d565b610a0f565b005b61028e6004803603810190610289919061169d565b610b7f565b60405161029b91906114fc565b60405180910390f35b6102ac610be9565b6040516102b99190611656565b60405180910390f35b6102dc60048036038101906102d79190611978565b610bf0565b005b6102f860048036038101906102f39190611978565b610c48565b005b610314600480360381019061030f919061154d565b610ca0565b005b610330600480360381019061032b919061169d565b610eb9565b005b61033a610edb565b6040516103479190611656565b60405180910390f35b61036a6004803603810190610365919061154d565b610eff565b60405161037d9796959493929190611a24565b60405180910390f35b60007f7965db0b000000000000000000000000000000000000000000000000000000007bffffffffffffffffffffffffffffffffffffffffffffffffffffffff1916827bffffffffffffffffffffffffffffffffffffffffffffffffffffffff191614806103f957506103f88261118e565b5b9050919050565b60026020528060005260406000206000915090508060000160009054906101000a900473ffffffffffffffffffffffffffffffffffffffff16908060000160149054906101000a900460ff16905082565b6000806000838152602001908152602001600020600101549050919050565b61047982610451565b610482816111f8565b61048c838361120c565b50505050565b61049a6112fd565b73ffffffffffffffffffffffffffffffffffffffff168173ffffffffffffffffffffffffffffffffffffffff16146104fe576040517f6697b23200000000000000000000000000000000000000000000000000000000815260040160405180910390fd5b6105088282611305565b505050565b60035481565b60006001600084815260200190815260200160002090508060060160009054906101000a900460ff1661057b576040517f08c379a000000000000000000000000000000000000000000000000000000000815260040161057290611afb565b60405180910390fd5b8060010160009054906101000a900473ffffffffffffffffffffffffffffffffffffffff1673ffffffffffffffffffffffffffffffffffffffff163373ffffffffffffffffffffffffffffffffffffffff161461060d576040517f08c379a000000000000000000000000000000000000000000000000000000000815260040161060490611b8d565b60405180910390fd5b600073ffffffffffffffffffffffffffffffffffffffff168273ffffffffffffffffffffffffffffffffffffffff160361067c576040517f08c379a000000000000000000000000000000000000000000000000000000000815260040161067390611bf9565b60405180910390fd5b8060010160009054906101000a900473ffffffffffffffffffffffffffffffffffffffff1673ffffffffffffffffffffffffffffffffffffffff168273ffffffffffffffffffffffffffffffffffffffff160361070e576040517f08c379a000000000000000000000000000000000000000000000000000000000815260040161070590611c65565b60405180910390fd5b60405180604001604052808373ffffffffffffffffffffffffffffffffffffffff168152602001600115158152506002600085815260200190815260200160002060008201518160000160006101000a81548173ffffffffffffffffffffffffffffffffffffffff021916908373ffffffffffffffffffffffffffffffffffffffff16021790555060208201518160000160146101000a81548160ff0219169083151502179055509050508173ffffffffffffffffffffffffffffffffffffffff163373ffffffffffffffffffffffffffffffffffffffff16847fad86e5395107a44c23ae10207c8807efe6cd1bfc2980d8c2bcab8f3a24daccd160405160405180910390a4505050565b7fedcc084d3dcd65a1f7f23c65c46722faca6953d28e43150a467cf43e5c309238610843816111f8565b600060035490506040518060e001604052808281526020018873ffffffffffffffffffffffffffffffffffffffff16815260200187815260200186815260200185815260200184815260200160011515815250600160008381526020019081526020016000206000820151816000015560208201518160010160006101000a81548173ffffffffffffffffffffffffffffffffffffffff021916908373ffffffffffffffffffffffffffffffffffffffff160217905550604082015181600201908161090f9190611e91565b5060608201518160030190816109259190611e91565b50608082015181600401908161093b9190611e91565b5060a08201518160050190816109519190611e91565b5060c08201518160060160006101000a81548160ff0219169083151502179055509050508673ffffffffffffffffffffffffffffffffffffffff16817f89b8abf8448a723120191240550eaa60794f372e3cfa10f8f231da0ad0d8e468888888886040516109c29493929190611f63565b60405180910390a3600360008154809291906109dd90611ff3565b919050555050505050505050565b7fd565e3fc066df348a5cbc05a8d6323e00552838041cea2d84cc59876ba37735d81565b60006001600083815260200190815260200160002090508060010160009054906101000a900473ffffffffffffffffffffffffffffffffffffffff1673ffffffffffffffffffffffffffffffffffffffff163373ffffffffffffffffffffffffffffffffffffffff161480610aaa5750610aa97fedcc084d3dcd65a1f7f23c65c46722faca6953d28e43150a467cf43e5c30923833610b7f565b5b610ae9576040517f08c379a0000000000000000000000000000000000000000000000000000000008152600401610ae090612087565b60405180910390fd5b6002600083815260200190815260200160002060000160149054906101000a900460ff16610b4c576040517f08c379a0000000000000000000000000000000000000000000000000000000008152600401610b43906120f3565b60405180910390fd5b60006002600084815260200190815260200160002060000160146101000a81548160ff0219169083151502179055505050565b600080600084815260200190815260200160002060000160008373ffffffffffffffffffffffffffffffffffffffff1673ffffffffffffffffffffffffffffffffffffffff16815260200190815260200160002060009054906101000a900460ff16905092915050565b6000801b81565b7fd565e3fc066df348a5cbc05a8d6323e00552838041cea2d84cc59876ba37735d610c1a816111f8565b610c447fedcc084d3dcd65a1f7f23c65c46722faca6953d28e43150a467cf43e5c30923883610470565b5050565b7fd565e3fc066df348a5cbc05a8d6323e00552838041cea2d84cc59876ba37735d610c72816111f8565b610c9c7fedcc084d3dcd65a1f7f23c65c46722faca6953d28e43150a467cf43e5c30923883610eb9565b5050565b7fedcc084d3dcd65a1f7f23c65c46722faca6953d28e43150a467cf43e5c309238610cca816111f8565b60006002600084815260200190815260200160002090508060000160149054906101000a900460ff16610d32576040517f08c379a0000000000000000000000000000000000000000000000000000000008152600401610d299061215f565b60405180910390fd5b600060016000858152602001908152602001600020905060008160010160009054906101000a900473ffffffffffffffffffffffffffffffffffffffff16905060008360000160009054906101000a900473ffffffffffffffffffffffffffffffffffffffff169050808360010160006101000a81548173ffffffffffffffffffffffffffffffffffffffff021916908373ffffffffffffffffffffffffffffffffffffffff16021790555060008460000160146101000a81548160ff0219169083151502179055508073ffffffffffffffffffffffffffffffffffffffff168273ffffffffffffffffffffffffffffffffffffffff16877f46f832fce5ed185c63ebb7f10c809c6ecbe7c0e49554433903d83d6dceef88f760405160405180910390a48073ffffffffffffffffffffffffffffffffffffffff168273ffffffffffffffffffffffffffffffffffffffff16877f16b85f49bf01212961345d3016c9a531894accf62eb7680f2045d79185cc0ec060405160405180910390a4505050505050565b610ec282610451565b610ecb816111f8565b610ed58383611305565b50505050565b7fedcc084d3dcd65a1f7f23c65c46722faca6953d28e43150a467cf43e5c30923881565b60016020528060005260406000206000915090508060000154908060010160009054906101000a900473ffffffffffffffffffffffffffffffffffffffff1690806002018054610f4e90611cb4565b80601f0160208091040260200160405190810160405280929190818152602001828054610f7a90611cb4565b8015610fc75780601f10610f9c57610100808354040283529160200191610fc7565b820191906000526020600020905b815481529060010190602001808311610faa57829003601f168201915b505050505090806003018054610fdc90611cb4565b80601f016020809104026020016040519081016040528092919081815260200182805461100890611cb4565b80156110555780601f1061102a57610100808354040283529160200191611055565b820191906000526020600020905b81548152906001019060200180831161103857829003601f168201915b50505050509080600401805461106a90611cb4565b80601f016020809104026020016040519081016040528092919081815260200182805461109690611cb4565b80156110e35780601f106110b8576101008083540402835291602001916110e3565b820191906000526020600020905b8154815290600101906020018083116110c657829003601f168201915b5050505050908060050180546110f890611cb4565b80601f016020809104026020016040519081016040528092919081815260200182805461112490611cb4565b80156111715780601f1061114657610100808354040283529160200191611171565b820191906000526020600020905b81548152906001019060200180831161115457829003601f168201915b5050505050908060060160009054906101000a900460ff16905087565b60007f01ffc9a7000000000000000000000000000000000000000000000000000000007bffffffffffffffffffffffffffffffffffffffffffffffffffffffff1916827bffffffffffffffffffffffffffffffffffffffffffffffffffffffff1916149050919050565b611209816112046112fd565b6113f7565b50565b60006112188383610b7f565b6112f257600160008085815260200190815260200160002060000160008473ffffffffffffffffffffffffffffffffffffffff1673ffffffffffffffffffffffffffffffffffffffff16815260200190815260200160002060006101000a81548160ff02191690831515021790555061128f6112fd565b73ffffffffffffffffffffffffffffffffffffffff168273ffffffffffffffffffffffffffffffffffffffff16847f2f8788117e7eff1d82e926ec794901d17c78024a50270940304540a733656f0d60405160405180910390a4600190506112f7565b600090505b92915050565b600033905090565b60006113118383610b7f565b156113ec57600080600085815260200190815260200160002060000160008473ffffffffffffffffffffffffffffffffffffffff1673ffffffffffffffffffffffffffffffffffffffff16815260200190815260200160002060006101000a81548160ff0219169083151502179055506113896112fd565b73ffffffffffffffffffffffffffffffffffffffff168273ffffffffffffffffffffffffffffffffffffffff16847ff6391f5c32d9c69d2a47ea670b442974b53935d1edc7fd64eb21e047a839171b60405160405180910390a4600190506113f1565b600090505b92915050565b6114018282610b7f565b6114445780826040517fe2517d3f00000000000000000000000000000000000000000000000000000000815260040161143b92919061217f565b60405180910390fd5b5050565b6000604051905090565b600080fd5b600080fd5b60007fffffffff0000000000000000000000000000000000000000000000000000000082169050919050565b6114918161145c565b811461149c57600080fd5b50565b6000813590506114ae81611488565b92915050565b6000602082840312156114ca576114c9611452565b5b60006114d88482850161149f565b91505092915050565b60008115159050919050565b6114f6816114e1565b82525050565b600060208201905061151160008301846114ed565b92915050565b6000819050919050565b61152a81611517565b811461153557600080fd5b50565b60008135905061154781611521565b92915050565b60006020828403121561156357611562611452565b5b600061157184828501611538565b91505092915050565b600073ffffffffffffffffffffffffffffffffffffffff82169050919050565b60006115a58261157a565b9050919050565b6115b58161159a565b82525050565b60006040820190506115d060008301856115ac565b6115dd60208301846114ed565b9392505050565b6000819050919050565b6115f7816115e4565b811461160257600080fd5b50565b600081359050611614816115ee565b92915050565b6000602082840312156116305761162f611452565b5b600061163e84828501611605565b91505092915050565b611650816115e4565b82525050565b600060208201905061166b6000830184611647565b92915050565b61167a8161159a565b811461168557600080fd5b50565b60008135905061169781611671565b92915050565b600080604083850312156116b4576116b3611452565b5b60006116c285828601611605565b92505060206116d385828601611688565b9150509250929050565b6116e681611517565b82525050565b600060208201905061170160008301846116dd565b92915050565b6000806040838503121561171e5761171d611452565b5b600061172c85828601611538565b925050602061173d85828601611688565b9150509250929050565b600080fd5b600080fd5b6000601f19601f8301169050919050565b7f4e487b7100000000000000000000000000000000000000000000000000000000600052604160045260246000fd5b61179a82611751565b810181811067ffffffffffffffff821117156117b9576117b8611762565b5b80604052505050565b60006117cc611448565b90506117d88282611791565b919050565b600067ffffffffffffffff8211156117f8576117f7611762565b5b61180182611751565b9050602081019050919050565b82818337600083830152505050565b600061183061182b846117dd565b6117c2565b90508281526020810184848401111561184c5761184b61174c565b5b61185784828561180e565b509392505050565b600082601f83011261187457611873611747565b5b813561188484826020860161181d565b91505092915050565b600080600080600060a086880312156118a9576118a8611452565b5b60006118b788828901611688565b955050602086013567ffffffffffffffff8111156118d8576118d7611457565b5b6118e48882890161185f565b945050604086013567ffffffffffffffff81111561190557611904611457565b5b6119118882890161185f565b935050606086013567ffffffffffffffff81111561193257611931611457565b5b61193e8882890161185f565b925050608086013567ffffffffffffffff81111561195f5761195e611457565b5b61196b8882890161185f565b9150509295509295909350565b60006020828403121561198e5761198d611452565b5b600061199c84828501611688565b91505092915050565b600081519050919050565b600082825260208201905092915050565b60005b838110156119df5780820151818401526020810190506119c4565b60008484015250505050565b60006119f6826119a5565b611a0081856119b0565b9350611a108185602086016119c1565b611a1981611751565b840191505092915050565b600060e082019050611a39600083018a6116dd565b611a4660208301896115ac565b8181036040830152611a5881886119eb565b90508181036060830152611a6c81876119eb565b90508181036080830152611a8081866119eb565b905081810360a0830152611a9481856119eb565b9050611aa360c08301846114ed565b98975050505050505050565b7f50726f706572747920646f6573206e6f742065786973742e0000000000000000600082015250565b6000611ae56018836119b0565b9150611af082611aaf565b602082019050919050565b60006020820190508181036000830152611b1481611ad8565b9050919050565b7f596f7520617265206e6f7420746865206f776e6572206f66207468697320707260008201527f6f70657274792e00000000000000000000000000000000000000000000000000602082015250565b6000611b776027836119b0565b9150611b8282611b1b565b604082019050919050565b60006020820190508181036000830152611ba681611b6a565b9050919050565b7f496e76616c696420627579657220616464726573732e00000000000000000000600082015250565b6000611be36016836119b0565b9150611bee82611bad565b602082019050919050565b60006020820190508181036000830152611c1281611bd6565b9050919050565b7f43616e6e6f74207472616e7366657220746f2073656c662e0000000000000000600082015250565b6000611c4f6018836119b0565b9150611c5a82611c19565b602082019050919050565b60006020820190508181036000830152611c7e81611c42565b9050919050565b7f4e487b7100000000000000000000000000000000000000000000000000000000600052602260045260246000fd5b60006002820490506001821680611ccc57607f821691505b602082108103611cdf57611cde611c85565b5b50919050565b60008190508160005260206000209050919050565b60006020601f8301049050919050565b600082821b905092915050565b600060088302611d477fffffffffffffffffffffffffffffffffffffffffffffffffffffffffffffffff82611d0a565b611d518683611d0a565b95508019841693508086168417925050509392505050565b6000819050919050565b6000611d8e611d89611d8484611517565b611d69565b611517565b9050919050565b6000819050919050565b611da883611d73565b611dbc611db482611d95565b848454611d17565b825550505050565b600090565b611dd1611dc4565b611ddc818484611d9f565b505050565b5b81811015611e0057611df5600082611dc9565b600181019050611de2565b5050565b601f821115611e4557611e1681611ce5565b611e1f84611cfa565b81016020851015611e2e578190505b611e42611e3a85611cfa565b830182611de1565b50505b505050565b600082821c905092915050565b6000611e6860001984600802611e4a565b1980831691505092915050565b6000611e818383611e57565b9150826002028217905092915050565b611e9a826119a5565b67ffffffffffffffff811115611eb357611eb2611762565b5b611ebd8254611cb4565b611ec8828285611e04565b600060209050601f831160018114611efb5760008415611ee9578287015190505b611ef38582611e75565b865550611f5b565b601f198416611f0986611ce5565b60005b82811015611f3157848901518255600182019150602085019450602081019050611f0c565b86831015611f4e5784890151611f4a601f891682611e57565b8355505b6001600288020188555050505b505050505050565b60006080820190508181036000830152611f7d81876119eb565b90508181036020830152611f9181866119eb565b90508181036040830152611fa581856119eb565b90508181036060830152611fb981846119eb565b905095945050505050565b7f4e487b7100000000000000000000000000000000000000000000000000000000600052601160045260246000fd5b6000611ffe82611517565b91507fffffffffffffffffffffffffffffffffffffffffffffffffffffffffffffffff82036120305761202f611fc4565b5b600182019050919050565b7f4e6f74206f776e6572206f72207265676973747261722e000000000000000000600082015250565b60006120716017836119b0565b915061207c8261203b565b602082019050919050565b600060208201905081810360008301526120a081612064565b9050919050565b7f4e6f2070656e64696e67207472616e736665722e000000000000000000000000600082015250565b60006120dd6014836119b0565b91506120e8826120a7565b602082019050919050565b6000602082019050818103600083015261210c816120d0565b9050919050565b7f4e6f2070656e64696e67207472616e7366657220726571756573742e00000000600082015250565b6000612149601c836119b0565b915061215482612113565b602082019050919050565b600060208201905081810360008301526121788161213c565b9050919050565b600060408201905061219460008301856115ac565b6121a16020830184611647565b939250505056fea2646970667358221220697d2e5205a8d520192503ed59954742f5cfad4cd3cf7dda11ba35c91ca74ad364736f6c63430008140033",
  "linkReferences": {},
  "deployedLinkReferences": {}
}